{
  "abi": [
    {
      "inputs": [
        {
          "internalType": "address",
          "name": "_stakingManager",
          "type": "address"
        },
        {
          "internalType": "address",
          "name": "_collectRewardsRole",
          "type": "address"
        }
      ],
      "stateMutability": "nonpayable",
      "type": "constructor"
    },
    {
      "anonymous": false,
      "inputs": [
        {
          "indexed": true,
          "internalType": "address",
          "name": "_depositor",
          "type": "address"
        },
        {
          "indexed": false,
          "internalType": "uint256",
          "name": "_streamId",
          "type": "uint256"
        }
      ],
      "name": "MoveRewardsToPending",
      "type": "event"
    },
    {
      "anonymous": false,
      "inputs": [
        {
          "indexed": false,
          "internalType": "address",
          "name": "_new",
          "type": "address"
        },
        {
          "indexed": false,
          "internalType": "address",
          "name": "_sender",
          "type": "address"
        }
      ],
      "name": "NewManagerUpdate",
      "type": "event"
    },
    {
      "anonymous": false,
      "inputs": [
        {
          "indexed": true,
          "internalType": "bytes32",
          "name": "role",
          "type": "bytes32"
        },
        {
          "indexed": true,
          "internalType": "bytes32",
          "name": "previousAdminRole",
          "type": "bytes32"
        },
        {
          "indexed": true,
          "internalType": "bytes32",
          "name": "newAdminRole",
          "type": "bytes32"
        }
      ],
      "name": "RoleAdminChanged",
      "type": "event"
    },
    {
      "anonymous": false,
      "inputs": [
        {
          "indexed": true,
          "internalType": "bytes32",
          "name": "role",
          "type": "bytes32"
        },
        {
          "indexed": true,
          "internalType": "address",
          "name": "account",
          "type": "address"
        },
        {
          "indexed": true,
          "internalType": "address",
          "name": "sender",
          "type": "address"
        }
      ],
      "name": "RoleGranted",
      "type": "event"
    },
    {
      "anonymous": false,
      "inputs": [
        {
          "indexed": true,
          "internalType": "bytes32",
          "name": "role",
          "type": "bytes32"
        },
        {
          "indexed": true,
          "internalType": "address",
          "name": "account",
          "type": "address"
        },
        {
          "indexed": true,
          "internalType": "address",
          "name": "sender",
          "type": "address"
        }
      ],
      "name": "RoleRevoked",
      "type": "event"
    },
    {
      "anonymous": false,
      "inputs": [
        {
          "indexed": true,
          "internalType": "address",
          "name": "_depositor",
          "type": "address"
        },
        {
          "indexed": false,
          "internalType": "uint256",
          "name": "_assets",
          "type": "uint256"
        }
      ],
      "name": "StakeThroughDepositor",
      "type": "event"
    },
    {
      "anonymous": false,
      "inputs": [
        {
          "indexed": true,
          "internalType": "address",
          "name": "_depositor",
          "type": "address"
        }
      ],
      "name": "UnstakeAllThroughDepositor",
      "type": "event"
    },
    {
      "anonymous": false,
      "inputs": [
        {
          "indexed": true,
          "internalType": "address",
          "name": "_depositor",
          "type": "address"
        },
        {
          "indexed": false,
          "internalType": "uint256",
          "name": "_assets",
          "type": "uint256"
        }
      ],
      "name": "UnstakeThroughDepositor",
      "type": "event"
    },
    {
      "anonymous": false,
      "inputs": [
        {
          "indexed": true,
          "internalType": "address",
          "name": "_depositor",
          "type": "address"
        },
        {
          "indexed": false,
          "internalType": "uint256",
          "name": "_streamId",
          "type": "uint256"
        },
        {
          "indexed": false,
          "internalType": "address",
          "name": "_spender",
          "type": "address"
        }
      ],
      "name": "WithdrawRewards",
      "type": "event"
    },
    {
      "anonymous": false,
      "inputs": [
        {
          "indexed": true,
          "internalType": "address",
          "name": "_depositor",
          "type": "address"
        },
        {
          "indexed": true,
          "internalType": "address",
          "name": "_manager",
          "type": "address"
        },
        {
          "indexed": false,
          "internalType": "uint256",
          "name": "_assets",
          "type": "uint256"
        }
      ],
      "name": "WithdrawThroughDepositor",
      "type": "event"
    },
    {
      "inputs": [],
      "name": "ADMIN_ROLE",
      "outputs": [
        {
          "internalType": "bytes32",
          "name": "",
          "type": "bytes32"
        }
      ],
      "stateMutability": "view",
      "type": "function"
    },
    {
      "inputs": [],
      "name": "COLLECT_REWARDS_ROLE",
      "outputs": [
        {
          "internalType": "bytes32",
          "name": "",
          "type": "bytes32"
        }
      ],
      "stateMutability": "view",
      "type": "function"
    },
    {
      "inputs": [],
      "name": "DEFAULT_ADMIN_ROLE",
      "outputs": [
        {
          "internalType": "bytes32",
          "name": "",
          "type": "bytes32"
        }
      ],
      "stateMutability": "view",
      "type": "function"
    },
    {
      "inputs": [],
      "name": "auroraStaking",
      "outputs": [
        {
          "internalType": "address",
          "name": "",
          "type": "address"
        }
      ],
      "stateMutability": "view",
      "type": "function"
    },
    {
      "inputs": [],
      "name": "auroraToken",
      "outputs": [
        {
          "internalType": "address",
          "name": "",
          "type": "address"
        }
      ],
      "stateMutability": "view",
      "type": "function"
    },
    {
      "inputs": [],
      "name": "getPendingAurora",
      "outputs": [
        {
          "internalType": "uint256",
          "name": "",
          "type": "uint256"
        }
      ],
      "stateMutability": "view",
      "type": "function"
    },
    {
      "inputs": [
        {
          "internalType": "uint256",
          "name": "_streamId",
          "type": "uint256"
        }
      ],
      "name": "getPendingRewards",
      "outputs": [
        {
          "internalType": "uint256",
          "name": "",
          "type": "uint256"
        }
      ],
      "stateMutability": "view",
      "type": "function"
    },
    {
      "inputs": [
        {
          "internalType": "uint256",
          "name": "_streamId",
          "type": "uint256"
        }
      ],
      "name": "getReleaseTime",
      "outputs": [
        {
          "internalType": "uint256",
          "name": "",
          "type": "uint256"
        }
      ],
      "stateMutability": "view",
      "type": "function"
    },
    {
      "inputs": [
        {
          "internalType": "bytes32",
          "name": "role",
          "type": "bytes32"
        }
      ],
      "name": "getRoleAdmin",
      "outputs": [
        {
          "internalType": "bytes32",
          "name": "",
          "type": "bytes32"
        }
      ],
      "stateMutability": "view",
      "type": "function"
    },
    {
      "inputs": [
        {
          "internalType": "bytes32",
          "name": "role",
          "type": "bytes32"
        },
        {
          "internalType": "address",
          "name": "account",
          "type": "address"
        }
      ],
      "name": "grantRole",
      "outputs": [],
      "stateMutability": "nonpayable",
      "type": "function"
    },
    {
      "inputs": [
        {
          "internalType": "bytes32",
          "name": "role",
          "type": "bytes32"
        },
        {
          "internalType": "address",
          "name": "account",
          "type": "address"
        }
      ],
      "name": "hasRole",
      "outputs": [
        {
          "internalType": "bool",
          "name": "",
          "type": "bool"
        }
      ],
      "stateMutability": "view",
      "type": "function"
    },
    {
      "inputs": [
        {
          "internalType": "uint256",
          "name": "_streamId",
          "type": "uint256"
        }
      ],
      "name": "moveRewardsToPending",
      "outputs": [],
      "stateMutability": "nonpayable",
      "type": "function"
    },
    {
      "inputs": [
        {
          "internalType": "bytes32",
          "name": "role",
          "type": "bytes32"
        },
        {
          "internalType": "address",
          "name": "account",
          "type": "address"
        }
      ],
      "name": "renounceRole",
      "outputs": [],
      "stateMutability": "nonpayable",
      "type": "function"
    },
    {
      "inputs": [
        {
          "internalType": "bytes32",
          "name": "role",
          "type": "bytes32"
        },
        {
          "internalType": "address",
          "name": "account",
          "type": "address"
        }
      ],
      "name": "revokeRole",
      "outputs": [],
      "stateMutability": "nonpayable",
      "type": "function"
    },
    {
      "inputs": [],
      "name": "stAurVault",
      "outputs": [
        {
          "internalType": "address",
          "name": "",
          "type": "address"
        }
      ],
      "stateMutability": "view",
      "type": "function"
    },
    {
      "inputs": [
        {
          "internalType": "uint256",
          "name": "_assets",
          "type": "uint256"
        }
      ],
      "name": "stake",
      "outputs": [],
      "stateMutability": "nonpayable",
      "type": "function"
    },
    {
      "inputs": [],
      "name": "stakingManager",
      "outputs": [
        {
          "internalType": "address",
          "name": "",
          "type": "address"
        }
      ],
      "stateMutability": "view",
      "type": "function"
    },
    {
      "inputs": [
        {
          "internalType": "bytes4",
          "name": "interfaceId",
          "type": "bytes4"
        }
      ],
      "name": "supportsInterface",
      "outputs": [
        {
          "internalType": "bool",
          "name": "",
          "type": "bool"
        }
      ],
      "stateMutability": "view",
      "type": "function"
    },
    {
      "inputs": [
        {
          "internalType": "uint256",
          "name": "_assets",
          "type": "uint256"
        }
      ],
      "name": "unstake",
      "outputs": [],
      "stateMutability": "nonpayable",
      "type": "function"
    },
    {
      "inputs": [],
      "name": "unstakeAll",
      "outputs": [],
      "stateMutability": "nonpayable",
      "type": "function"
    },
    {
      "inputs": [
        {
          "internalType": "address",
          "name": "_stakingManager",
          "type": "address"
        }
      ],
      "name": "updateStakingManager",
      "outputs": [],
      "stateMutability": "nonpayable",
      "type": "function"
    },
    {
      "inputs": [
        {
          "internalType": "uint256",
          "name": "_assets",
          "type": "uint256"
        }
      ],
      "name": "withdraw",
      "outputs": [],
      "stateMutability": "nonpayable",
      "type": "function"
    },
    {
      "inputs": [
        {
          "internalType": "uint256",
          "name": "_streamId",
          "type": "uint256"
        },
        {
          "internalType": "address",
          "name": "_spender",
          "type": "address"
        }
      ],
      "name": "withdrawRewards",
      "outputs": [],
      "stateMutability": "nonpayable",
      "type": "function"
    },
    {
      "stateMutability": "payable",
      "type": "receive"
    }
  ],
  "bytecode": {
    "object": "0x60e06040523480156200001157600080fd5b5060405162001e0838038062001e08833981016040819052620000349162000345565b6001600160a01b0382166200008f5760405162461bcd60e51b815260206004820152601460248201527f494e56414c49445f5a45524f5f41444452455353000000000000000000000000604482015260640160405180910390fd5b600180546001600160a01b0319166001600160a01b038416908117909155604080516306cf931760e31b8152905184929163367c98b89160048083019260209291908290030181865afa158015620000eb573d6000803e3d6000fd5b505050506040513d601f19601f820116820180604052508101906200011191906200037d565b6001600160a01b03166080816001600160a01b031681525050806001600160a01b0316635578fdb26040518163ffffffff1660e01b8152600401602060405180830381865afa15801562000169573d6000803e3d6000fd5b505050506040513d601f19601f820116820180604052508101906200018f91906200037d565b6001600160a01b031660a0816001600160a01b031681525050806001600160a01b03166346e90fa66040518163ffffffff1660e01b8152600401602060405180830381865afa158015620001e7573d6000803e3d6000fd5b505050506040513d601f19601f820116820180604052508101906200020d91906200037d565b6001600160a01b031660c052620002457fa49807205ce4d355092ef5a8a18f56e8913cf4a201fbe287825b095693c217753362000287565b620002717f131c12305311744a3f7cfa41d985c1cd8592681deca082296d27adcfcc21a0b88362000287565b6200027e60003362000287565b505050620003a2565b6000828152602081815260408083206001600160a01b038516845290915290205460ff1662000324576000828152602081815260408083206001600160a01b03851684529091529020805460ff19166001179055620002e33390565b6001600160a01b0316816001600160a01b0316837f2f8788117e7eff1d82e926ec794901d17c78024a50270940304540a733656f0d60405160405180910390a45b5050565b80516001600160a01b03811681146200034057600080fd5b919050565b600080604083850312156200035957600080fd5b620003648362000328565b9150620003746020840162000328565b90509250929050565b6000602082840312156200039057600080fd5b6200039b8262000328565b9392505050565b60805160a05160c0516119db6200042d6000396000818161030c015281816105400152818161061c01528181610756015281816108910152818161092401528181610b2801528181610c8901528181610db60152610f97015260008181610360015281816106950152610b070152600081816102a401528181610aa10152610b5601526119db6000f3fe6080604052600436106101445760003560e01c806352db191f116100b6578063a217fddf1161006f578063a217fddf1461040b578063a694fc3a14610420578063d547741f14610440578063ee13ad8e14610460578063f3301f6b14610480578063f9f87c18146104a057600080fd5b806352db191f1461032e5780635578fdb21461034e57806375b238fc1461038257806381739a6e146103b657806391d14854146103cb57806396a1b6b5146103eb57600080fd5b80632f2ff15d116101085780632f2ff15d1461023d57806335322f371461025d57806336568abe14610272578063367c98b81461029257806345015d1b146102c657806346e90fa6146102fa57600080fd5b806301ffc9a71461015057806322828cc214610185578063248a9ca3146101bd5780632e17de78146101fb5780632e1a7d4d1461021d57600080fd5b3661014b57005b600080fd5b34801561015c57600080fd5b5061017061016b366004611687565b6104c0565b60405190151581526020015b60405180910390f35b34801561019157600080fd5b506001546101a5906001600160a01b031681565b6040516001600160a01b03909116815260200161017c565b3480156101c957600080fd5b506101ed6101d83660046116b1565b60009081526020819052604090206001015490565b60405190815260200161017c565b34801561020757600080fd5b5061021b6102163660046116b1565b6104f7565b005b34801561022957600080fd5b5061021b6102383660046116b1565b6105dc565b34801561024957600080fd5b5061021b6102583660046116df565b610700565b34801561026957600080fd5b5061021b61072a565b34801561027e57600080fd5b5061021b61028d3660046116df565b6107f4565b34801561029e57600080fd5b506101a57f000000000000000000000000000000000000000000000000000000000000000081565b3480156102d257600080fd5b506101ed7f131c12305311744a3f7cfa41d985c1cd8592681deca082296d27adcfcc21a0b881565b34801561030657600080fd5b506101a57f000000000000000000000000000000000000000000000000000000000000000081565b34801561033a57600080fd5b506101ed6103493660046116b1565b610872565b34801561035a57600080fd5b506101a57f000000000000000000000000000000000000000000000000000000000000000081565b34801561038e57600080fd5b506101ed7fa49807205ce4d355092ef5a8a18f56e8913cf4a201fbe287825b095693c2177581565b3480156103c257600080fd5b506101ed610905565b3480156103d757600080fd5b506101706103e63660046116df565b61099c565b3480156103f757600080fd5b5061021b61040636600461170f565b6109c5565b34801561041757600080fd5b506101ed600081565b34801561042c57600080fd5b5061021b61043b3660046116b1565b610a96565b34801561044c57600080fd5b5061021b61045b3660046116df565b610c24565b34801561046c57600080fd5b5061021b61047b3660046116b1565b610c49565b34801561048c57600080fd5b5061021b61049b3660046116df565b610d26565b3480156104ac57600080fd5b506101ed6104bb3660046116b1565b610f78565b60006001600160e01b03198216637965db0b60e01b14806104f157506301ffc9a760e01b6001600160e01b03198316145b92915050565b6001546001600160a01b0316331461052a5760405162461bcd60e51b81526004016105219061172c565b60405180910390fd5b6040516305c2fbcf60e31b8152600481018290527f00000000000000000000000000000000000000000000000000000000000000006001600160a01b031690632e17de7890602401600060405180830381600087803b15801561058c57600080fd5b505af11580156105a0573d6000803e3d6000fd5b50506040518381523092507fc4ac969c43c1e7364ef6ca8f015ce3805c77f663b44c96d3742ac3528005c4da915060200160405180910390a250565b6001546001600160a01b031633146106065760405162461bcd60e51b81526004016105219061172c565b604051632e1a7d4d60e01b8152600060048201527f00000000000000000000000000000000000000000000000000000000000000006001600160a01b031690632e1a7d4d90602401600060405180830381600087803b15801561066857600080fd5b505af115801561067c573d6000803e3d6000fd5b50506001546001600160a01b0390811692506106bc91507f0000000000000000000000000000000000000000000000000000000000000000168284610fce565b6040518281526001600160a01b0382169030907fd45388f1a404ab6ee2093faca0477cf9f59e5f38dc01da05803fbf5bdb0fccc99060200160405180910390a35050565b60008281526020819052604090206001015461071b81611031565b610725838361103e565b505050565b6001546001600160a01b031633146107545760405162461bcd60e51b81526004016105219061172c565b7f00000000000000000000000000000000000000000000000000000000000000006001600160a01b03166335322f376040518163ffffffff1660e01b8152600401600060405180830381600087803b1580156107af57600080fd5b505af11580156107c3573d6000803e3d6000fd5b50506040513092507fa595a4220581687cb91b274080d5c7ca712e5086bd02eb4d216f0bd73275ecc89150600090a2565b6001600160a01b03811633146108645760405162461bcd60e51b815260206004820152602f60248201527f416363657373436f6e74726f6c3a2063616e206f6e6c792072656e6f756e636560448201526e103937b632b9903337b91039b2b63360891b6064820152608401610521565b61086e82826110c2565b5050565b60405163c892772360e01b8152600481018290523060248201526000907f00000000000000000000000000000000000000000000000000000000000000006001600160a01b03169063c8927723906044015b602060405180830381865afa1580156108e1573d6000803e3d6000fd5b505050506040513d601f19601f820116820180604052508101906104f1919061175c565b604051637f37df3b60e01b8152600060048201819052306024830152907f00000000000000000000000000000000000000000000000000000000000000006001600160a01b031690637f37df3b90604401602060405180830381865afa158015610973573d6000803e3d6000fd5b505050506040513d601f19601f82011682018060405250810190610997919061175c565b905090565b6000918252602082815260408084206001600160a01b0393909316845291905290205460ff1690565b7fa49807205ce4d355092ef5a8a18f56e8913cf4a201fbe287825b095693c217756109ef81611031565b6001600160a01b038216610a3c5760405162461bcd60e51b8152602060048201526014602482015273494e56414c49445f5a45524f5f4144445245535360601b6044820152606401610521565b600180546001600160a01b0319166001600160a01b038416908117909155604080519182523360208301527fddc0a9f2354d60930ab764b633fb61eb5faaaede03a5d4505c9825519bdf0b2e910160405180910390a15050565b336001600160a01b037f00000000000000000000000000000000000000000000000000000000000000001614610b055760405162461bcd60e51b815260206004820152601460248201527313d3931657d193d497d4d510555497d59055531560621b6044820152606401610521565b7f00000000000000000000000000000000000000000000000000000000000000007f0000000000000000000000000000000000000000000000000000000000000000610b7c6001600160a01b0383167f00000000000000000000000000000000000000000000000000000000000000003086611127565b610b906001600160a01b0383168285611165565b60405163534a7e1d60e11b8152600481018490526001600160a01b0382169063a694fc3a90602401600060405180830381600087803b158015610bd257600080fd5b505af1158015610be6573d6000803e3d6000fd5b50506040518581523092507f5c767ca316415a0eee695a6f8fa8dd1d70ab023b6d9407acbf98d4476f1f08a3915060200160405180910390a2505050565b600082815260208190526040902060010154610c3f81611031565b61072583836110c2565b7f131c12305311744a3f7cfa41d985c1cd8592681deca082296d27adcfcc21a0b8610c7381611031565b604051637709d6c760e11b8152600481018390527f00000000000000000000000000000000000000000000000000000000000000006001600160a01b03169063ee13ad8e90602401600060405180830381600087803b158015610cd557600080fd5b505af1158015610ce9573d6000803e3d6000fd5b50506040518481523092507f71976f2a943a0c14857b1a13f43a0d2bbc587a3b1151fd48d2c3884b4200bfe0915060200160405180910390a25050565b7f131c12305311744a3f7cfa41d985c1cd8592681deca082296d27adcfcc21a0b8610d5081611031565b60008311610da05760405162461bcd60e51b815260206004820152601960248201527f57495448445241575f4f4e4c595f464f525f52455741524453000000000000006044820152606401610521565b60405163894e9a0d60e01b8152600481018490527f0000000000000000000000000000000000000000000000000000000000000000906000906001600160a01b0383169063894e9a0d9060240161016060405180830381865afa158015610e0b573d6000803e3d6000fd5b505050506040513d601f19601f82011682018060405250810190610e2f9190611775565b5050604051637f37df3b60e01b8152600481018f905230602482015297995060009850506001600160a01b038a1696637f37df3b96506044019450610e749350505050565b602060405180830381865afa158015610e91573d6000803e3d6000fd5b505050506040513d601f19601f82011682018060405250810190610eb5919061175c565b90508015610f7057604051632e1a7d4d60e01b8152600481018790526001600160a01b03841690632e1a7d4d90602401600060405180830381600087803b158015610eff57600080fd5b505af1158015610f13573d6000803e3d6000fd5b50610f2c925050506001600160a01b0383168683611165565b604080518781526001600160a01b038716602082015230917ffb0872526787ac1be379aa37eaa9913b47d6d50c3f5fe5ec67ffe4282493670e910160405180910390a25b505050505050565b604051637f37df3b60e01b8152600481018290523060248201526000907f00000000000000000000000000000000000000000000000000000000000000006001600160a01b031690637f37df3b906044016108c4565b6040516001600160a01b03831660248201526044810182905261072590849063a9059cbb60e01b906064015b60408051601f198184030181529190526020810180516001600160e01b03166001600160e01b031990931692909217909152611217565b61103b81336112e9565b50565b611048828261099c565b61086e576000828152602081815260408083206001600160a01b03851684529091529020805460ff1916600117905561107e3390565b6001600160a01b0316816001600160a01b0316837f2f8788117e7eff1d82e926ec794901d17c78024a50270940304540a733656f0d60405160405180910390a45050565b6110cc828261099c565b1561086e576000828152602081815260408083206001600160a01b0385168085529252808320805460ff1916905551339285917ff6391f5c32d9c69d2a47ea670b442974b53935d1edc7fd64eb21e047a839171b9190a45050565b6040516001600160a01b038085166024830152831660448201526064810182905261115f9085906323b872dd60e01b90608401610ffa565b50505050565b604051636eb1769f60e11b81523060048201526001600160a01b038381166024830152600091839186169063dd62ed3e90604401602060405180830381865afa1580156111b6573d6000803e3d6000fd5b505050506040513d601f19601f820116820180604052508101906111da919061175c565b6111e4919061182e565b6040516001600160a01b03851660248201526044810182905290915061115f90859063095ea7b360e01b90606401610ffa565b600061126c826040518060400160405280602081526020017f5361666545524332303a206c6f772d6c6576656c2063616c6c206661696c6564815250856001600160a01b03166113429092919063ffffffff16565b805190915015610725578080602001905181019061128a9190611841565b6107255760405162461bcd60e51b815260206004820152602a60248201527f5361666545524332303a204552433230206f7065726174696f6e20646964206e6044820152691bdd081cdd58d8d9595960b21b6064820152608401610521565b6112f3828261099c565b61086e5761130081611359565b61130b83602061136b565b60405160200161131c929190611887565b60408051601f198184030181529082905262461bcd60e51b8252610521916004016118fc565b6060611351848460008561150e565b949350505050565b60606104f16001600160a01b03831660145b6060600061137a83600261192f565b61138590600261182e565b67ffffffffffffffff81111561139d5761139d611946565b6040519080825280601f01601f1916602001820160405280156113c7576020820181803683370190505b509050600360fc1b816000815181106113e2576113e261195c565b60200101906001600160f81b031916908160001a905350600f60fb1b816001815181106114115761141161195c565b60200101906001600160f81b031916908160001a905350600061143584600261192f565b61144090600161182e565b90505b60018111156114b8576f181899199a1a9b1b9c1cb0b131b232b360811b85600f16601081106114745761147461195c565b1a60f81b82828151811061148a5761148a61195c565b60200101906001600160f81b031916908160001a90535060049490941c936114b181611972565b9050611443565b5083156115075760405162461bcd60e51b815260206004820181905260248201527f537472696e67733a20686578206c656e67746820696e73756666696369656e746044820152606401610521565b9392505050565b60608247101561156f5760405162461bcd60e51b815260206004820152602660248201527f416464726573733a20696e73756666696369656e742062616c616e636520666f6044820152651c8818d85b1b60d21b6064820152608401610521565b600080866001600160a01b0316858760405161158b9190611989565b60006040518083038185875af1925050503d80600081146115c8576040519150601f19603f3d011682016040523d82523d6000602084013e6115cd565b606091505b50915091506115de878383876115e9565b979650505050505050565b60608315611658578251600003611651576001600160a01b0385163b6116515760405162461bcd60e51b815260206004820152601d60248201527f416464726573733a2063616c6c20746f206e6f6e2d636f6e74726163740000006044820152606401610521565b5081611351565b611351838381511561166d5781518083602001fd5b8060405162461bcd60e51b815260040161052191906118fc565b60006020828403121561169957600080fd5b81356001600160e01b03198116811461150757600080fd5b6000602082840312156116c357600080fd5b5035919050565b6001600160a01b038116811461103b57600080fd5b600080604083850312156116f257600080fd5b823591506020830135611704816116ca565b809150509250929050565b60006020828403121561172157600080fd5b8135611507816116ca565b60208082526016908201527527a7262cafa327a92fa9aa20aaa92fa6a0a720a3a2a960511b604082015260600190565b60006020828403121561176e57600080fd5b5051919050565b60008060008060008060008060008060006101608c8e03121561179757600080fd5b8b516117a2816116ca565b60208d0151909b506117b3816116ca565b809a505060408c0151985060608c0151975060808c0151965060a08c0151955060c08c0151945060e08c015193506101008c015192506101208c015191506101408c01516003811061180457600080fd5b809150509295989b509295989b9093969950565b634e487b7160e01b600052601160045260246000fd5b808201808211156104f1576104f1611818565b60006020828403121561185357600080fd5b8151801515811461150757600080fd5b60005b8381101561187e578181015183820152602001611866565b50506000910152565b7f416363657373436f6e74726f6c3a206163636f756e74200000000000000000008152600083516118bf816017850160208801611863565b7001034b99036b4b9b9b4b733903937b6329607d1b60179184019182015283516118f0816028840160208801611863565b01602801949350505050565b602081526000825180602084015261191b816040850160208701611863565b601f01601f19169190910160400192915050565b80820281158282048414176104f1576104f1611818565b634e487b7160e01b600052604160045260246000fd5b634e487b7160e01b600052603260045260246000fd5b60008161198157611981611818565b506000190190565b6000825161199b818460208701611863565b919091019291505056fea26469706673582212204fd5b16a9ab6c4787a9f416e79801102305dd051913d5597d5928a08ff8abbc664736f6c63430008120033",
    "linkReferences": {}
  },
  "methodIdentifiers": {
    "ADMIN_ROLE()": "75b238fc",
    "COLLECT_REWARDS_ROLE()": "45015d1b",
    "DEFAULT_ADMIN_ROLE()": "a217fddf",
    "auroraStaking()": "46e90fa6",
    "auroraToken()": "5578fdb2",
    "getPendingAurora()": "81739a6e",
    "getPendingRewards(uint256)": "f9f87c18",
    "getReleaseTime(uint256)": "52db191f",
    "getRoleAdmin(bytes32)": "248a9ca3",
    "grantRole(bytes32,address)": "2f2ff15d",
    "hasRole(bytes32,address)": "91d14854",
    "moveRewardsToPending(uint256)": "ee13ad8e",
    "renounceRole(bytes32,address)": "36568abe",
    "revokeRole(bytes32,address)": "d547741f",
    "stAurVault()": "367c98b8",
    "stake(uint256)": "a694fc3a",
    "stakingManager()": "22828cc2",
    "supportsInterface(bytes4)": "01ffc9a7",
    "unstake(uint256)": "2e17de78",
    "unstakeAll()": "35322f37",
    "updateStakingManager(address)": "96a1b6b5",
    "withdraw(uint256)": "2e1a7d4d",
    "withdrawRewards(uint256,address)": "f3301f6b"
  },
  "id": 0
}