{
  "abi": [
    {
      "inputs": [
        {
          "internalType": "address",
          "name": "_auroraToken",
          "type": "address"
        },
        {
          "internalType": "address",
          "name": "_centauriToken",
          "type": "address"
        }
      ],
      "stateMutability": "nonpayable",
      "type": "constructor"
    },
    {
      "inputs": [],
      "name": "centauriToken",
      "outputs": [
        {
          "internalType": "address",
          "name": "",
          "type": "address"
        }
      ],
      "stateMutability": "view",
      "type": "function"
    },
    {
      "inputs": [],
      "name": "failAtNextWithdraw",
      "outputs": [
        {
          "internalType": "bool",
          "name": "",
          "type": "bool"
        }
      ],
      "stateMutability": "view",
      "type": "function"
    },
    {
      "inputs": [],
      "name": "failAtSecondWithdraw",
      "outputs": [
        {
          "internalType": "bool",
          "name": "",
          "type": "bool"
        }
      ],
      "stateMutability": "view",
      "type": "function"
    },
    {
      "inputs": [
        {
          "internalType": "uint256",
          "name": "streamId",
          "type": "uint256"
        },
        {
          "internalType": "address",
          "name": "account",
          "type": "address"
        }
      ],
      "name": "getPending",
      "outputs": [
        {
          "internalType": "uint256",
          "name": "",
          "type": "uint256"
        }
      ],
      "stateMutability": "view",
      "type": "function"
    },
    {
      "inputs": [
        {
          "internalType": "uint256",
          "name": "streamId",
          "type": "uint256"
        },
        {
          "internalType": "address",
          "name": "account",
          "type": "address"
        }
      ],
      "name": "getReleaseTime",
      "outputs": [
        {
          "internalType": "uint256",
          "name": "",
          "type": "uint256"
        }
      ],
      "stateMutability": "view",
      "type": "function"
    },
    {
      "inputs": [
        {
          "internalType": "uint256",
          "name": "streamId",
          "type": "uint256"
        },
        {
          "internalType": "uint256",
          "name": "lastUpdate",
          "type": "uint256"
        }
      ],
      "name": "getRewardsAmount",
      "outputs": [
        {
          "internalType": "uint256",
          "name": "",
          "type": "uint256"
        }
      ],
      "stateMutability": "view",
      "type": "function"
    },
    {
      "inputs": [
        {
          "internalType": "uint256",
          "name": "streamId",
          "type": "uint256"
        }
      ],
      "name": "getStream",
      "outputs": [
        {
          "internalType": "address",
          "name": "streamOwner",
          "type": "address"
        },
        {
          "internalType": "address",
          "name": "rewardToken",
          "type": "address"
        },
        {
          "internalType": "uint256",
          "name": "auroraDepositAmount",
          "type": "uint256"
        },
        {
          "internalType": "uint256",
          "name": "auroraClaimedAmount",
          "type": "uint256"
        },
        {
          "internalType": "uint256",
          "name": "rewardDepositAmount",
          "type": "uint256"
        },
        {
          "internalType": "uint256",
          "name": "rewardClaimedAmount",
          "type": "uint256"
        },
        {
          "internalType": "uint256",
          "name": "maxDepositAmount",
          "type": "uint256"
        },
        {
          "internalType": "uint256",
          "name": "lastTimeOwnerClaimed",
          "type": "uint256"
        },
        {
          "internalType": "uint256",
          "name": "rps",
          "type": "uint256"
        },
        {
          "internalType": "uint256",
          "name": "tau",
          "type": "uint256"
        },
        {
          "internalType": "enum AuroraStaking.StreamStatus",
          "name": "status",
          "type": "uint8"
        }
      ],
      "stateMutability": "view",
      "type": "function"
    },
    {
      "inputs": [],
      "name": "getTotalAmountOfStakedAurora",
      "outputs": [
        {
          "internalType": "uint256",
          "name": "",
          "type": "uint256"
        }
      ],
      "stateMutability": "view",
      "type": "function"
    },
    {
      "inputs": [
        {
          "internalType": "address",
          "name": "account",
          "type": "address"
        }
      ],
      "name": "getUserShares",
      "outputs": [
        {
          "internalType": "uint256",
          "name": "",
          "type": "uint256"
        }
      ],
      "stateMutability": "view",
      "type": "function"
    },
    {
      "inputs": [
        {
          "internalType": "address",
          "name": "account",
          "type": "address"
        }
      ],
      "name": "getUserTotalDeposit",
      "outputs": [
        {
          "internalType": "uint256",
          "name": "",
          "type": "uint256"
        }
      ],
      "stateMutability": "view",
      "type": "function"
    },
    {
      "inputs": [
        {
          "internalType": "uint256",
          "name": "streamId",
          "type": "uint256"
        }
      ],
      "name": "moveRewardsToPending",
      "outputs": [],
      "stateMutability": "nonpayable",
      "type": "function"
    },
    {
      "inputs": [
        {
          "internalType": "uint256",
          "name": "amount",
          "type": "uint256"
        }
      ],
      "name": "stake",
      "outputs": [],
      "stateMutability": "nonpayable",
      "type": "function"
    },
    {
      "inputs": [],
      "name": "tauAuroraStream",
      "outputs": [
        {
          "internalType": "uint256",
          "name": "",
          "type": "uint256"
        }
      ],
      "stateMutability": "view",
      "type": "function"
    },
    {
      "inputs": [],
      "name": "tauCentauriStream",
      "outputs": [
        {
          "internalType": "uint256",
          "name": "",
          "type": "uint256"
        }
      ],
      "stateMutability": "view",
      "type": "function"
    },
    {
      "inputs": [],
      "name": "totalAmountOfStakedAurora",
      "outputs": [
        {
          "internalType": "uint256",
          "name": "",
          "type": "uint256"
        }
      ],
      "stateMutability": "view",
      "type": "function"
    },
    {
      "inputs": [],
      "name": "totalAuroraShares",
      "outputs": [
        {
          "internalType": "uint256",
          "name": "",
          "type": "uint256"
        }
      ],
      "stateMutability": "view",
      "type": "function"
    },
    {
      "inputs": [],
      "name": "touchedAt",
      "outputs": [
        {
          "internalType": "uint256",
          "name": "",
          "type": "uint256"
        }
      ],
      "stateMutability": "view",
      "type": "function"
    },
    {
      "inputs": [
        {
          "internalType": "uint256",
          "name": "amount",
          "type": "uint256"
        }
      ],
      "name": "unstake",
      "outputs": [],
      "stateMutability": "nonpayable",
      "type": "function"
    },
    {
      "inputs": [],
      "name": "unstakeAll",
      "outputs": [],
      "stateMutability": "nonpayable",
      "type": "function"
    },
    {
      "inputs": [
        {
          "internalType": "bool",
          "name": "_newValue",
          "type": "bool"
        }
      ],
      "name": "updateFailAtSecondWithdraw",
      "outputs": [],
      "stateMutability": "nonpayable",
      "type": "function"
    },
    {
      "inputs": [
        {
          "internalType": "uint256",
          "name": "streamId",
          "type": "uint256"
        }
      ],
      "name": "withdraw",
      "outputs": [],
      "stateMutability": "nonpayable",
      "type": "function"
    }
  ],
  "bytecode": {
    "object": "0x60a060405234801561001057600080fd5b5060405161121238038061121283398101604081905261002f91610083565b6001600160a01b0391821660805242600055610e10600355610708600555600480546001600160a01b031916919092161790556100b6565b80516001600160a01b038116811461007e57600080fd5b919050565b6000806040838503121561009657600080fd5b61009f83610067565b91506100ad60208401610067565b90509250929050565b6080516111336100df6000396000818161061b015281816106ff0152610a6c01526111336000f3fe608060405234801561001057600080fd5b50600436106101375760003560e01c80637f37df3b116100b8578063ba0cb22b1161007c578063ba0cb22b146102a9578063bb07ec1b146102d2578063c8927723146102db578063cd5ba5901461030e578063d1ce09d514610316578063ee13ad8e1461032957600080fd5b80637f37df3b146101e55780638089b7dd14610218578063894e9a0d14610243578063a4c828dc1461026d578063a694fc3a1461029657600080fd5b806335322f37116100ff57806335322f37146101ab57806336630cc7146101b35780633895a275146101c65780633d10bb36146101cf5780637c8f7b65146101dc57600080fd5b80631e7df4301461013c5780631fd8c5f41461016357806321ae5f5e1461017a5780632e17de78146101835780632e1a7d4d14610198575b600080fd5b600a5461014e90610100900460ff1681565b60405190151581526020015b60405180910390f35b61016c60005481565b60405190815260200161015a565b61016c60055481565b610196610191366004610ea0565b61033c565b005b6101966101a6366004610ea0565b610424565b610196610490565b61016c6101c1366004610eb9565b61056f565b61016c60015481565b600a5461014e9060ff1681565b61016c60035481565b61016c6101f3366004610ef7565b6001600160a01b03166000908152600860209081526040808320938352929052205490565b60045461022b906001600160a01b031681565b6040516001600160a01b03909116815260200161015a565b610256610251366004610ea0565b6105f7565b60405161015a9b9a99989796959493929190610f23565b61016c61027b366004610fab565b6001600160a01b031660009081526006602052604090205490565b6101966102a4366004610ea0565b6106e0565b61016c6102b7366004610fab565b6001600160a01b031660009081526007602052604090205490565b61016c60025481565b61016c6102e9366004610ef7565b6001600160a01b03166000908152600960209081526040808320938352929052205490565b61016c610727565b610196610324366004610fdb565b610747565b610196610337366004610ea0565b610768565b60025460000361038e5760405162461bcd60e51b81526020600482015260186024820152775a45524f5f544f54414c5f4155524f52415f53484152455360401b60448201526064015b60405180910390fd5b3360009081526007602052604081205490036103df5760405162461bcd60e51b815260206004820152601060248201526f5a45524f5f555345525f53484152455360801b6044820152606401610385565b6103e7610831565b6002543360009081526007602052604081205460015491929161040a919061100e565b6104149190611025565b9050610420828261086d565b5050565b33600090815260096020908152604080832084845290915290205442116104845760405162461bcd60e51b8152602060048201526014602482015273494e56414c49445f52454c454153455f54494d4560601b6044820152606401610385565b61048d81610a37565b50565b6002546000036104dd5760405162461bcd60e51b81526020600482015260186024820152775a45524f5f544f54414c5f4155524f52415f53484152455360401b6044820152606401610385565b33600090815260076020526040812054900361052e5760405162461bcd60e51b815260206004820152601060248201526f5a45524f5f555345525f53484152455360801b6044820152606401610385565b610536610831565b60025433600090815260076020526040812054600154919291610559919061100e565b6105639190611025565b905061048d818261086d565b6000821561057c57600080fd5b428211156105c25760405162461bcd60e51b8152602060048201526013602482015272494e56414c49445f4c4153545f55504441544560681b6044820152606401610385565b4282036105d1575060006105f1565b60006105dd8342611047565b6105ed90655af3107a400061100e565b9150505b92915050565b60008060008060008060008060008060008b600003610658575050600354600099507f000000000000000000000000000000000000000000000000000000000000000098508a975089965086955085945084935083925082915060026106d1565b8b60010361069557505060045460055460009a506001600160a01b0390911698508a975089965086955085945084935083925082915060026106d1565b60405162461bcd60e51b81526020600482015260116024820152701253959053125117d4d51491505357d251607a1b6044820152606401610385565b91939597999b90929496989a50565b6106e8610831565b6106f23382610ab2565b61048d6001600160a01b037f000000000000000000000000000000000000000000000000000000000000000016333084610b9d565b60006107356000805461056f565b600154610742919061105a565b905090565b600a805460ff19168215151790558061048d57600a805461ff001916905550565b3360009081526007602052604081205490036107c65760405162461bcd60e51b815260206004820152601f60248201527f555345525f444f45535f4e4f545f484156455f41435455414c5f5354414b45006044820152606401610385565b6107ce610831565b33600090815260086020908152604080832084845290915281208054670de0b6b3a7640000929061080090849061105a565b9091555050600554610812904261105a565b3360009081526009602090815260408083209483529390529190912055565b426000540361083c57565b60025415610867576108506000805461056f565b60016000828254610861919061105a565b90915550505b42600055565b600a5460ff16156108d357600a54610100900460ff16156108c35760405162461bcd60e51b815260206004820152601060248201526f222aa6a6acafaa22a9aa2fa2a92927a960811b6044820152606401610385565b600a805461ff0019166101001790555b816000036109115760405162461bcd60e51b815260206004820152600b60248201526a16915493d7d05353d5539560aa1b6044820152606401610385565b808211156109615760405162461bcd60e51b815260206004820152601860248201527f4e4f545f454e4f5547485f5354414b455f42414c414e434500000000000000006044820152606401610385565b336000908152600760205260408120546002805491929091610984908490611047565b9091555050336000908152600760205260408120819055600180548392906109ad908490611047565b909155505033600090815260066020908152604080832083905560088252808320838052909152812080548492906109e690849061105a565b90915550506003546109f8904261105a565b336000908152600960209081526040808320838052909152812091909155610a208383611047565b90508015610a3257610a323382610ab2565b505050565b336000908152600860209081526040808320848452909152812080549082905590829003610a93576104206001600160a01b037f0000000000000000000000000000000000000000000000000000000000000000163383610c0e565b8160010361069557600454610420906001600160a01b03163383610c0e565b6000600254600003610ac5575080610b0c565b600060025483610ad5919061100e565b905060015481610ae59190611025565b91508060015483610af6919061100e565b1015610b0a57610b0760018361105a565b91505b505b6001600160a01b03831660009081526007602052604081208054839290610b3490849061105a565b925050819055508060026000828254610b4d919061105a565b925050819055508160016000828254610b66919061105a565b90915550506001600160a01b03831660009081526006602052604081208054849290610b9390849061105a565b9091555050505050565b6040516001600160a01b0380851660248301528316604482015260648101829052610c089085906323b872dd60e01b906084015b60408051601f198184030181529190526020810180516001600160e01b03166001600160e01b031990931692909217909152610c3e565b50505050565b6040516001600160a01b038316602482015260448101829052610a3290849063a9059cbb60e01b90606401610bd1565b6000610c93826040518060400160405280602081526020017f5361666545524332303a206c6f772d6c6576656c2063616c6c206661696c6564815250856001600160a01b0316610d109092919063ffffffff16565b805190915015610a325780806020019051810190610cb1919061106d565b610a325760405162461bcd60e51b815260206004820152602a60248201527f5361666545524332303a204552433230206f7065726174696f6e20646964206e6044820152691bdd081cdd58d8d9595960b21b6064820152608401610385565b6060610d1f8484600085610d27565b949350505050565b606082471015610d885760405162461bcd60e51b815260206004820152602660248201527f416464726573733a20696e73756666696369656e742062616c616e636520666f6044820152651c8818d85b1b60d21b6064820152608401610385565b600080866001600160a01b03168587604051610da491906110ae565b60006040518083038185875af1925050503d8060008114610de1576040519150601f19603f3d011682016040523d82523d6000602084013e610de6565b606091505b5091509150610df787838387610e02565b979650505050505050565b60608315610e71578251600003610e6a576001600160a01b0385163b610e6a5760405162461bcd60e51b815260206004820152601d60248201527f416464726573733a2063616c6c20746f206e6f6e2d636f6e74726163740000006044820152606401610385565b5081610d1f565b610d1f8383815115610e865781518083602001fd5b8060405162461bcd60e51b815260040161038591906110ca565b600060208284031215610eb257600080fd5b5035919050565b60008060408385031215610ecc57600080fd5b50508035926020909101359150565b80356001600160a01b0381168114610ef257600080fd5b919050565b60008060408385031215610f0a57600080fd5b82359150610f1a60208401610edb565b90509250929050565b6001600160a01b038c811682528b166020820152604081018a9052606081018990526080810188905260a0810187905260c0810186905260e0810185905261010081018490526101208101839052610160810160038310610f9457634e487b7160e01b600052602160045260246000fd5b826101408301529c9b505050505050505050505050565b600060208284031215610fbd57600080fd5b610fc682610edb565b9392505050565b801515811461048d57600080fd5b600060208284031215610fed57600080fd5b8135610fc681610fcd565b634e487b7160e01b600052601160045260246000fd5b80820281158282048414176105f1576105f1610ff8565b60008261104257634e487b7160e01b600052601260045260246000fd5b500490565b818103818111156105f1576105f1610ff8565b808201808211156105f1576105f1610ff8565b60006020828403121561107f57600080fd5b8151610fc681610fcd565b60005b838110156110a557818101518382015260200161108d565b50506000910152565b600082516110c081846020870161108a565b9190910192915050565b60208152600082518060208401526110e981604085016020870161108a565b601f01601f1916919091016040019291505056fea264697066735822122066e29f8cf72919c7c1bae084d8ecf7b5f81e335cebae9d71256c386359ec349c64736f6c63430008120033",
    "linkReferences": {}
  },
  "methodIdentifiers": {
    "centauriToken()": "8089b7dd",
    "failAtNextWithdraw()": "1e7df430",
    "failAtSecondWithdraw()": "3d10bb36",
    "getPending(uint256,address)": "7f37df3b",
    "getReleaseTime(uint256,address)": "c8927723",
    "getRewardsAmount(uint256,uint256)": "36630cc7",
    "getStream(uint256)": "894e9a0d",
    "getTotalAmountOfStakedAurora()": "cd5ba590",
    "getUserShares(address)": "ba0cb22b",
    "getUserTotalDeposit(address)": "a4c828dc",
    "moveRewardsToPending(uint256)": "ee13ad8e",
    "stake(uint256)": "a694fc3a",
    "tauAuroraStream()": "7c8f7b65",
    "tauCentauriStream()": "21ae5f5e",
    "totalAmountOfStakedAurora()": "3895a275",
    "totalAuroraShares()": "bb07ec1b",
    "touchedAt()": "1fd8c5f4",
    "unstake(uint256)": "2e17de78",
    "unstakeAll()": "35322f37",
    "updateFailAtSecondWithdraw(bool)": "d1ce09d5",
    "withdraw(uint256)": "2e1a7d4d"
  },
  "id": 11
}