{
  "abi": [
    {
      "inputs": [],
      "stateMutability": "nonpayable",
      "type": "constructor"
    },
    {
      "anonymous": false,
      "inputs": [
        {
          "indexed": false,
          "internalType": "address",
          "name": "previousAdmin",
          "type": "address"
        },
        {
          "indexed": false,
          "internalType": "address",
          "name": "newAdmin",
          "type": "address"
        }
      ],
      "name": "AdminChanged",
      "type": "event"
    },
    {
      "anonymous": false,
      "inputs": [
        {
          "indexed": true,
          "internalType": "address",
          "name": "beacon",
          "type": "address"
        }
      ],
      "name": "BeaconUpgraded",
      "type": "event"
    },
    {
      "anonymous": false,
      "inputs": [
        {
          "indexed": false,
          "internalType": "uint8",
          "name": "version",
          "type": "uint8"
        }
      ],
      "name": "Initialized",
      "type": "event"
    },
    {
      "anonymous": false,
      "inputs": [
        {
          "indexed": true,
          "internalType": "uint256",
          "name": "streamId",
          "type": "uint256"
        },
        {
          "indexed": true,
          "internalType": "address",
          "name": "user",
          "type": "address"
        },
        {
          "indexed": false,
          "internalType": "uint256",
          "name": "amount",
          "type": "uint256"
        }
      ],
      "name": "Pending",
      "type": "event"
    },
    {
      "anonymous": false,
      "inputs": [
        {
          "indexed": true,
          "internalType": "uint256",
          "name": "streamId",
          "type": "uint256"
        },
        {
          "indexed": true,
          "internalType": "address",
          "name": "user",
          "type": "address"
        },
        {
          "indexed": false,
          "internalType": "uint256",
          "name": "amount",
          "type": "uint256"
        }
      ],
      "name": "Released",
      "type": "event"
    },
    {
      "anonymous": false,
      "inputs": [
        {
          "indexed": true,
          "internalType": "bytes32",
          "name": "role",
          "type": "bytes32"
        },
        {
          "indexed": true,
          "internalType": "bytes32",
          "name": "previousAdminRole",
          "type": "bytes32"
        },
        {
          "indexed": true,
          "internalType": "bytes32",
          "name": "newAdminRole",
          "type": "bytes32"
        }
      ],
      "name": "RoleAdminChanged",
      "type": "event"
    },
    {
      "anonymous": false,
      "inputs": [
        {
          "indexed": true,
          "internalType": "bytes32",
          "name": "role",
          "type": "bytes32"
        },
        {
          "indexed": true,
          "internalType": "address",
          "name": "account",
          "type": "address"
        },
        {
          "indexed": true,
          "internalType": "address",
          "name": "sender",
          "type": "address"
        }
      ],
      "name": "RoleGranted",
      "type": "event"
    },
    {
      "anonymous": false,
      "inputs": [
        {
          "indexed": true,
          "internalType": "bytes32",
          "name": "role",
          "type": "bytes32"
        },
        {
          "indexed": true,
          "internalType": "address",
          "name": "account",
          "type": "address"
        },
        {
          "indexed": true,
          "internalType": "address",
          "name": "sender",
          "type": "address"
        }
      ],
      "name": "RoleRevoked",
      "type": "event"
    },
    {
      "anonymous": false,
      "inputs": [
        {
          "indexed": true,
          "internalType": "address",
          "name": "user",
          "type": "address"
        },
        {
          "indexed": false,
          "internalType": "uint256",
          "name": "amount",
          "type": "uint256"
        },
        {
          "indexed": false,
          "internalType": "uint256",
          "name": "shares",
          "type": "uint256"
        }
      ],
      "name": "Staked",
      "type": "event"
    },
    {
      "anonymous": false,
      "inputs": [
        {
          "indexed": true,
          "internalType": "uint256",
          "name": "streamId",
          "type": "uint256"
        },
        {
          "indexed": true,
          "internalType": "address",
          "name": "owner",
          "type": "address"
        },
        {
          "indexed": true,
          "internalType": "address",
          "name": "token",
          "type": "address"
        },
        {
          "indexed": false,
          "internalType": "uint256",
          "name": "tokenAmount",
          "type": "uint256"
        },
        {
          "indexed": false,
          "internalType": "uint256",
          "name": "auroraAmount",
          "type": "uint256"
        }
      ],
      "name": "StreamCreated",
      "type": "event"
    },
    {
      "anonymous": false,
      "inputs": [
        {
          "indexed": true,
          "internalType": "uint256",
          "name": "streamId",
          "type": "uint256"
        },
        {
          "indexed": true,
          "internalType": "address",
          "name": "owner",
          "type": "address"
        },
        {
          "indexed": false,
          "internalType": "uint256",
          "name": "amount",
          "type": "uint256"
        }
      ],
      "name": "StreamOwnerRewardReleased",
      "type": "event"
    },
    {
      "anonymous": false,
      "inputs": [
        {
          "indexed": true,
          "internalType": "uint256",
          "name": "streamId",
          "type": "uint256"
        },
        {
          "indexed": true,
          "internalType": "address",
          "name": "owner",
          "type": "address"
        },
        {
          "indexed": true,
          "internalType": "address",
          "name": "token",
          "type": "address"
        }
      ],
      "name": "StreamProposalCancelled",
      "type": "event"
    },
    {
      "anonymous": false,
      "inputs": [
        {
          "indexed": true,
          "internalType": "uint256",
          "name": "streamId",
          "type": "uint256"
        },
        {
          "indexed": true,
          "internalType": "address",
          "name": "owner",
          "type": "address"
        },
        {
          "indexed": true,
          "internalType": "address",
          "name": "token",
          "type": "address"
        },
        {
          "indexed": false,
          "internalType": "uint256",
          "name": "maxDepositAmount",
          "type": "uint256"
        },
        {
          "indexed": false,
          "internalType": "uint256",
          "name": "auroraDepositAmount",
          "type": "uint256"
        }
      ],
      "name": "StreamProposed",
      "type": "event"
    },
    {
      "anonymous": false,
      "inputs": [
        {
          "indexed": true,
          "internalType": "uint256",
          "name": "streamId",
          "type": "uint256"
        },
        {
          "indexed": true,
          "internalType": "address",
          "name": "owner",
          "type": "address"
        },
        {
          "indexed": true,
          "internalType": "address",
          "name": "token",
          "type": "address"
        }
      ],
      "name": "StreamRemoved",
      "type": "event"
    },
    {
      "anonymous": false,
      "inputs": [
        {
          "indexed": true,
          "internalType": "address",
          "name": "user",
          "type": "address"
        },
        {
          "indexed": false,
          "internalType": "uint256",
          "name": "amount",
          "type": "uint256"
        }
      ],
      "name": "Unstaked",
      "type": "event"
    },
    {
      "anonymous": false,
      "inputs": [
        {
          "indexed": true,
          "internalType": "address",
          "name": "implementation",
          "type": "address"
        }
      ],
      "name": "Upgraded",
      "type": "event"
    },
    {
      "inputs": [],
      "name": "AIRDROP_ROLE",
      "outputs": [
        {
          "internalType": "bytes32",
          "name": "",
          "type": "bytes32"
        }
      ],
      "stateMutability": "view",
      "type": "function"
    },
    {
      "inputs": [],
      "name": "CLAIM_ROLE",
      "outputs": [
        {
          "internalType": "bytes32",
          "name": "",
          "type": "bytes32"
        }
      ],
      "stateMutability": "view",
      "type": "function"
    },
    {
      "inputs": [],
      "name": "DEFAULT_ADMIN_ROLE",
      "outputs": [
        {
          "internalType": "bytes32",
          "name": "",
          "type": "bytes32"
        }
      ],
      "stateMutability": "view",
      "type": "function"
    },
    {
      "inputs": [],
      "name": "FOUR_YEARS",
      "outputs": [
        {
          "internalType": "uint256",
          "name": "",
          "type": "uint256"
        }
      ],
      "stateMutability": "view",
      "type": "function"
    },
    {
      "inputs": [],
      "name": "ONE_MONTH",
      "outputs": [
        {
          "internalType": "uint256",
          "name": "",
          "type": "uint256"
        }
      ],
      "stateMutability": "view",
      "type": "function"
    },
    {
      "inputs": [],
      "name": "PAUSE_ROLE",
      "outputs": [
        {
          "internalType": "bytes32",
          "name": "",
          "type": "bytes32"
        }
      ],
      "stateMutability": "view",
      "type": "function"
    },
    {
      "inputs": [],
      "name": "STREAM_MANAGER_ROLE",
      "outputs": [
        {
          "internalType": "bytes32",
          "name": "",
          "type": "bytes32"
        }
      ],
      "stateMutability": "view",
      "type": "function"
    },
    {
      "inputs": [
        {
          "internalType": "address",
          "name": "target",
          "type": "address"
        },
        {
          "internalType": "bytes",
          "name": "data",
          "type": "bytes"
        }
      ],
      "name": "adminDelegatecall",
      "outputs": [
        {
          "internalType": "bytes",
          "name": "",
          "type": "bytes"
        }
      ],
      "stateMutability": "payable",
      "type": "function"
    },
    {
      "inputs": [
        {
          "internalType": "uint256",
          "name": "flags",
          "type": "uint256"
        }
      ],
      "name": "adminPause",
      "outputs": [],
      "stateMutability": "nonpayable",
      "type": "function"
    },
    {
      "inputs": [
        {
          "internalType": "uint256",
          "name": "key",
          "type": "uint256"
        },
        {
          "internalType": "uint256",
          "name": "value",
          "type": "uint256"
        }
      ],
      "name": "adminSstore",
      "outputs": [],
      "stateMutability": "nonpayable",
      "type": "function"
    },
    {
      "inputs": [
        {
          "internalType": "uint256",
          "name": "key",
          "type": "uint256"
        },
        {
          "internalType": "uint256",
          "name": "value",
          "type": "uint256"
        },
        {
          "internalType": "uint256",
          "name": "mask",
          "type": "uint256"
        }
      ],
      "name": "adminSstoreWithMask",
      "outputs": [],
      "stateMutability": "nonpayable",
      "type": "function"
    },
    {
      "inputs": [],
      "name": "auroraToken",
      "outputs": [
        {
          "internalType": "address",
          "name": "",
          "type": "address"
        }
      ],
      "stateMutability": "view",
      "type": "function"
    },
    {
      "inputs": [
        {
          "internalType": "address",
          "name": "account",
          "type": "address"
        },
        {
          "internalType": "uint256[]",
          "name": "streamIds",
          "type": "uint256[]"
        }
      ],
      "name": "batchClaimOnBehalfOfAnotherUser",
      "outputs": [],
      "stateMutability": "nonpayable",
      "type": "function"
    },
    {
      "inputs": [
        {
          "internalType": "address[]",
          "name": "accounts",
          "type": "address[]"
        },
        {
          "internalType": "uint256[]",
          "name": "streamIds",
          "type": "uint256[]"
        }
      ],
      "name": "batchClaimOnBehalfOfOtherUsers",
      "outputs": [],
      "stateMutability": "nonpayable",
      "type": "function"
    },
    {
      "inputs": [
        {
          "internalType": "uint256[]",
          "name": "streamIds",
          "type": "uint256[]"
        }
      ],
      "name": "batchMoveRewardsToPending",
      "outputs": [],
      "stateMutability": "nonpayable",
      "type": "function"
    },
    {
      "inputs": [
        {
          "internalType": "uint256[]",
          "name": "streamIds",
          "type": "uint256[]"
        }
      ],
      "name": "batchWithdraw",
      "outputs": [],
      "stateMutability": "nonpayable",
      "type": "function"
    },
    {
      "inputs": [
        {
          "internalType": "uint256",
          "name": "streamId",
          "type": "uint256"
        }
      ],
      "name": "cancelStreamProposal",
      "outputs": [],
      "stateMutability": "nonpayable",
      "type": "function"
    },
    {
      "inputs": [
        {
          "internalType": "address",
          "name": "account",
          "type": "address"
        }
      ],
      "name": "claimAllOnBehalfOfAnotherUser",
      "outputs": [],
      "stateMutability": "nonpayable",
      "type": "function"
    },
    {
      "inputs": [
        {
          "internalType": "address[]",
          "name": "accounts",
          "type": "address[]"
        }
      ],
      "name": "claimAllOnBehalfOfOtherUsers",
      "outputs": [],
      "stateMutability": "nonpayable",
      "type": "function"
    },
    {
      "inputs": [
        {
          "internalType": "address",
          "name": "account",
          "type": "address"
        },
        {
          "internalType": "uint256",
          "name": "streamId",
          "type": "uint256"
        }
      ],
      "name": "claimOnBehalfOfAnotherUser",
      "outputs": [],
      "stateMutability": "nonpayable",
      "type": "function"
    },
    {
      "inputs": [
        {
          "internalType": "uint256",
          "name": "streamId",
          "type": "uint256"
        },
        {
          "internalType": "uint256",
          "name": "rewardTokenAmount",
          "type": "uint256"
        }
      ],
      "name": "createStream",
      "outputs": [],
      "stateMutability": "nonpayable",
      "type": "function"
    },
    {
      "inputs": [
        {
          "internalType": "uint256",
          "name": "streamId",
          "type": "uint256"
        },
        {
          "internalType": "address",
          "name": "account",
          "type": "address"
        }
      ],
      "name": "getAmountOfShares",
      "outputs": [
        {
          "internalType": "uint256",
          "name": "",
          "type": "uint256"
        }
      ],
      "stateMutability": "view",
      "type": "function"
    },
    {
      "inputs": [
        {
          "internalType": "uint256",
          "name": "streamId",
          "type": "uint256"
        }
      ],
      "name": "getLatestRewardPerShare",
      "outputs": [
        {
          "internalType": "uint256",
          "name": "",
          "type": "uint256"
        }
      ],
      "stateMutability": "view",
      "type": "function"
    },
    {
      "inputs": [
        {
          "internalType": "uint256",
          "name": "streamId",
          "type": "uint256"
        },
        {
          "internalType": "address",
          "name": "account",
          "type": "address"
        }
      ],
      "name": "getPending",
      "outputs": [
        {
          "internalType": "uint256",
          "name": "",
          "type": "uint256"
        }
      ],
      "stateMutability": "view",
      "type": "function"
    },
    {
      "inputs": [
        {
          "internalType": "uint256",
          "name": "streamId",
          "type": "uint256"
        },
        {
          "internalType": "address",
          "name": "account",
          "type": "address"
        }
      ],
      "name": "getReleaseTime",
      "outputs": [
        {
          "internalType": "uint256",
          "name": "",
          "type": "uint256"
        }
      ],
      "stateMutability": "view",
      "type": "function"
    },
    {
      "inputs": [
        {
          "internalType": "uint256",
          "name": "streamId",
          "type": "uint256"
        }
      ],
      "name": "getRewardPerShare",
      "outputs": [
        {
          "internalType": "uint256",
          "name": "",
          "type": "uint256"
        }
      ],
      "stateMutability": "view",
      "type": "function"
    },
    {
      "inputs": [
        {
          "internalType": "uint256",
          "name": "streamId",
          "type": "uint256"
        },
        {
          "internalType": "address",
          "name": "account",
          "type": "address"
        }
      ],
      "name": "getRewardPerShareForUser",
      "outputs": [
        {
          "internalType": "uint256",
          "name": "",
          "type": "uint256"
        }
      ],
      "stateMutability": "view",
      "type": "function"
    },
    {
      "inputs": [
        {
          "internalType": "uint256",
          "name": "streamId",
          "type": "uint256"
        },
        {
          "internalType": "uint256",
          "name": "lastUpdate",
          "type": "uint256"
        }
      ],
      "name": "getRewardsAmount",
      "outputs": [
        {
          "internalType": "uint256",
          "name": "",
          "type": "uint256"
        }
      ],
      "stateMutability": "view",
      "type": "function"
    },
    {
      "inputs": [
        {
          "internalType": "bytes32",
          "name": "role",
          "type": "bytes32"
        }
      ],
      "name": "getRoleAdmin",
      "outputs": [
        {
          "internalType": "bytes32",
          "name": "",
          "type": "bytes32"
        }
      ],
      "stateMutability": "view",
      "type": "function"
    },
    {
      "inputs": [
        {
          "internalType": "uint256",
          "name": "streamId",
          "type": "uint256"
        }
      ],
      "name": "getStream",
      "outputs": [
        {
          "internalType": "address",
          "name": "streamOwner",
          "type": "address"
        },
        {
          "internalType": "address",
          "name": "rewardToken",
          "type": "address"
        },
        {
          "internalType": "uint256",
          "name": "auroraDepositAmount",
          "type": "uint256"
        },
        {
          "internalType": "uint256",
          "name": "auroraClaimedAmount",
          "type": "uint256"
        },
        {
          "internalType": "uint256",
          "name": "rewardDepositAmount",
          "type": "uint256"
        },
        {
          "internalType": "uint256",
          "name": "rewardClaimedAmount",
          "type": "uint256"
        },
        {
          "internalType": "uint256",
          "name": "maxDepositAmount",
          "type": "uint256"
        },
        {
          "internalType": "uint256",
          "name": "lastTimeOwnerClaimed",
          "type": "uint256"
        },
        {
          "internalType": "uint256",
          "name": "rps",
          "type": "uint256"
        },
        {
          "internalType": "uint256",
          "name": "tau",
          "type": "uint256"
        },
        {
          "internalType": "enum JetStakingV1.StreamStatus",
          "name": "status",
          "type": "uint8"
        }
      ],
      "stateMutability": "view",
      "type": "function"
    },
    {
      "inputs": [
        {
          "internalType": "uint256",
          "name": "streamId",
          "type": "uint256"
        },
        {
          "internalType": "address",
          "name": "account",
          "type": "address"
        }
      ],
      "name": "getStreamClaimableAmount",
      "outputs": [
        {
          "internalType": "uint256",
          "name": "",
          "type": "uint256"
        }
      ],
      "stateMutability": "view",
      "type": "function"
    },
    {
      "inputs": [
        {
          "internalType": "uint256",
          "name": "streamId",
          "type": "uint256"
        }
      ],
      "name": "getStreamOwnerClaimableAmount",
      "outputs": [
        {
          "internalType": "uint256",
          "name": "",
          "type": "uint256"
        }
      ],
      "stateMutability": "view",
      "type": "function"
    },
    {
      "inputs": [
        {
          "internalType": "uint256",
          "name": "streamId",
          "type": "uint256"
        }
      ],
      "name": "getStreamSchedule",
      "outputs": [
        {
          "internalType": "uint256[]",
          "name": "scheduleTimes",
          "type": "uint256[]"
        },
        {
          "internalType": "uint256[]",
          "name": "scheduleRewards",
          "type": "uint256[]"
        }
      ],
      "stateMutability": "view",
      "type": "function"
    },
    {
      "inputs": [],
      "name": "getStreamsCount",
      "outputs": [
        {
          "internalType": "uint256",
          "name": "",
          "type": "uint256"
        }
      ],
      "stateMutability": "view",
      "type": "function"
    },
    {
      "inputs": [],
      "name": "getTotalAmountOfStakedAurora",
      "outputs": [
        {
          "internalType": "uint256",
          "name": "",
          "type": "uint256"
        }
      ],
      "stateMutability": "view",
      "type": "function"
    },
    {
      "inputs": [
        {
          "internalType": "address",
          "name": "token",
          "type": "address"
        }
      ],
      "name": "getTreasuryBalance",
      "outputs": [
        {
          "internalType": "uint256",
          "name": "",
          "type": "uint256"
        }
      ],
      "stateMutability": "view",
      "type": "function"
    },
    {
      "inputs": [
        {
          "internalType": "address",
          "name": "account",
          "type": "address"
        }
      ],
      "name": "getUserShares",
      "outputs": [
        {
          "internalType": "uint256",
          "name": "",
          "type": "uint256"
        }
      ],
      "stateMutability": "view",
      "type": "function"
    },
    {
      "inputs": [
        {
          "internalType": "address",
          "name": "account",
          "type": "address"
        }
      ],
      "name": "getUserTotalDeposit",
      "outputs": [
        {
          "internalType": "uint256",
          "name": "",
          "type": "uint256"
        }
      ],
      "stateMutability": "view",
      "type": "function"
    },
    {
      "inputs": [
        {
          "internalType": "bytes32",
          "name": "role",
          "type": "bytes32"
        },
        {
          "internalType": "address",
          "name": "account",
          "type": "address"
        }
      ],
      "name": "grantRole",
      "outputs": [],
      "stateMutability": "nonpayable",
      "type": "function"
    },
    {
      "inputs": [
        {
          "internalType": "bytes32",
          "name": "role",
          "type": "bytes32"
        },
        {
          "internalType": "address",
          "name": "account",
          "type": "address"
        }
      ],
      "name": "hasRole",
      "outputs": [
        {
          "internalType": "bool",
          "name": "",
          "type": "bool"
        }
      ],
      "stateMutability": "view",
      "type": "function"
    },
    {
      "inputs": [
        {
          "internalType": "address",
          "name": "aurora",
          "type": "address"
        },
        {
          "internalType": "address",
          "name": "streamOwner",
          "type": "address"
        },
        {
          "internalType": "uint256[]",
          "name": "scheduleTimes",
          "type": "uint256[]"
        },
        {
          "internalType": "uint256[]",
          "name": "scheduleRewards",
          "type": "uint256[]"
        },
        {
          "internalType": "uint256",
          "name": "tauAuroraStream",
          "type": "uint256"
        },
        {
          "internalType": "uint256",
          "name": "_flags",
          "type": "uint256"
        },
        {
          "internalType": "address",
          "name": "_treasury",
          "type": "address"
        },
        {
          "internalType": "uint256",
          "name": "_maxWeight",
          "type": "uint256"
        },
        {
          "internalType": "uint256",
          "name": "_minWeight",
          "type": "uint256"
        }
      ],
      "name": "initialize",
      "outputs": [],
      "stateMutability": "nonpayable",
      "type": "function"
    },
    {
      "inputs": [],
      "name": "maxWeight",
      "outputs": [
        {
          "internalType": "uint256",
          "name": "",
          "type": "uint256"
        }
      ],
      "stateMutability": "view",
      "type": "function"
    },
    {
      "inputs": [],
      "name": "minWeight",
      "outputs": [
        {
          "internalType": "uint256",
          "name": "",
          "type": "uint256"
        }
      ],
      "stateMutability": "view",
      "type": "function"
    },
    {
      "inputs": [],
      "name": "moveAllRewardsToPending",
      "outputs": [],
      "stateMutability": "nonpayable",
      "type": "function"
    },
    {
      "inputs": [
        {
          "internalType": "uint256",
          "name": "streamId",
          "type": "uint256"
        }
      ],
      "name": "moveRewardsToPending",
      "outputs": [],
      "stateMutability": "nonpayable",
      "type": "function"
    },
    {
      "inputs": [],
      "name": "paused",
      "outputs": [
        {
          "internalType": "uint256",
          "name": "",
          "type": "uint256"
        }
      ],
      "stateMutability": "view",
      "type": "function"
    },
    {
      "inputs": [
        {
          "internalType": "address",
          "name": "streamOwner",
          "type": "address"
        },
        {
          "internalType": "address",
          "name": "rewardToken",
          "type": "address"
        },
        {
          "internalType": "uint256",
          "name": "auroraDepositAmount",
          "type": "uint256"
        },
        {
          "internalType": "uint256",
          "name": "maxDepositAmount",
          "type": "uint256"
        },
        {
          "internalType": "uint256",
          "name": "minDepositAmount",
          "type": "uint256"
        },
        {
          "internalType": "uint256[]",
          "name": "scheduleTimes",
          "type": "uint256[]"
        },
        {
          "internalType": "uint256[]",
          "name": "scheduleRewards",
          "type": "uint256[]"
        },
        {
          "internalType": "uint256",
          "name": "tau",
          "type": "uint256"
        }
      ],
      "name": "proposeStream",
      "outputs": [],
      "stateMutability": "nonpayable",
      "type": "function"
    },
    {
      "inputs": [],
      "name": "proxiableUUID",
      "outputs": [
        {
          "internalType": "bytes32",
          "name": "",
          "type": "bytes32"
        }
      ],
      "stateMutability": "view",
      "type": "function"
    },
    {
      "inputs": [
        {
          "internalType": "uint256",
          "name": "streamId",
          "type": "uint256"
        }
      ],
      "name": "releaseAuroraRewardsToStreamOwner",
      "outputs": [],
      "stateMutability": "nonpayable",
      "type": "function"
    },
    {
      "inputs": [
        {
          "internalType": "uint256",
          "name": "streamId",
          "type": "uint256"
        },
        {
          "internalType": "address",
          "name": "streamFundReceiver",
          "type": "address"
        }
      ],
      "name": "removeStream",
      "outputs": [],
      "stateMutability": "nonpayable",
      "type": "function"
    },
    {
      "inputs": [
        {
          "internalType": "bytes32",
          "name": "role",
          "type": "bytes32"
        },
        {
          "internalType": "address",
          "name": "account",
          "type": "address"
        }
      ],
      "name": "renounceRole",
      "outputs": [],
      "stateMutability": "nonpayable",
      "type": "function"
    },
    {
      "inputs": [
        {
          "internalType": "bytes32",
          "name": "role",
          "type": "bytes32"
        },
        {
          "internalType": "address",
          "name": "account",
          "type": "address"
        }
      ],
      "name": "revokeRole",
      "outputs": [],
      "stateMutability": "nonpayable",
      "type": "function"
    },
    {
      "inputs": [
        {
          "internalType": "uint256",
          "name": "streamId",
          "type": "uint256"
        },
        {
          "internalType": "uint256",
          "name": "start",
          "type": "uint256"
        },
        {
          "internalType": "uint256",
          "name": "end",
          "type": "uint256"
        }
      ],
      "name": "rewardsSchedule",
      "outputs": [
        {
          "internalType": "uint256",
          "name": "",
          "type": "uint256"
        }
      ],
      "stateMutability": "view",
      "type": "function"
    },
    {
      "inputs": [
        {
          "internalType": "uint256",
          "name": "amount",
          "type": "uint256"
        }
      ],
      "name": "stake",
      "outputs": [],
      "stateMutability": "nonpayable",
      "type": "function"
    },
    {
      "inputs": [
        {
          "internalType": "address",
          "name": "account",
          "type": "address"
        },
        {
          "internalType": "uint256",
          "name": "amount",
          "type": "uint256"
        }
      ],
      "name": "stakeOnBehalfOfAnotherUser",
      "outputs": [],
      "stateMutability": "nonpayable",
      "type": "function"
    },
    {
      "inputs": [
        {
          "internalType": "address[]",
          "name": "accounts",
          "type": "address[]"
        },
        {
          "internalType": "uint256[]",
          "name": "amounts",
          "type": "uint256[]"
        },
        {
          "internalType": "uint256",
          "name": "batchAmount",
          "type": "uint256"
        }
      ],
      "name": "stakeOnBehalfOfOtherUsers",
      "outputs": [],
      "stateMutability": "nonpayable",
      "type": "function"
    },
    {
      "inputs": [
        {
          "internalType": "uint256",
          "name": "streamId",
          "type": "uint256"
        },
        {
          "internalType": "uint256",
          "name": "start",
          "type": "uint256"
        },
        {
          "internalType": "uint256",
          "name": "end",
          "type": "uint256"
        }
      ],
      "name": "startEndScheduleIndex",
      "outputs": [
        {
          "internalType": "uint256",
          "name": "startIndex",
          "type": "uint256"
        },
        {
          "internalType": "uint256",
          "name": "endIndex",
          "type": "uint256"
        }
      ],
      "stateMutability": "view",
      "type": "function"
    },
    {
      "inputs": [
        {
          "internalType": "bytes4",
          "name": "interfaceId",
          "type": "bytes4"
        }
      ],
      "name": "supportsInterface",
      "outputs": [
        {
          "internalType": "bool",
          "name": "",
          "type": "bool"
        }
      ],
      "stateMutability": "view",
      "type": "function"
    },
    {
      "inputs": [],
      "name": "totalAmountOfStakedAurora",
      "outputs": [
        {
          "internalType": "uint256",
          "name": "",
          "type": "uint256"
        }
      ],
      "stateMutability": "view",
      "type": "function"
    },
    {
      "inputs": [],
      "name": "totalAuroraShares",
      "outputs": [
        {
          "internalType": "uint256",
          "name": "",
          "type": "uint256"
        }
      ],
      "stateMutability": "view",
      "type": "function"
    },
    {
      "inputs": [],
      "name": "totalStreamShares",
      "outputs": [
        {
          "internalType": "uint256",
          "name": "",
          "type": "uint256"
        }
      ],
      "stateMutability": "view",
      "type": "function"
    },
    {
      "inputs": [],
      "name": "touchedAt",
      "outputs": [
        {
          "internalType": "uint256",
          "name": "",
          "type": "uint256"
        }
      ],
      "stateMutability": "view",
      "type": "function"
    },
    {
      "inputs": [],
      "name": "treasury",
      "outputs": [
        {
          "internalType": "address",
          "name": "",
          "type": "address"
        }
      ],
      "stateMutability": "view",
      "type": "function"
    },
    {
      "inputs": [
        {
          "internalType": "uint256",
          "name": "amount",
          "type": "uint256"
        }
      ],
      "name": "unstake",
      "outputs": [],
      "stateMutability": "nonpayable",
      "type": "function"
    },
    {
      "inputs": [],
      "name": "unstakeAll",
      "outputs": [],
      "stateMutability": "nonpayable",
      "type": "function"
    },
    {
      "inputs": [
        {
          "internalType": "address",
          "name": "_treasury",
          "type": "address"
        }
      ],
      "name": "updateTreasury",
      "outputs": [],
      "stateMutability": "nonpayable",
      "type": "function"
    },
    {
      "inputs": [
        {
          "internalType": "address",
          "name": "newImplementation",
          "type": "address"
        }
      ],
      "name": "upgradeTo",
      "outputs": [],
      "stateMutability": "nonpayable",
      "type": "function"
    },
    {
      "inputs": [
        {
          "internalType": "address",
          "name": "newImplementation",
          "type": "address"
        },
        {
          "internalType": "bytes",
          "name": "data",
          "type": "bytes"
        }
      ],
      "name": "upgradeToAndCall",
      "outputs": [],
      "stateMutability": "payable",
      "type": "function"
    },
    {
      "inputs": [
        {
          "internalType": "address",
          "name": "",
          "type": "address"
        }
      ],
      "name": "users",
      "outputs": [
        {
          "internalType": "uint256",
          "name": "deposit",
          "type": "uint256"
        },
        {
          "internalType": "uint256",
          "name": "auroraShares",
          "type": "uint256"
        },
        {
          "internalType": "uint256",
          "name": "streamShares",
          "type": "uint256"
        }
      ],
      "stateMutability": "view",
      "type": "function"
    },
    {
      "inputs": [
        {
          "internalType": "uint256",
          "name": "streamId",
          "type": "uint256"
        }
      ],
      "name": "withdraw",
      "outputs": [],
      "stateMutability": "nonpayable",
      "type": "function"
    },
    {
      "inputs": [],
      "name": "withdrawAll",
      "outputs": [],
      "stateMutability": "nonpayable",
      "type": "function"
    }
  ],
  "bytecode": {
    "object": "0x60a0604052306080523480156200001557600080fd5b50600054610100900460ff1615808015620000375750600054600160ff909116105b8062000067575062000054306200014160201b62003e261760201c565b15801562000067575060005460ff166001145b620000cf5760405162461bcd60e51b815260206004820152602e60248201527f496e697469616c697a61626c653a20636f6e747261637420697320616c72656160448201526d191e481a5b9a5d1a585b1a5e995960921b606482015260840160405180910390fd5b6000805460ff191660011790558015620000f3576000805461ff0019166101001790555b80156200013a576000805461ff0019169055604051600181527f7f26b83ff96e1f2b6a682f133852f6798a09c465da95921460cefb38474024989060200160405180910390a15b5062000150565b6001600160a01b03163b151590565b60805161635e6200018860003960008181611c8901528181611cc901528181612571015281816125b10152612640015261635e6000f3fe6080604052600436106104105760003560e01c80635c975abb1161021e5780639c52a92011610123578063bb07ec1b116100ab578063d5050aed1161007a578063d5050aed14610d34578063d547741f14610d54578063e335e79a14610d74578063ee13ad8e14610d8a578063fe904b7a14610daa57600080fd5b8063bb07ec1b14610ca4578063be831a2e14610cba578063c892772314610cda578063cd5ba59014610d1f57600080fd5b8063a81c6a15116100f2578063a81c6a1514610bbb578063a87430ba14610bdb578063a8b0bb8314610c33578063b8e9744c14610c4a578063ba0cb22b14610c6a57600080fd5b80639c52a92014610b2f578063a217fddf14610b4f578063a4c828dc14610b64578063a694fc3a14610b9b57600080fd5b80637f51bb1f116101a65780638bc34e77116101755780638bc34e7714610a9a5780638d40bd0314610aaf5780639040332214610acf57806391d1485414610aef578063993b21c114610b0f57600080fd5b80637f51bb1f14610a0c578063853828b614610a2c57806386c1b4eb14610a41578063894e9a0d14610a6357600080fd5b80636c4624c3116101ed5780636c4624c3146109435780636db8e53d1461096357806370bc770c1461097957806372e55399146109a75780637f37df3b146109c757600080fd5b80635c975abb146108cc57806361d027b3146108e25780636458edd314610903578063687dd46c1461092357600080fd5b80632e1a7d4d116103245780633ba31abf116102ac5780634f1ef2861161027b5780634f1ef2861461082b57806352d1902d1461083e57806353a4cca0146108535780635578fdb21461087357806357baeac8146108ac57600080fd5b80633ba31abf146107945780633e9a44cb146107b45780633ea005c8146107d45780634981912e146107f657600080fd5b80633659cfe6116102f35780633659cfe6146106ea57806336630cc71461070a5780633895a2751461072a578063389ed26714610740578063396a6c141461077457600080fd5b80632e1a7d4d146106755780632f2ff15d1461069557806335322f37146106b557806336568abe146106ca57600080fd5b80631e0fbfa2116103a75780632692c59f116103765780632692c59f146105d557806326cdddb9146105f557806327571969146106155780632ca783f3146106355780632e17de781461065557600080fd5b80631e0fbfa2146105565780631fd8c5f41461057857806320988cef1461058e578063248a9ca3146105a557600080fd5b80631194ebeb116103e35780631194ebeb146104af57806312dd67fe146104d15780631c61e617146104f15780631dd004521461051157600080fd5b806301ffc9a714610415578063036877881461044a5780630c2ee55e146104785780630efd83101461048f575b600080fd5b34801561042157600080fd5b50610435610430366004615907565b610dc2565b60405190151581526020015b60405180910390f35b34801561045657600080fd5b5061046a610465366004615931565b610df9565b604051908152602001610441565b34801561048457600080fd5b5061046a6101035481565b34801561049b57600080fd5b5061046a6104aa366004615979565b611167565b3480156104bb57600080fd5b506104cf6104ca366004615a61565b6111b6565b005b3480156104dd57600080fd5b5061046a6104ec366004615b0d565b611513565b3480156104fd57600080fd5b5061046a61050c366004615979565b611607565b34801561051d57600080fd5b5061046a61052c366004615979565b6001600160a01b031660009081526101046020908152604080832093835260059093019052205490565b34801561056257600080fd5b5061046a60008051602061630983398151915281565b34801561058457600080fd5b5061046a60fd5481565b34801561059a57600080fd5b5061046a6228207281565b3480156105b157600080fd5b5061046a6105c0366004615b0d565b600090815260c9602052604090206001015490565b3480156105e157600080fd5b506104cf6105f0366004615b0d565b61167f565b34801561060157600080fd5b506104cf610610366004615b72565b611713565b34801561062157600080fd5b506104cf610630366004615bde565b6117c3565b34801561064157600080fd5b506104cf610650366004615c20565b61186f565b34801561066157600080fd5b506104cf610670366004615b0d565b6118f7565b34801561068157600080fd5b506104cf610690366004615b0d565b611a1a565b3480156106a157600080fd5b506104cf6106b0366004615979565b611ac2565b3480156106c157600080fd5b506104cf611ae7565b3480156106d657600080fd5b506104cf6106e5366004615979565b611c05565b3480156106f657600080fd5b506104cf610705366004615c4a565b611c7f565b34801561071657600080fd5b5061046a610725366004615c65565b611d5e565b34801561073657600080fd5b5061046a60fc5481565b34801561074c57600080fd5b5061046a7f139c2898040ef16910dc9f44dc697df79363da767d8bc92f2e310312b816e46d81565b34801561078057600080fd5b5061046a61078f366004615b0d565b611ed0565b3480156107a057600080fd5b506104cf6107af366004615979565b611f5b565b3480156107c057600080fd5b506104cf6107cf366004615c20565b612210565b3480156107e057600080fd5b5061046a60008051602061628283398151915281565b34801561080257600080fd5b50610816610811366004615931565b612271565b60408051928352602083019190915201610441565b6104cf610839366004615c87565b612567565b34801561084a57600080fd5b5061046a612633565b34801561085f57600080fd5b506104cf61086e366004615d2d565b6126e6565b34801561087f57600080fd5b5061010154610894906001600160a01b031681565b6040516001600160a01b039091168152602001610441565b3480156108b857600080fd5b5061046a6108c7366004615c4a565b612883565b3480156108d857600080fd5b5061046a60fb5481565b3480156108ee57600080fd5b5061010054610894906001600160a01b031681565b34801561090f57600080fd5b506104cf61091e366004615da1565b6128f4565b34801561092f57600080fd5b506104cf61093e366004615bde565b61295d565b34801561094f57600080fd5b506104cf61095e366004615931565b6129a7565b34801561096f57600080fd5b5061046a60ff5481565b34801561098557600080fd5b50610999610994366004615b0d565b6129be565b604051610441929190615e2f565b3480156109b357600080fd5b506104cf6109c2366004615bde565b612abe565b3480156109d357600080fd5b5061046a6109e2366004615979565b6001600160a01b031660009081526101046020908152604080832093835260039093019052205490565b348015610a1857600080fd5b506104cf610a27366004615c4a565b612bb1565b348015610a3857600080fd5b506104cf612cb8565b348015610a4d57600080fd5b5061046a6000805160206162e983398151915281565b348015610a6f57600080fd5b50610a83610a7e366004615b0d565b612d5c565b6040516104419b9a99989796959493929190615e6a565b348015610aa657600080fd5b506104cf612e22565b348015610abb57600080fd5b506104cf610aca366004615c65565b612e6a565b348015610adb57600080fd5b506104cf610aea366004615b0d565b613219565b348015610afb57600080fd5b50610435610b0a366004615979565b613331565b348015610b1b57600080fd5b5061046a610b2a366004615b0d565b61335c565b348015610b3b57600080fd5b506104cf610b4a366004615b0d565b61338b565b348015610b5b57600080fd5b5061046a600081565b348015610b7057600080fd5b5061046a610b7f366004615c4a565b6001600160a01b03166000908152610104602052604090205490565b348015610ba757600080fd5b506104cf610bb6366004615b0d565b613603565b348015610bc757600080fd5b506104cf610bd6366004615ef2565b61366d565b348015610be757600080fd5b50610c18610bf6366004615c4a565b6101046020526000908152604090208054600182015460029092015490919083565b60408051938452602084019290925290820152606001610441565b348015610c3f57600080fd5b5061046a6101025481565b610c5d610c58366004615c87565b613c52565b6040516104419190615fff565b348015610c7657600080fd5b5061046a610c85366004615c4a565b6001600160a01b03166000908152610104602052604090206001015490565b348015610cb057600080fd5b5061046a60fe5481565b348015610cc657600080fd5b506104cf610cd5366004615c65565b613d17565b348015610ce657600080fd5b5061046a610cf5366004615979565b6001600160a01b031660009081526101046020908152604080832093835260049093019052205490565b348015610d2b57600080fd5b5061046a613d27565b348015610d4057600080fd5b506104cf610d4f366004615c4a565b613d58565b348015610d6057600080fd5b506104cf610d6f366004615979565b613db8565b348015610d8057600080fd5b506101055461046a565b348015610d9657600080fd5b506104cf610da5366004615b0d565b613ddd565b348015610db657600080fd5b5061046a630786156081565b60006001600160e01b03198216637965db0b60e01b1480610df357506301ffc9a760e01b6001600160e01b03198316145b92915050565b6000806101058581548110610e1057610e10616012565b90600052602060002090600f0201600c019050600080610e31878787612271565b9092509050600080828403610f0f5784600101846001610e51919061603e565b81548110610e6157610e61616012565b9060005260206000200154856001018581548110610e8157610e81616012565b9060005260206000200154610e969190616051565b9050846000018481548110610ead57610ead616012565b60009182526020909120015485610ec586600161603e565b81548110610ed557610ed5616012565b9060005260206000200154610eea9190616051565b610ef48989616051565b610efe9083616064565b610f08919061607b565b9150611159565b84600101846001610f20919061603e565b81548110610f3057610f30616012565b9060005260206000200154856001018581548110610f5057610f50616012565b9060005260206000200154610f659190616051565b9050846000018481548110610f7c57610f7c616012565b60009182526020909120015485610f9486600161603e565b81548110610fa457610fa4616012565b9060005260206000200154610fb99190616051565b8886610fc687600161603e565b81548110610fd657610fd6616012565b9060005260206000200154610feb9190616051565b610ff59083616064565b610fff919061607b565b915084600101838154811061101657611016616012565b906000526020600020015485600101856001611032919061603e565b8154811061104257611042616012565b90600052602060002001546110579190616051565b611061908361603e565b915084600101836001611074919061603e565b8154811061108457611084616012565b90600052602060002001548560010184815481106110a4576110a4616012565b90600052602060002001546110b99190616051565b90508460000183815481106110d0576110d0616012565b600091825260209091200154856110e885600161603e565b815481106110f8576110f8616012565b906000526020600020015461110d9190616051565b85600001848154811061112257611122616012565b9060005260206000200154886111389190616051565b6111429083616064565b61114c919061607b565b611156908361603e565b91505b5093505050505b9392505050565b60008260000361119457506001600160a01b03811660009081526101046020526040902060010154610df3565b506001600160a01b031660009081526101046020526040902060020154919050565b6000805160206162828339815191526111ce81613e35565b6111dd89898888888888613e3f565b61010054604051630480051d60e31b81526001600160a01b038a811660048301529091169063240028e890602401602060405180830381865afa158015611228573d6000803e3d6000fd5b505050506040513d601f19601f8201168201806040525081019061124c919061609d565b61129d5760405162461bcd60e51b815260206004820152601f60248201527f494e56414c49445f535550504f525445445f544f4b454e5f414444524553530060448201526064015b60405180910390fd5b600060405180604001604052808681526020018581525090506000610105805490509050610105604051806101c001604052808d6001600160a01b03168152602001336001600160a01b031681526020018c6001600160a01b031681526020018b81526020016000815260200160008152602001600081526020018a81526020018981526020018860008151811061133757611337616012565b60200260200101518152602001868152602001600081526020018481526020016001600281111561136a5761136a615e54565b905281546001808201845560009384526020938490208351600f9093020180546001600160a01b03199081166001600160a01b0394851617825584860151928201805482169385169390931790925560408401516002820180549093169316929092179055606082015160038201556080820151600482015560a0820151600582015560c0820151600682015560e0820151600782015561010082015160088201556101208201516009820155610140820151600a820155610160820151600b82015561018082015180518051939492939192600c85019261144f92849201906158a7565b50602082810151805161146892600185019201906158a7565b5050506101a0820151600e8201805460ff1916600183600281111561148f5761148f615e54565b02179055505050896001600160a01b03168b6001600160a01b0316827fe843b72f047599c26dfdab8a31d1b5f353799cab6a8482518a21f1b17871dd758b8d6040516114e5929190918252602082015260400190565b60405180910390a461010154611506906001600160a01b031633308c614314565b5050505050505050505050565b60008160000361155f5760405162461bcd60e51b815260206004820152601760248201527610555493d49057d49155d0549114d7d0d3d35413d55391604a1b6044820152606401611294565b60ff546000036115a65760405162461bcd60e51b81526020600482015260126024820152715a45524f5f53545245414d5f53484152455360701b6044820152606401611294565b60ff546c7e37be2022c0914b26800000006115c38460fd54611d5e565b6115cd9190616064565b6115d7919061607b565b61010583815481106115eb576115eb616012565b90600052602060002090600f0201600b0154610df3919061603e565b60008061161384611513565b6001600160a01b0384166000908152610104602090815260408083208884526005810190925290912054600282015492935090916c7e37be2022c0914b2680000000816116608487616051565b61166a9190616064565b611674919061607b565b979650505050505050565b7f139c2898040ef16910dc9f44dc697df79363da767d8bc92f2e310312b816e46d6116a981613e35565b60fb5482811614806116c157506116c1600033613331565b61170d5760405162461bcd60e51b815260206004820152601e60248201527f4f4e4c595f44454641554c545f41444d494e5f43414e5f554e504155534500006044820152606401611294565b5060fb55565b60018060fb54166000148061172e575061172e600033613331565b61174a5760405162461bcd60e51b8152600401611294906160bf565b6000805160206162e983398151915261176281613e35565b61176a61436c565b8460005b818110156117b9576117a788888381811061178b5761178b616012565b90506020020160208101906117a09190615c4a565b8787614442565b806117b1816160eb565b91505061176e565b5050505050505050565b60018060fb5416600014806117de57506117de600033613331565b6117fa5760405162461bcd60e51b8152600401611294906160bf565b6000805160206162e983398151915261181281613e35565b61181a61436c565b8260005b818110156118675761185586868381811061183b5761183b616012565b90506020020160208101906118509190615c4a565b6144dc565b8061185f816160eb565b91505061181e565b505050505050565b60018060fb54166000148061188a575061188a600033613331565b6118a65760405162461bcd60e51b8152600401611294906160bf565b6000805160206163098339815191526118be81613e35565b6118c661436c565b6118d0848461454a565b61010054610101546118f1916001600160a01b039182169133911686614314565b50505050565b60018060fb5416600014806119125750611912600033613331565b61192e5760405162461bcd60e51b8152600401611294906160bf565b60fe5460000361197b5760405162461bcd60e51b81526020600482015260186024820152775a45524f5f544f54414c5f4155524f52415f53484152455360401b6044820152606401611294565b336000908152610104602052604081206001015490036119d05760405162461bcd60e51b815260206004820152601060248201526f5a45524f5f555345525f53484152455360801b6044820152606401611294565b6119d861436c565b60fe54336000908152610104602052604081206001015460fc549192916119ff9190616064565b611a09919061607b565b9050611a15838261470b565b505050565b60018060fb541660001480611a355750611a35600033613331565b611a515760405162461bcd60e51b8152600401611294906160bf565b336000908152610104602090815260408083208584526004019091529020544211611ab55760405162461bcd60e51b8152602060048201526014602482015273494e56414c49445f52454c454153455f54494d4560601b6044820152606401611294565b611abe8261490b565b5050565b600082815260c96020526040902060010154611add81613e35565b611a158383614a00565b60018060fb541660001480611b025750611b02600033613331565b611b1e5760405162461bcd60e51b8152600401611294906160bf565b60fe54600003611b6b5760405162461bcd60e51b81526020600482015260186024820152775a45524f5f544f54414c5f4155524f52415f53484152455360401b6044820152606401611294565b33600090815261010460205260408120600101549003611bc05760405162461bcd60e51b815260206004820152601060248201526f5a45524f5f555345525f53484152455360801b6044820152606401611294565b611bc861436c565b60fe54336000908152610104602052604081206001015460fc54919291611bef9190616064565b611bf9919061607b565b9050611abe818261470b565b6001600160a01b0381163314611c755760405162461bcd60e51b815260206004820152602f60248201527f416363657373436f6e74726f6c3a2063616e206f6e6c792072656e6f756e636560448201526e103937b632b9903337b91039b2b63360891b6064820152608401611294565b611abe8282614a86565b6001600160a01b037f0000000000000000000000000000000000000000000000000000000000000000163003611cc75760405162461bcd60e51b815260040161129490616104565b7f00000000000000000000000000000000000000000000000000000000000000006001600160a01b0316611d106000805160206162a2833981519152546001600160a01b031690565b6001600160a01b031614611d365760405162461bcd60e51b815260040161129490616150565b611d3f81614aed565b60408051600080825260208201909252611d5b91839190614af8565b50565b600042821115611da65760405162461bcd60e51b8152602060048201526013602482015272494e56414c49445f4c4153545f55504441544560681b6044820152606401611294565b428203611db557506000610df3565b60006101058481548110611dcb57611dcb616012565b90600052602060002090600f0201600c01600001600081548110611df157611df1616012565b90600052602060002001549050804211611e0f576000915050610df3565b60006101058581548110611e2557611e25616012565b90600052602060002090600f0201600c0160000160016101058781548110611e4f57611e4f616012565b60009182526020909120600c600f909202010154611e6d9190616051565b81548110611e7d57611e7d616012565b90600052602060002001549050808410611e9c57600092505050610df3565b60008083861115611eaf57859150611eb3565b8391505b82421015611ec2575042611ec5565b50815b611674878383610df9565b6000806101058381548110611ee757611ee7616012565b60009182526020909120600f9091020190506002600e82015460ff166002811115611f1457611f14615e54565b14611f225750600092915050565b6000611f32848360090154611d5e565b90508160050154826003015482611f499190616064565b611f53919061607b565b949350505050565b600080516020616282833981519152611f7381613e35565b82600003611fc35760405162461bcd60e51b815260206004820152601b60248201527f4155524f52415f53545245414d5f4e4f545f52454d4f5641424c4500000000006044820152606401611294565b60006101058481548110611fd957611fd9616012565b60009182526020909120600f9091020190506002600e82015460ff16600281111561200657612006615e54565b1461204c5760405162461bcd60e51b815260206004820152601660248201527514d51491505357d053149150511657d4915353d5915160521b6044820152606401611294565b600e8101805460ff19169055600281015481546040516001600160a01b03928316929091169086907f661da9ced4b5d786f5b5f451a5f68af24721a01b0a65bb47fa4fdf70b80b887c90600090a46000816004015482600301546120b09190616051565b90506000826006015483600501546120c89190616051565b610101549091506000906120e4906001600160a01b0316612883565b6002850154909150600090612101906001600160a01b0316612883565b610100546001870154610101549293506001600160a01b039182169263da0c1a88929182169116858811156121365785612138565b875b6040518463ffffffff1660e01b81526004016121569392919061619c565b600060405180830381600087803b15801561217057600080fd5b505af1158015612184573d6000803e3d6000fd5b50506101005460028801546001600160a01b03918216935063da0c1a8892508a9116848711156121b457846121b6565b865b6040518463ffffffff1660e01b81526004016121d49392919061619c565b600060405180830381600087803b1580156121ee57600080fd5b505af1158015612202573d6000803e3d6000fd5b505050505050505050505050565b60018060fb54166000148061222b575061222b600033613331565b6122475760405162461bcd60e51b8152600401611294906160bf565b6000805160206162e983398151915261225f81613e35565b61226761436c565b6118f18484614c63565b6000806000610105868154811061228a5761228a616012565b60009182526020909120600c600f90920201018054909150806122dd5760405162461bcd60e51b815260206004820152600b60248201526a4e4f5f5343484544554c4560a81b6044820152606401611294565b85851161232c5760405162461bcd60e51b815260206004820152601b60248201527f494e56414c49445f5245574152445f51554552595f504552494f4400000000006044820152606401611294565b8160000160008154811061234257612342616012565b906000526020600020015486101561239c5760405162461bcd60e51b815260206004820152601b60248201527f51554552595f4245464f52455f5343484544554c455f535441525400000000006044820152606401611294565b816123a8600183616051565b815481106123b8576123b8616012565b90600052602060002001548511156124125760405162461bcd60e51b815260206004820152601860248201527f51554552595f41465445525f5343484544554c455f454e4400000000000000006044820152606401611294565b60015b818110156124685782600001818154811061243257612432616012565b90600052602060002001548710156124565761244f600182616051565b9450612468565b80612460816160eb565b915050612415565b5081612475600183616051565b8154811061248557612485616012565b906000526020600020015485036124a8576124a1600282616051565b925061250d565b60006124b585600161603e565b90505b8181101561250b578260000181815481106124d5576124d5616012565b90600052602060002001548610156124f9576124f2600182616051565b935061250b565b80612503816160eb565b9150506124b8565b505b8284111561255d5760405162461bcd60e51b815260206004820152601960248201527f494e56414c49445f494e4445585f43414c43554c4154494f4e000000000000006044820152606401611294565b5050935093915050565b6001600160a01b037f00000000000000000000000000000000000000000000000000000000000000001630036125af5760405162461bcd60e51b815260040161129490616104565b7f00000000000000000000000000000000000000000000000000000000000000006001600160a01b03166125f86000805160206162a2833981519152546001600160a01b031690565b6001600160a01b03161461261e5760405162461bcd60e51b815260040161129490616150565b61262782614aed565b611abe82826001614af8565b6000306001600160a01b037f000000000000000000000000000000000000000000000000000000000000000016146126d35760405162461bcd60e51b815260206004820152603860248201527f555550535570677261646561626c653a206d757374206e6f742062652063616c60448201527f6c6564207468726f7567682064656c656761746563616c6c00000000000000006064820152608401611294565b506000805160206162a283398151915290565b60018060fb5416600014806127015750612701600033613331565b61271d5760405162461bcd60e51b8152600401611294906160bf565b60008051602061630983398151915261273581613e35565b8584811461277c5760405162461bcd60e51b81526020600482015260146024820152730929cac82989288be82a4a482b2be988a9c8ea8960631b6044820152606401611294565b61278461436c565b6000805b82811015612810578787828181106127a2576127a2616012565b90506020020135826127b4919061603e565b91506127fe8a8a838181106127cb576127cb616012565b90506020020160208101906127e09190615c4a565b8989848181106127f2576127f2616012565b9050602002013561454a565b80612808816160eb565b915050612788565b508481146128575760405162461bcd60e51b81526020600482015260146024820152731253959053125117d0905510d217d05353d5539560621b6044820152606401611294565b6101005461010154612878916001600160a01b039182169133911688614314565b505050505050505050565b610100546040516370a0823160e01b81526001600160a01b0391821660048201526000918316906370a0823190602401602060405180830381865afa1580156128d0573d6000803e3d6000fd5b505050506040513d601f19601f82011682018060405250810190610df391906161c0565b60018060fb54166000148061290f575061290f600033613331565b61292b5760405162461bcd60e51b8152600401611294906160bf565b6000805160206162e983398151915261294381613e35565b61294b61436c565b612956858585614442565b5050505050565b60018060fb5416600014806129785750612978600033613331565b6129945760405162461bcd60e51b8152600401611294906160bf565b61299c61436c565b611a15338484614442565b60006129b281613e35565b50825491821816189055565b60608061010583815481106129d5576129d5616012565b90600052602060002090600f0201600c0160000161010584815481106129fd576129fd616012565b90600052602060002090600f0201600c0160010181805480602002602001604051908101604052809291908181526020018280548015612a5c57602002820191906000526020600020905b815481526020019060010190808311612a48575b5050505050915080805480602002602001604051908101604052809291908181526020018280548015612aae57602002820191906000526020600020905b815481526020019060010190808311612a9a575b5050505050905091509150915091565b60018060fb541660001480612ad95750612ad9600033613331565b612af55760405162461bcd60e51b8152600401611294906160bf565b33600090815261010460205260408120905b8381101561295657816003016000868684818110612b2757612b27616012565b90506020020135815260200190815260200160002054600014158015612b795750816004016000868684818110612b6057612b60616012565b9050602002013581526020019081526020016000205442115b15612b9f57612b9f858583818110612b9357612b93616012565b9050602002013561490b565b80612ba9816160eb565b915050612b07565b6000612bbc81613e35565b60fb54600003612bfe5760405162461bcd60e51b815260206004820152600d60248201526c524551554952455f504155534560981b6044820152606401611294565b6001600160a01b038216612c465760405162461bcd60e51b815260206004820152600f60248201526e494e56414c49445f4144445245535360881b6044820152606401611294565b610100546001600160a01b0390811690831603612c945760405162461bcd60e51b815260206004820152600c60248201526b53414d455f4144445245535360a01b6044820152606401611294565b5061010080546001600160a01b0319166001600160a01b0392909216919091179055565b60018060fb541660001480612cd35750612cd3600033613331565b612cef5760405162461bcd60e51b8152600401611294906160bf565b336000908152610104602052604081206101055490915b818110156118f157600081815260038401602052604090205415801590612d3c5750600081815260048401602052604090205442115b15612d4a57612d4a8161490b565b80612d54816160eb565b915050612d06565b6000806000806000806000806000806000806101058d81548110612d8257612d82616012565b90600052602060002090600f020190508060000160009054906101000a90046001600160a01b03168160020160009054906101000a90046001600160a01b031682600301548360040154846005015485600601548660070154876009015488600b015489600a01548a600e0160009054906101000a900460ff169b509b509b509b509b509b509b509b509b509b509b505091939597999b90929496989a50565b60018060fb541660001480612e3d5750612e3d600033613331565b612e595760405162461bcd60e51b8152600401611294906160bf565b612e6161436c565b611d5b336144dc565b60018060fb541660001480612e855750612e85600033613331565b612ea15760405162461bcd60e51b8152600401611294906160bf565b60006101058481548110612eb757612eb7616012565b60009182526020909120600f9091020190506001600e82015460ff166002811115612ee457612ee4615e54565b14612f275760405162461bcd60e51b815260206004820152601360248201527214d51491505357d393d517d41493d413d4d151606a1b6044820152606401611294565b80546001600160a01b03163314612f775760405162461bcd60e51b815260206004820152601460248201527324a72b20a624a22fa9aa2922a0a6afa7aba722a960611b6044820152606401611294565b4281600c01600001600081548110612f9157612f91616012565b90600052602060002001541015612fea5760405162461bcd60e51b815260206004820152601760248201527f53545245414d5f50524f504f53414c5f455850495245440000000000000000006044820152606401611294565b80600701548311156130305760405162461bcd60e51b815260206004820152600f60248201526e0a48aae82a488bea89e9ebe90928e9608b1b6044820152606401611294565b80600801548310156130755760405162461bcd60e51b815260206004820152600e60248201526d5245574152445f544f4f5f4c4f5760901b6044820152606401611294565b600e8101805460ff1916600217905560058101839055600781015483101561310257600081600701548260030154856130ae9190616064565b6130b8919061607b565b905060008183600301546130cc9190616051565b6003840183905590506130df8686614f60565b6001830154610101546130ff916001600160a01b0391821691168361506a565b50505b6002810154815460038301546040516001600160a01b0393841693929092169187917f3062262d3b7b7b5292387920111bfa3e0597dc070a8f10f1be710f15868c22e09161315891898252602082015260400190565b60405180910390a46005810154600d8201805460009061317a5761317a616012565b9060005260206000200154146131d25760405162461bcd60e51b815260206004820152601760248201527f494e56414c49445f5354415254494e475f5245574152440000000000000000006044820152606401611294565b610100546003820154610101546131f7926001600160a01b039182169291169061506a565b6101005460028201546118f1916001600160a01b039182169133911686614314565b60008051602061628283398151915261323181613e35565b6000610105838154811061324757613247616012565b60009182526020909120600f9091020190506001600e82015460ff16600281111561327457613274615e54565b146132b75760405162461bcd60e51b815260206004820152601360248201527214d51491505357d393d517d41493d413d4d151606a1b6044820152606401611294565b600e8101805460ff191690556003810180546000918290556002830154835460405192936001600160a01b0392831693929091169187917ffadbcbd495527ce5e10fd0cceba57d404a4625dd6ce0499c254ac523789ef3ad91a46001820154610101546118f1916001600160a01b0391821691168361506a565b600091825260c9602090815260408084206001600160a01b0393909316845291905290205460ff1690565b6000610105828154811061337257613372616012565b90600052602060002090600f0201600b01549050919050565b60018060fb5416600014806133a657506133a6600033613331565b6133c25760405162461bcd60e51b8152600401611294906160bf565b816000036134055760405162461bcd60e51b815260206004820152601060248201526f4155524f52415f53545245414d5f4e4160801b6044820152606401611294565b6000610105838154811061341b5761341b616012565b60009182526020909120600f9091020180549091506001600160a01b0316331461347e5760405162461bcd60e51b815260206004820152601460248201527324a72b20a624a22fa9aa2922a0a6afa7aba722a960611b6044820152606401611294565b6002600e82015460ff16600281111561349957613499615e54565b146134e65760405162461bcd60e51b815260206004820152601b60248201527f494e4143544956455f4f525f50524f504f5345445f53545245414d00000000006044820152606401611294565b60006134f184611ed0565b9050600081116135325760405162461bcd60e51b815260206004820152600c60248201526b5a45524f5f5245574152445360a01b6044820152606401611294565b4282600901819055508082600401600082825461354f919061603e565b909155505081546040518281526001600160a01b039091169085907fd8dbc00678cdeb812d1660863c3d845d199d828cd02c9278b1ac8f359a1394369060200160405180910390a361010054825461010154604051631b41835160e31b81526001600160a01b039384169363da0c1a88936135d59390821692911690869060040161619c565b600060405180830381600087803b1580156135ef57600080fd5b505af11580156117b9573d6000803e3d6000fd5b60018060fb54166000148061361e575061361e600033613331565b61363a5760405162461bcd60e51b8152600401611294906160bf565b61364261436c565b61364c338361454a565b6101005461010154611abe916001600160a01b039182169133911685614314565b600054610100900460ff161580801561368d5750600054600160ff909116105b806136a75750303b1580156136a7575060005460ff166001145b61370a5760405162461bcd60e51b815260206004820152602e60248201527f496e697469616c697a61626c653a20636f6e747261637420697320616c72656160448201526d191e481a5b9a5d1a585b1a5e995960921b6064820152608401611294565b6000805460ff19166001179055801561372d576000805461ff0019166101001790555b81831161376e5760405162461bcd60e51b815260206004820152600f60248201526e494e56414c49445f5745494748545360881b6044820152606401611294565b6001600160a01b0384166137b65760405162461bcd60e51b815260206004820152600f60248201526e494e56414c49445f4144445245535360881b6044820152606401611294565b6137f9898b896000815181106137ce576137ce616012565b60200260200101518a6000815181106137e9576137e9616012565b60200260200101518c8c8c613e3f565b604051630480051d60e31b81526001600160a01b038b8116600483015285169063240028e890602401602060405180830381865afa15801561383f573d6000803e3d6000fd5b505050506040513d601f19601f82011682018060405250810190613863919061609d565b6138af5760405162461bcd60e51b815260206004820152601f60248201527f494e56414c49445f535550504f525445445f544f4b454e5f41444452455353006044820152606401611294565b6138b88561509a565b6138d060008051602061630983398151915233614a00565b6138e86000805160206162e983398151915233614a00565b61390060008051602061628283398151915233614a00565b61010080546001600160a01b038087166001600160a01b031992831617835561010180548e83169316831790556101028690556101038590556040805180820182528c815260208082018d905282516101c081018452938f1680855290840152908201929092526000606082018190526080820181905260a0820181905260c0820181905260e0820181905292810183905242610120820152610140810189905261016081018390526101808101829052610105906101a081016002905281546001808201845560009384526020938490208351600f9093020180546001600160a01b03199081166001600160a01b0394851617825584860151928201805482169385169390931790925560408401516002820180549093169316929092179055606082015160038201556080820151600482015560a0820151600582015560c0820151600682015560e0820151600782015561010082015160088201556101208201516009820155610140820151600a820155610160820151600b82015561018082015180518051939492939192600c850192613aa192849201906158a7565b506020828101518051613aba92600185019201906158a7565b5050506101a0820151600e8201805460ff19166001836002811115613ae157613ae1615e54565b021790555050508b6001600160a01b03168b6001600160a01b0316837fe843b72f047599c26dfdab8a31d1b5f353799cab6a8482518a21f1b17871dd758c600081518110613b3157613b31616012565b60200260200101518d600081518110613b4c57613b4c616012565b6020026020010151604051613b6b929190918252602082015260400190565b60405180910390a48b6001600160a01b03168b6001600160a01b0316837f3062262d3b7b7b5292387920111bfa3e0597dc070a8f10f1be710f15868c22e08c600081518110613bbc57613bbc616012565b60200260200101518d600081518110613bd757613bd7616012565b6020026020010151604051613bf6929190918252602082015260400190565b60405180910390a450508015613c46576000805461ff0019169055604051600181527f7f26b83ff96e1f2b6a682f133852f6798a09c465da95921460cefb38474024989060200160405180910390a15b50505050505050505050565b60606000613c5f81613e35565b6001600160a01b038416613ca45760405162461bcd60e51b815260206004820152600c60248201526b5a45524f5f4144445245535360a01b6044820152606401611294565b600080856001600160a01b031685604051613cbf91906161d9565b600060405180830381855af49150503d8060008114613cfa576040519150601f19603f3d011682016040523d82523d6000602084013e613cff565b606091505b509150915081613d0e57600080fd5b95945050505050565b6000613d2281613e35565b509055565b600060fd54600003613d395750600090565b613d46600060fd54611d5e565b60fc54613d53919061603e565b905090565b60018060fb541660001480613d735750613d73600033613331565b613d8f5760405162461bcd60e51b8152600401611294906160bf565b6000805160206162e9833981519152613da781613e35565b613daf61436c565b611a15836144dc565b600082815260c96020526040902060010154613dd381613e35565b611a158383614a86565b60018060fb541660001480613df85750613df8600033613331565b613e145760405162461bcd60e51b8152600401611294906160bf565b613e1c61436c565b611abe3383614c63565b6001600160a01b03163b151590565b611d5b81336150e4565b6001600160a01b038716613e955760405162461bcd60e51b815260206004820152601c60248201527f494e56414c49445f53545245414d5f4f574e45525f41444452455353000000006044820152606401611294565b6001600160a01b038616613eeb5760405162461bcd60e51b815260206004820152601c60248201527f494e56414c49445f5245574152445f544f4b454e5f41444452455353000000006044820152606401611294565b60008511613f2e5760405162461bcd60e51b815260206004820152601060248201526f16915493d7d3505617d1115413d4d25560821b6044820152606401611294565b60008411613f715760405162461bcd60e51b815260206004820152601060248201526f16915493d7d3525397d1115413d4d25560821b6044820152606401611294565b84841115613fb75760405162461bcd60e51b81526020600482015260136024820152721253959053125117d3525397d1115413d4d255606a1b6044820152606401611294565b81600081518110613fca57613fca616012565b602002602001015185146140205760405162461bcd60e51b815260206004820152601f60248201527f4d41585f4445504f5349545f4d5553545f455155414c5f5343484544554c45006044820152606401611294565b428360008151811061403457614034616012565b6020026020010151116140895760405162461bcd60e51b815260206004820152601e60248201527f494e56414c49445f53545245414d5f45585049524154494f4e5f4441544500006044820152606401611294565b81518351146140da5760405162461bcd60e51b815260206004820152601760248201527f494e56414c49445f5343484544554c455f56414c5545530000000000000000006044820152606401611294565b6002835110156141215760405162461bcd60e51b815260206004820152601260248201527114d0d2115115531157d513d3d7d4d213d49560721b6044820152606401611294565b806000036141665760405162461bcd60e51b81526020600482015260126024820152711253959053125117d5105557d411549253d160721b6044820152606401611294565b60015b8351811015614294578361417e600183616051565b8151811061418e5761418e616012565b60200260200101518482815181106141a8576141a8616012565b6020026020010151116141f65760405162461bcd60e51b8152602060048201526016602482015275494e56414c49445f5343484544554c455f54494d455360501b6044820152606401611294565b82614202600183616051565b8151811061421257614212616012565b602002602001015183828151811061422c5761422c616012565b602002602001015111156142825760405162461bcd60e51b815260206004820152601860248201527f494e56414c49445f5343484544554c455f5245574152445300000000000000006044820152606401611294565b8061428c816160eb565b915050614169565b5081600183516142a49190616051565b815181106142b4576142b4616012565b602002602001015160001461430b5760405162461bcd60e51b815260206004820152601b60248201527f494e56414c49445f5343484544554c455f454e445f52455741524400000000006044820152606401611294565b50505050505050565b6118f1846323b872dd60e01b8585856040516024016143359392919061619c565b60408051601f198184030181529190526020810180516001600160e01b03166001600160e01b03199093169290921790915261513d565b4260fd540361437757565b60fe541561443c5761438c600060fd54611d5e565b60fc600082825461439d919061603e565b90915550506101055460015b8181101561443957600261010582815481106143c7576143c7616012565b60009182526020909120600e600f90920201015460ff1660028111156143ef576143ef615e54565b03614427576143fd81611513565b610105828154811061441157614411616012565b90600052602060002090600f0201600b01819055505b80614431816160eb565b9150506143a9565b50505b4260fd55565b60005b818110156118f157600261010584848481811061446457614464616012565b905060200201358154811061447b5761447b616012565b60009182526020909120600e600f90920201015460ff1660028111156144a3576144a3615e54565b036144ca576144ca848484848181106144be576144be616012565b90506020020135614c63565b806144d4816160eb565b915050614445565b6101055460015b81811015611a15576002610105828154811061450157614501616012565b60009182526020909120600e600f90920201015460ff16600281111561452957614529615e54565b03614538576145388382614c63565b80614542816160eb565b9150506144e3565b6001600160a01b03821660009081526101046020526040812060fe5490919081036145765750816145bd565b600060fe54846145869190616064565b905060fc5481614596919061607b565b91508060fc54836145a79190616064565b10156145bb576145b860018361603e565b91505b505b808260010160008282546145d1919061603e565b925050819055508060fe60008282546145ea919061603e565b925050819055508260fc6000828254614603919061603e565b909155505081548390839060009061461c90849061603e565b909155506000905061462e824261520f565b90508060ff6000828254614642919061603e565b925050819055508083600201600082825461465d919061603e565b90915550506101055460015b818110156146be57610105818154811061468557614685616012565b60009182526020808320600b600f90930201919091015483835260058801909152604090912055806146b6816160eb565b915050614669565b5060408051868152602081018590526001600160a01b038816917f1449c6dd7851abc30abf37f57715f492010519147cc2652fbc38202c18a6ee90910160405180910390a2505050505050565b816000036147495760405162461bcd60e51b815260206004820152600b60248201526a16915493d7d05353d5539560aa1b6044820152606401611294565b808211156147995760405162461bcd60e51b815260206004820152601860248201527f4e4f545f454e4f5547485f5354414b455f42414c414e434500000000000000006044820152606401611294565b33600090815261010460205260408120600181015460fe8054929391929091906147c4908490616051565b9091555050600281015460ff80546000906147e0908490616051565b90915550506000600182018190556002820181905560fc8054849290614807908490616051565b909155505060008082558080526003820160205260408120805485929061482f90849061603e565b9091555050610105805460009061484857614848616012565b90600052602060002090600f0201600a015442614865919061603e565b600080805260048301602090815260408083209390935560038401815282822054925192835233927f5f1c6be51c8ec7fa7e7ddd9f798ec55927b06cfc8d9159987d1ae3358cb10b59910160405180910390a360405183815233907f0f5bb82176feb1b5e747e28471aa92156a04d9f3ab9f45f28e2d704232b93f759060200160405180910390a260006148f98484616051565b905080156118f1576118f1338261454a565b336000818152610104602090815260408083208584526003810183528184208054949055905183815290939185917f3bfce8de0db7450cc169b94323c210e69a36c6a4a58c9f5d96bec4973adce392910160405180910390a36101005461010580546001600160a01b039092169163da0c1a889133918790811061499157614991616012565b600091825260209091206002600f9092020101546040516001600160e01b031960e085901b1681526149d292916001600160a01b031690869060040161619c565b600060405180830381600087803b1580156149ec57600080fd5b505af115801561430b573d6000803e3d6000fd5b614a0a8282613331565b611abe57600082815260c9602090815260408083206001600160a01b03851684529091529020805460ff19166001179055614a423390565b6001600160a01b0316816001600160a01b0316837f2f8788117e7eff1d82e926ec794901d17c78024a50270940304540a733656f0d60405160405180910390a45050565b614a908282613331565b15611abe57600082815260c9602090815260408083206001600160a01b0385168085529252808320805460ff1916905551339285917ff6391f5c32d9c69d2a47ea670b442974b53935d1edc7fd64eb21e047a839171b9190a45050565b6000611abe81613e35565b7f4910fdfa16fed3260ed0e7147f7cc6da11a60208b5b9406d12a635614ffd91435460ff1615614b2b57611a1583615309565b826001600160a01b03166352d1902d6040518163ffffffff1660e01b8152600401602060405180830381865afa925050508015614b85575060408051601f3d908101601f19168201909252614b82918101906161c0565b60015b614be85760405162461bcd60e51b815260206004820152602e60248201527f45524331393637557067726164653a206e657720696d706c656d656e7461746960448201526d6f6e206973206e6f74205555505360901b6064820152608401611294565b6000805160206162a28339815191528114614c575760405162461bcd60e51b815260206004820152602960248201527f45524331393637557067726164653a20756e737570706f727465642070726f786044820152681a58589b195555525160ba1b6064820152608401611294565b50611a158383836153a5565b80600003614cad5760405162461bcd60e51b815260206004820152601760248201527610555493d49057d49155d0549114d7d0d3d35413d55391604a1b6044820152606401611294565b60026101058281548110614cc357614cc3616012565b60009182526020909120600e600f90920201015460ff166002811115614ceb57614ceb615e54565b14614d385760405162461bcd60e51b815260206004820152601b60248201527f494e4143544956455f4f525f50524f504f5345445f53545245414d00000000006044820152606401611294565b6001600160a01b0382166000908152610104602052604081206001810154909103614da55760405162461bcd60e51b815260206004820152601f60248201527f555345525f444f45535f4e4f545f484156455f41435455414c5f5354414b45006044820152606401611294565b60006c7e37be2022c0914b26800000008260020154836005016000868152602001908152602001600020546101058681548110614de457614de4616012565b90600052602060002090600f0201600b0154614e009190616051565b614e0a9190616064565b614e14919061607b565b905080600003614e245750505050565b600083815260038301602052604081208054839290614e4490849061603e565b9091555050610105805484908110614e5e57614e5e616012565b90600052602060002090600f0201600b0154826005016000858152602001908152602001600020819055506101058381548110614e9d57614e9d616012565b90600052602060002090600f0201600a015442614eba919061603e565b6000848152600484016020526040902055610105805482919085908110614ee357614ee3616012565b90600052602060002090600f02016006016000828254614f03919061603e565b909155505060008381526003830160209081526040918290205491519182526001600160a01b0386169185917f5f1c6be51c8ec7fa7e7ddd9f798ec55927b06cfc8d9159987d1ae3358cb10b59910160405180910390a350505050565b60006101058381548110614f7657614f76616012565b600091825260208220600d600f90920201015491505b818110156118f1576101058481548110614fa857614fa8616012565b90600052602060002090600f020160070154836101058681548110614fcf57614fcf616012565b90600052602060002090600f0201600c016001018381548110614ff457614ff4616012565b90600052602060002001546150099190616064565b615013919061607b565b610105858154811061502757615027616012565b90600052602060002090600f0201600c01600101828154811061504c5761504c616012565b60009182526020909120015580615062816160eb565b915050614f8c565b6040516001600160a01b038316602482015260448101829052611a1590849063a9059cbb60e01b90606401614335565b6150a26153ca565b6150aa6153ca565b6150b5600033614a00565b6150df7f139c2898040ef16910dc9f44dc697df79363da767d8bc92f2e310312b816e46d33614a00565b60fb55565b6150ee8282613331565b611abe576150fb81615437565b615106836020615449565b6040516020016151179291906161f5565b60408051601f198184030181529082905262461bcd60e51b825261129491600401615fff565b6000615192826040518060400160405280602081526020017f5361666545524332303a206c6f772d6c6576656c2063616c6c206661696c6564815250856001600160a01b03166155e59092919063ffffffff16565b805190915015611a1557808060200190518101906151b0919061609d565b611a155760405162461bcd60e51b815260206004820152602a60248201527f5361666545524332303a204552433230206f7065726174696f6e20646964206e6044820152691bdd081cdd58d8d9595960b21b6064820152608401611294565b6000806228207261010560008154811061522b5761522b616012565b90600052602060002090600f0201600c0160000160008154811061525157615251616012565b9060005260206000200154615266919061603e565b9050600061527863078615608361603e565b9050818411615298576101025461528f9086616064565b92505050610df3565b8084106152ad576101035461528f9086616064565b6152b78282616051565b6152c18583616051565b61010354610102546152d39190616051565b6152dd9088616064565b6152e79190616064565b6152f1919061607b565b610103546152ff9087616064565b613d0e919061603e565b6001600160a01b0381163b6153765760405162461bcd60e51b815260206004820152602d60248201527f455243313936373a206e657720696d706c656d656e746174696f6e206973206e60448201526c1bdd08184818dbdb9d1c9858dd609a1b6064820152608401611294565b6000805160206162a283398151915280546001600160a01b0319166001600160a01b0392909216919091179055565b6153ae836155f4565b6000825111806153bb5750805b15611a15576118f18383615634565b600054610100900460ff166154355760405162461bcd60e51b815260206004820152602b60248201527f496e697469616c697a61626c653a20636f6e7472616374206973206e6f74206960448201526a6e697469616c697a696e6760a81b6064820152608401611294565b565b6060610df36001600160a01b03831660145b60606000615458836002616064565b61546390600261603e565b67ffffffffffffffff81111561547b5761547b6159a5565b6040519080825280601f01601f1916602001820160405280156154a5576020820181803683370190505b509050600360fc1b816000815181106154c0576154c0616012565b60200101906001600160f81b031916908160001a905350600f60fb1b816001815181106154ef576154ef616012565b60200101906001600160f81b031916908160001a9053506000615513846002616064565b61551e90600161603e565b90505b6001811115615596576f181899199a1a9b1b9c1cb0b131b232b360811b85600f166010811061555257615552616012565b1a60f81b82828151811061556857615568616012565b60200101906001600160f81b031916908160001a90535060049490941c9361558f8161626a565b9050615521565b5083156111605760405162461bcd60e51b815260206004820181905260248201527f537472696e67733a20686578206c656e67746820696e73756666696369656e746044820152606401611294565b6060611f53848460008561571f565b6155fd81615309565b6040516001600160a01b038216907fbc7cd75a20ee27fd9adebab32041f755214dbc6bffa90cc0225b39da2e5c2d3b90600090a250565b60606001600160a01b0383163b61569c5760405162461bcd60e51b815260206004820152602660248201527f416464726573733a2064656c65676174652063616c6c20746f206e6f6e2d636f6044820152651b9d1c9858dd60d21b6064820152608401611294565b600080846001600160a01b0316846040516156b791906161d9565b600060405180830381855af49150503d80600081146156f2576040519150601f19603f3d011682016040523d82523d6000602084013e6156f7565b606091505b5091509150613d0e82826040518060600160405280602781526020016162c2602791396157ef565b6060824710156157805760405162461bcd60e51b815260206004820152602660248201527f416464726573733a20696e73756666696369656e742062616c616e636520666f6044820152651c8818d85b1b60d21b6064820152608401611294565b600080866001600160a01b0316858760405161579c91906161d9565b60006040518083038185875af1925050503d80600081146157d9576040519150601f19603f3d011682016040523d82523d6000602084013e6157de565b606091505b509150915061167487838387615808565b606083156157fe575081611160565b611160838361587d565b60608315615877578251600003615870576001600160a01b0385163b6158705760405162461bcd60e51b815260206004820152601d60248201527f416464726573733a2063616c6c20746f206e6f6e2d636f6e74726163740000006044820152606401611294565b5081611f53565b611f5383835b81511561588d5781518083602001fd5b8060405162461bcd60e51b81526004016112949190615fff565b8280548282559060005260206000209081019282156158e2579160200282015b828111156158e25782518255916020019190600101906158c7565b506158ee9291506158f2565b5090565b5b808211156158ee57600081556001016158f3565b60006020828403121561591957600080fd5b81356001600160e01b03198116811461116057600080fd5b60008060006060848603121561594657600080fd5b505081359360208301359350604090920135919050565b80356001600160a01b038116811461597457600080fd5b919050565b6000806040838503121561598c57600080fd5b8235915061599c6020840161595d565b90509250929050565b634e487b7160e01b600052604160045260246000fd5b604051601f8201601f1916810167ffffffffffffffff811182821017156159e4576159e46159a5565b604052919050565b600082601f8301126159fd57600080fd5b8135602067ffffffffffffffff821115615a1957615a196159a5565b8160051b615a288282016159bb565b9283528481018201928281019087851115615a4257600080fd5b83870192505b8483101561167457823582529183019190830190615a48565b600080600080600080600080610100898b031215615a7e57600080fd5b615a878961595d565b9750615a9560208a0161595d565b965060408901359550606089013594506080890135935060a089013567ffffffffffffffff80821115615ac757600080fd5b615ad38c838d016159ec565b945060c08b0135915080821115615ae957600080fd5b50615af68b828c016159ec565b92505060e089013590509295985092959890939650565b600060208284031215615b1f57600080fd5b5035919050565b60008083601f840112615b3857600080fd5b50813567ffffffffffffffff811115615b5057600080fd5b6020830191508360208260051b8501011115615b6b57600080fd5b9250929050565b60008060008060408587031215615b8857600080fd5b843567ffffffffffffffff80821115615ba057600080fd5b615bac88838901615b26565b90965094506020870135915080821115615bc557600080fd5b50615bd287828801615b26565b95989497509550505050565b60008060208385031215615bf157600080fd5b823567ffffffffffffffff811115615c0857600080fd5b615c1485828601615b26565b90969095509350505050565b60008060408385031215615c3357600080fd5b615c3c8361595d565b946020939093013593505050565b600060208284031215615c5c57600080fd5b6111608261595d565b60008060408385031215615c7857600080fd5b50508035926020909101359150565b60008060408385031215615c9a57600080fd5b615ca38361595d565b915060208084013567ffffffffffffffff80821115615cc157600080fd5b818601915086601f830112615cd557600080fd5b813581811115615ce757615ce76159a5565b615cf9601f8201601f191685016159bb565b91508082528784828501011115615d0f57600080fd5b80848401858401376000848284010152508093505050509250929050565b600080600080600060608688031215615d4557600080fd5b853567ffffffffffffffff80821115615d5d57600080fd5b615d6989838a01615b26565b90975095506020880135915080821115615d8257600080fd5b50615d8f88828901615b26565b96999598509660400135949350505050565b600080600060408486031215615db657600080fd5b615dbf8461595d565b9250602084013567ffffffffffffffff811115615ddb57600080fd5b615de786828701615b26565b9497909650939450505050565b600081518084526020808501945080840160005b83811015615e2457815187529582019590820190600101615e08565b509495945050505050565b604081526000615e426040830185615df4565b8281036020840152613d0e8185615df4565b634e487b7160e01b600052602160045260246000fd5b6001600160a01b038c811682528b166020820152604081018a9052606081018990526080810188905260a0810187905260c0810186905260e0810185905261010081018490526101208101839052610160810160038310615edb57634e487b7160e01b600052602160045260246000fd5b826101408301529c9b505050505050505050505050565b60008060008060008060008060006101208a8c031215615f1157600080fd5b615f1a8a61595d565b9850615f2860208b0161595d565b975060408a013567ffffffffffffffff80821115615f4557600080fd5b615f518d838e016159ec565b985060608c0135915080821115615f6757600080fd5b50615f748c828d016159ec565b96505060808a0135945060a08a01359350615f9160c08b0161595d565b925060e08a013591506101008a013590509295985092959850929598565b60005b83811015615fca578181015183820152602001615fb2565b50506000910152565b60008151808452615feb816020860160208601615faf565b601f01601f19169290920160200192915050565b6020815260006111606020830184615fd3565b634e487b7160e01b600052603260045260246000fd5b634e487b7160e01b600052601160045260246000fd5b80820180821115610df357610df3616028565b81810381811115610df357610df3616028565b8082028115828204841417610df357610df3616028565b60008261609857634e487b7160e01b600052601260045260246000fd5b500490565b6000602082840312156160af57600080fd5b8151801515811461116057600080fd5b60208082526012908201527110d3d395149050d517d254d7d4105554d15160721b604082015260600190565b6000600182016160fd576160fd616028565b5060010190565b6020808252602c908201527f46756e6374696f6e206d7573742062652063616c6c6564207468726f7567682060408201526b19195b1959d85d1958d85b1b60a21b606082015260800190565b6020808252602c908201527f46756e6374696f6e206d7573742062652063616c6c6564207468726f7567682060408201526b6163746976652070726f787960a01b606082015260800190565b6001600160a01b039384168152919092166020820152604081019190915260600190565b6000602082840312156161d257600080fd5b5051919050565b600082516161eb818460208701615faf565b9190910192915050565b7f416363657373436f6e74726f6c3a206163636f756e742000000000000000000081526000835161622d816017850160208801615faf565b7001034b99036b4b9b9b4b733903937b6329607d1b601791840191820152835161625e816028840160208801615faf565b01602801949350505050565b60008161627957616279616028565b50600019019056fe930802d0eadfb856cb83e01d1c4daa3c89e9c6d9f74cfbe13124decf2b33128a360894a13ba1a3210667c828492db98dca3e2076cc3735a920a3ca505d382bbc416464726573733a206c6f772d6c6576656c2064656c65676174652063616c6c206661696c6564f7db13299c8a9e501861f04c20f69a2444829a36a363cfad4b58864709c755603a2f235c9daaf33349d300aadff2f15078a89df81bcfdd45ba11c8f816bddc6fa264697066735822122006d415447253c068b05b94f9a03897d68f4ecbc1bf313c2303c6beef0bbf4bb864736f6c63430008120033",
    "linkReferences": {}
  },
  "methodIdentifiers": {
    "AIRDROP_ROLE()": "1e0fbfa2",
    "CLAIM_ROLE()": "86c1b4eb",
    "DEFAULT_ADMIN_ROLE()": "a217fddf",
    "FOUR_YEARS()": "fe904b7a",
    "ONE_MONTH()": "20988cef",
    "PAUSE_ROLE()": "389ed267",
    "STREAM_MANAGER_ROLE()": "3ea005c8",
    "adminDelegatecall(address,bytes)": "b8e9744c",
    "adminPause(uint256)": "2692c59f",
    "adminSstore(uint256,uint256)": "be831a2e",
    "adminSstoreWithMask(uint256,uint256,uint256)": "6c4624c3",
    "auroraToken()": "5578fdb2",
    "batchClaimOnBehalfOfAnotherUser(address,uint256[])": "6458edd3",
    "batchClaimOnBehalfOfOtherUsers(address[],uint256[])": "26cdddb9",
    "batchMoveRewardsToPending(uint256[])": "687dd46c",
    "batchWithdraw(uint256[])": "72e55399",
    "cancelStreamProposal(uint256)": "90403322",
    "claimAllOnBehalfOfAnotherUser(address)": "d5050aed",
    "claimAllOnBehalfOfOtherUsers(address[])": "27571969",
    "claimOnBehalfOfAnotherUser(address,uint256)": "3e9a44cb",
    "createStream(uint256,uint256)": "8d40bd03",
    "getAmountOfShares(uint256,address)": "0efd8310",
    "getLatestRewardPerShare(uint256)": "12dd67fe",
    "getPending(uint256,address)": "7f37df3b",
    "getReleaseTime(uint256,address)": "c8927723",
    "getRewardPerShare(uint256)": "993b21c1",
    "getRewardPerShareForUser(uint256,address)": "1dd00452",
    "getRewardsAmount(uint256,uint256)": "36630cc7",
    "getRoleAdmin(bytes32)": "248a9ca3",
    "getStream(uint256)": "894e9a0d",
    "getStreamClaimableAmount(uint256,address)": "1c61e617",
    "getStreamOwnerClaimableAmount(uint256)": "396a6c14",
    "getStreamSchedule(uint256)": "70bc770c",
    "getStreamsCount()": "e335e79a",
    "getTotalAmountOfStakedAurora()": "cd5ba590",
    "getTreasuryBalance(address)": "57baeac8",
    "getUserShares(address)": "ba0cb22b",
    "getUserTotalDeposit(address)": "a4c828dc",
    "grantRole(bytes32,address)": "2f2ff15d",
    "hasRole(bytes32,address)": "91d14854",
    "initialize(address,address,uint256[],uint256[],uint256,uint256,address,uint256,uint256)": "a81c6a15",
    "maxWeight()": "a8b0bb83",
    "minWeight()": "0c2ee55e",
    "moveAllRewardsToPending()": "8bc34e77",
    "moveRewardsToPending(uint256)": "ee13ad8e",
    "paused()": "5c975abb",
    "proposeStream(address,address,uint256,uint256,uint256,uint256[],uint256[],uint256)": "1194ebeb",
    "proxiableUUID()": "52d1902d",
    "releaseAuroraRewardsToStreamOwner(uint256)": "9c52a920",
    "removeStream(uint256,address)": "3ba31abf",
    "renounceRole(bytes32,address)": "36568abe",
    "revokeRole(bytes32,address)": "d547741f",
    "rewardsSchedule(uint256,uint256,uint256)": "03687788",
    "stake(uint256)": "a694fc3a",
    "stakeOnBehalfOfAnotherUser(address,uint256)": "2ca783f3",
    "stakeOnBehalfOfOtherUsers(address[],uint256[],uint256)": "53a4cca0",
    "startEndScheduleIndex(uint256,uint256,uint256)": "4981912e",
    "supportsInterface(bytes4)": "01ffc9a7",
    "totalAmountOfStakedAurora()": "3895a275",
    "totalAuroraShares()": "bb07ec1b",
    "totalStreamShares()": "6db8e53d",
    "touchedAt()": "1fd8c5f4",
    "treasury()": "61d027b3",
    "unstake(uint256)": "2e17de78",
    "unstakeAll()": "35322f37",
    "updateTreasury(address)": "7f51bb1f",
    "upgradeTo(address)": "3659cfe6",
    "upgradeToAndCall(address,bytes)": "4f1ef286",
    "users(address)": "a87430ba",
    "withdraw(uint256)": "2e1a7d4d",
    "withdrawAll()": "853828b6"
  },
  "id": 13
}