{
  "abi": [
    {
      "inputs": [
        {
          "internalType": "address",
          "name": "_asset",
          "type": "address"
        },
        {
          "internalType": "address",
          "name": "_contractOperatorRole",
          "type": "address"
        },
        {
          "internalType": "string",
          "name": "_stAurName",
          "type": "string"
        },
        {
          "internalType": "string",
          "name": "_stAurSymbol",
          "type": "string"
        },
        {
          "internalType": "uint256",
          "name": "_minDepositAmount",
          "type": "uint256"
        }
      ],
      "stateMutability": "nonpayable",
      "type": "constructor"
    },
    {
      "anonymous": false,
      "inputs": [
        {
          "indexed": true,
          "internalType": "address",
          "name": "_account",
          "type": "address"
        },
        {
          "indexed": false,
          "internalType": "address",
          "name": "_sender",
          "type": "address"
        }
      ],
      "name": "AccountBlacklisted",
      "type": "event"
    },
    {
      "anonymous": false,
      "inputs": [
        {
          "indexed": true,
          "internalType": "address",
          "name": "_account",
          "type": "address"
        },
        {
          "indexed": false,
          "internalType": "address",
          "name": "_sender",
          "type": "address"
        }
      ],
      "name": "AccountWhitelisted",
      "type": "event"
    },
    {
      "anonymous": false,
      "inputs": [
        {
          "indexed": true,
          "internalType": "address",
          "name": "owner",
          "type": "address"
        },
        {
          "indexed": true,
          "internalType": "address",
          "name": "spender",
          "type": "address"
        },
        {
          "indexed": false,
          "internalType": "uint256",
          "name": "value",
          "type": "uint256"
        }
      ],
      "name": "Approval",
      "type": "event"
    },
    {
      "anonymous": false,
      "inputs": [
        {
          "indexed": false,
          "internalType": "address",
          "name": "_stakingManager",
          "type": "address"
        },
        {
          "indexed": false,
          "internalType": "address",
          "name": "_liquidityPool",
          "type": "address"
        },
        {
          "indexed": false,
          "internalType": "address",
          "name": "_sender",
          "type": "address"
        }
      ],
      "name": "ContractInitialized",
      "type": "event"
    },
    {
      "anonymous": false,
      "inputs": [
        {
          "indexed": false,
          "internalType": "bool",
          "name": "_isFullyOperational",
          "type": "bool"
        },
        {
          "indexed": false,
          "internalType": "address",
          "name": "_sender",
          "type": "address"
        }
      ],
      "name": "ContractUpdateOperation",
      "type": "event"
    },
    {
      "anonymous": false,
      "inputs": [
        {
          "indexed": false,
          "internalType": "bool",
          "name": "_isWhitelistRequired",
          "type": "bool"
        },
        {
          "indexed": false,
          "internalType": "address",
          "name": "_sender",
          "type": "address"
        }
      ],
      "name": "ContractUpdateWhitelist",
      "type": "event"
    },
    {
      "anonymous": false,
      "inputs": [
        {
          "indexed": true,
          "internalType": "address",
          "name": "sender",
          "type": "address"
        },
        {
          "indexed": true,
          "internalType": "address",
          "name": "owner",
          "type": "address"
        },
        {
          "indexed": false,
          "internalType": "uint256",
          "name": "assets",
          "type": "uint256"
        },
        {
          "indexed": false,
          "internalType": "uint256",
          "name": "shares",
          "type": "uint256"
        }
      ],
      "name": "Deposit",
      "type": "event"
    },
    {
      "anonymous": false,
      "inputs": [
        {
          "indexed": false,
          "internalType": "address",
          "name": "_new",
          "type": "address"
        },
        {
          "indexed": false,
          "internalType": "address",
          "name": "_sender",
          "type": "address"
        }
      ],
      "name": "NewLiquidityPoolUpdate",
      "type": "event"
    },
    {
      "anonymous": false,
      "inputs": [
        {
          "indexed": false,
          "internalType": "address",
          "name": "_new",
          "type": "address"
        },
        {
          "indexed": false,
          "internalType": "address",
          "name": "_sender",
          "type": "address"
        }
      ],
      "name": "NewManagerUpdate",
      "type": "event"
    },
    {
      "anonymous": false,
      "inputs": [
        {
          "indexed": true,
          "internalType": "bytes32",
          "name": "role",
          "type": "bytes32"
        },
        {
          "indexed": true,
          "internalType": "bytes32",
          "name": "previousAdminRole",
          "type": "bytes32"
        },
        {
          "indexed": true,
          "internalType": "bytes32",
          "name": "newAdminRole",
          "type": "bytes32"
        }
      ],
      "name": "RoleAdminChanged",
      "type": "event"
    },
    {
      "anonymous": false,
      "inputs": [
        {
          "indexed": true,
          "internalType": "bytes32",
          "name": "role",
          "type": "bytes32"
        },
        {
          "indexed": true,
          "internalType": "address",
          "name": "account",
          "type": "address"
        },
        {
          "indexed": true,
          "internalType": "address",
          "name": "sender",
          "type": "address"
        }
      ],
      "name": "RoleGranted",
      "type": "event"
    },
    {
      "anonymous": false,
      "inputs": [
        {
          "indexed": true,
          "internalType": "bytes32",
          "name": "role",
          "type": "bytes32"
        },
        {
          "indexed": true,
          "internalType": "address",
          "name": "account",
          "type": "address"
        },
        {
          "indexed": true,
          "internalType": "address",
          "name": "sender",
          "type": "address"
        }
      ],
      "name": "RoleRevoked",
      "type": "event"
    },
    {
      "anonymous": false,
      "inputs": [
        {
          "indexed": true,
          "internalType": "address",
          "name": "from",
          "type": "address"
        },
        {
          "indexed": true,
          "internalType": "address",
          "name": "to",
          "type": "address"
        },
        {
          "indexed": false,
          "internalType": "uint256",
          "name": "value",
          "type": "uint256"
        }
      ],
      "name": "Transfer",
      "type": "event"
    },
    {
      "anonymous": false,
      "inputs": [
        {
          "indexed": false,
          "internalType": "uint256",
          "name": "_new",
          "type": "uint256"
        },
        {
          "indexed": false,
          "internalType": "address",
          "name": "_sender",
          "type": "address"
        }
      ],
      "name": "UpdateMinDepositAmount",
      "type": "event"
    },
    {
      "anonymous": false,
      "inputs": [
        {
          "indexed": true,
          "internalType": "address",
          "name": "sender",
          "type": "address"
        },
        {
          "indexed": true,
          "internalType": "address",
          "name": "receiver",
          "type": "address"
        },
        {
          "indexed": true,
          "internalType": "address",
          "name": "owner",
          "type": "address"
        },
        {
          "indexed": false,
          "internalType": "uint256",
          "name": "assets",
          "type": "uint256"
        },
        {
          "indexed": false,
          "internalType": "uint256",
          "name": "shares",
          "type": "uint256"
        }
      ],
      "name": "Withdraw",
      "type": "event"
    },
    {
      "anonymous": false,
      "inputs": [
        {
          "indexed": true,
          "internalType": "address",
          "name": "_caller",
          "type": "address"
        },
        {
          "indexed": true,
          "internalType": "address",
          "name": "_receiver",
          "type": "address"
        },
        {
          "indexed": true,
          "internalType": "address",
          "name": "_owner",
          "type": "address"
        },
        {
          "indexed": false,
          "internalType": "uint256",
          "name": "_shares",
          "type": "uint256"
        },
        {
          "indexed": false,
          "internalType": "uint256",
          "name": "_assets",
          "type": "uint256"
        }
      ],
      "name": "WithdrawOrderCreated",
      "type": "event"
    },
    {
      "inputs": [],
      "name": "ADMIN_ROLE",
      "outputs": [
        {
          "internalType": "bytes32",
          "name": "",
          "type": "bytes32"
        }
      ],
      "stateMutability": "view",
      "type": "function"
    },
    {
      "inputs": [],
      "name": "DEFAULT_ADMIN_ROLE",
      "outputs": [
        {
          "internalType": "bytes32",
          "name": "",
          "type": "bytes32"
        }
      ],
      "stateMutability": "view",
      "type": "function"
    },
    {
      "inputs": [],
      "name": "OPERATOR_ROLE",
      "outputs": [
        {
          "internalType": "bytes32",
          "name": "",
          "type": "bytes32"
        }
      ],
      "stateMutability": "view",
      "type": "function"
    },
    {
      "inputs": [
        {
          "internalType": "address",
          "name": "",
          "type": "address"
        }
      ],
      "name": "accountWhitelist",
      "outputs": [
        {
          "internalType": "bool",
          "name": "",
          "type": "bool"
        }
      ],
      "stateMutability": "view",
      "type": "function"
    },
    {
      "inputs": [
        {
          "internalType": "address",
          "name": "owner",
          "type": "address"
        },
        {
          "internalType": "address",
          "name": "spender",
          "type": "address"
        }
      ],
      "name": "allowance",
      "outputs": [
        {
          "internalType": "uint256",
          "name": "",
          "type": "uint256"
        }
      ],
      "stateMutability": "view",
      "type": "function"
    },
    {
      "inputs": [
        {
          "internalType": "address",
          "name": "spender",
          "type": "address"
        },
        {
          "internalType": "uint256",
          "name": "amount",
          "type": "uint256"
        }
      ],
      "name": "approve",
      "outputs": [
        {
          "internalType": "bool",
          "name": "",
          "type": "bool"
        }
      ],
      "stateMutability": "nonpayable",
      "type": "function"
    },
    {
      "inputs": [],
      "name": "asset",
      "outputs": [
        {
          "internalType": "address",
          "name": "",
          "type": "address"
        }
      ],
      "stateMutability": "view",
      "type": "function"
    },
    {
      "inputs": [
        {
          "internalType": "address",
          "name": "account",
          "type": "address"
        }
      ],
      "name": "balanceOf",
      "outputs": [
        {
          "internalType": "uint256",
          "name": "",
          "type": "uint256"
        }
      ],
      "stateMutability": "view",
      "type": "function"
    },
    {
      "inputs": [
        {
          "internalType": "address",
          "name": "_account",
          "type": "address"
        }
      ],
      "name": "blacklistAccount",
      "outputs": [],
      "stateMutability": "nonpayable",
      "type": "function"
    },
    {
      "inputs": [
        {
          "internalType": "address[]",
          "name": "_accounts",
          "type": "address[]"
        }
      ],
      "name": "bulkBlacklistAccount",
      "outputs": [],
      "stateMutability": "nonpayable",
      "type": "function"
    },
    {
      "inputs": [
        {
          "internalType": "address[]",
          "name": "_accounts",
          "type": "address[]"
        }
      ],
      "name": "bulkWhitelistAccount",
      "outputs": [],
      "stateMutability": "nonpayable",
      "type": "function"
    },
    {
      "inputs": [
        {
          "internalType": "uint256",
          "name": "amount",
          "type": "uint256"
        }
      ],
      "name": "burn",
      "outputs": [],
      "stateMutability": "nonpayable",
      "type": "function"
    },
    {
      "inputs": [
        {
          "internalType": "address",
          "name": "account",
          "type": "address"
        },
        {
          "internalType": "uint256",
          "name": "amount",
          "type": "uint256"
        }
      ],
      "name": "burnFrom",
      "outputs": [],
      "stateMutability": "nonpayable",
      "type": "function"
    },
    {
      "inputs": [
        {
          "internalType": "uint256",
          "name": "shares",
          "type": "uint256"
        }
      ],
      "name": "convertToAssets",
      "outputs": [
        {
          "internalType": "uint256",
          "name": "assets",
          "type": "uint256"
        }
      ],
      "stateMutability": "view",
      "type": "function"
    },
    {
      "inputs": [
        {
          "internalType": "uint256",
          "name": "assets",
          "type": "uint256"
        }
      ],
      "name": "convertToShares",
      "outputs": [
        {
          "internalType": "uint256",
          "name": "shares",
          "type": "uint256"
        }
      ],
      "stateMutability": "view",
      "type": "function"
    },
    {
      "inputs": [],
      "name": "decimals",
      "outputs": [
        {
          "internalType": "uint8",
          "name": "",
          "type": "uint8"
        }
      ],
      "stateMutability": "view",
      "type": "function"
    },
    {
      "inputs": [
        {
          "internalType": "address",
          "name": "spender",
          "type": "address"
        },
        {
          "internalType": "uint256",
          "name": "subtractedValue",
          "type": "uint256"
        }
      ],
      "name": "decreaseAllowance",
      "outputs": [
        {
          "internalType": "bool",
          "name": "",
          "type": "bool"
        }
      ],
      "stateMutability": "nonpayable",
      "type": "function"
    },
    {
      "inputs": [
        {
          "internalType": "uint256",
          "name": "_assets",
          "type": "uint256"
        },
        {
          "internalType": "address",
          "name": "_receiver",
          "type": "address"
        }
      ],
      "name": "deposit",
      "outputs": [
        {
          "internalType": "uint256",
          "name": "",
          "type": "uint256"
        }
      ],
      "stateMutability": "nonpayable",
      "type": "function"
    },
    {
      "inputs": [],
      "name": "enforceWhitelist",
      "outputs": [
        {
          "internalType": "bool",
          "name": "",
          "type": "bool"
        }
      ],
      "stateMutability": "view",
      "type": "function"
    },
    {
      "inputs": [],
      "name": "fullyOperational",
      "outputs": [
        {
          "internalType": "bool",
          "name": "",
          "type": "bool"
        }
      ],
      "stateMutability": "view",
      "type": "function"
    },
    {
      "inputs": [
        {
          "internalType": "bytes32",
          "name": "role",
          "type": "bytes32"
        }
      ],
      "name": "getRoleAdmin",
      "outputs": [
        {
          "internalType": "bytes32",
          "name": "",
          "type": "bytes32"
        }
      ],
      "stateMutability": "view",
      "type": "function"
    },
    {
      "inputs": [],
      "name": "getStAurPrice",
      "outputs": [
        {
          "internalType": "uint256",
          "name": "",
          "type": "uint256"
        }
      ],
      "stateMutability": "view",
      "type": "function"
    },
    {
      "inputs": [
        {
          "internalType": "bytes32",
          "name": "role",
          "type": "bytes32"
        },
        {
          "internalType": "address",
          "name": "account",
          "type": "address"
        }
      ],
      "name": "grantRole",
      "outputs": [],
      "stateMutability": "nonpayable",
      "type": "function"
    },
    {
      "inputs": [
        {
          "internalType": "bytes32",
          "name": "role",
          "type": "bytes32"
        },
        {
          "internalType": "address",
          "name": "account",
          "type": "address"
        }
      ],
      "name": "hasRole",
      "outputs": [
        {
          "internalType": "bool",
          "name": "",
          "type": "bool"
        }
      ],
      "stateMutability": "view",
      "type": "function"
    },
    {
      "inputs": [
        {
          "internalType": "address",
          "name": "spender",
          "type": "address"
        },
        {
          "internalType": "uint256",
          "name": "addedValue",
          "type": "uint256"
        }
      ],
      "name": "increaseAllowance",
      "outputs": [
        {
          "internalType": "bool",
          "name": "",
          "type": "bool"
        }
      ],
      "stateMutability": "nonpayable",
      "type": "function"
    },
    {
      "inputs": [
        {
          "internalType": "address",
          "name": "_stakingManager",
          "type": "address"
        },
        {
          "internalType": "address",
          "name": "_liquidityPool",
          "type": "address"
        }
      ],
      "name": "initializeLiquidStaking",
      "outputs": [],
      "stateMutability": "nonpayable",
      "type": "function"
    },
    {
      "inputs": [
        {
          "internalType": "address",
          "name": "_account",
          "type": "address"
        }
      ],
      "name": "isWhitelisted",
      "outputs": [
        {
          "internalType": "bool",
          "name": "",
          "type": "bool"
        }
      ],
      "stateMutability": "view",
      "type": "function"
    },
    {
      "inputs": [],
      "name": "liquidityPool",
      "outputs": [
        {
          "internalType": "address",
          "name": "",
          "type": "address"
        }
      ],
      "stateMutability": "view",
      "type": "function"
    },
    {
      "inputs": [
        {
          "internalType": "address",
          "name": "",
          "type": "address"
        }
      ],
      "name": "maxDeposit",
      "outputs": [
        {
          "internalType": "uint256",
          "name": "",
          "type": "uint256"
        }
      ],
      "stateMutability": "view",
      "type": "function"
    },
    {
      "inputs": [
        {
          "internalType": "address",
          "name": "",
          "type": "address"
        }
      ],
      "name": "maxMint",
      "outputs": [
        {
          "internalType": "uint256",
          "name": "",
          "type": "uint256"
        }
      ],
      "stateMutability": "view",
      "type": "function"
    },
    {
      "inputs": [
        {
          "internalType": "address",
          "name": "owner",
          "type": "address"
        }
      ],
      "name": "maxRedeem",
      "outputs": [
        {
          "internalType": "uint256",
          "name": "",
          "type": "uint256"
        }
      ],
      "stateMutability": "view",
      "type": "function"
    },
    {
      "inputs": [
        {
          "internalType": "address",
          "name": "owner",
          "type": "address"
        }
      ],
      "name": "maxWithdraw",
      "outputs": [
        {
          "internalType": "uint256",
          "name": "",
          "type": "uint256"
        }
      ],
      "stateMutability": "view",
      "type": "function"
    },
    {
      "inputs": [],
      "name": "minDepositAmount",
      "outputs": [
        {
          "internalType": "uint256",
          "name": "",
          "type": "uint256"
        }
      ],
      "stateMutability": "view",
      "type": "function"
    },
    {
      "inputs": [
        {
          "internalType": "uint256",
          "name": "_shares",
          "type": "uint256"
        },
        {
          "internalType": "address",
          "name": "_receiver",
          "type": "address"
        }
      ],
      "name": "mint",
      "outputs": [
        {
          "internalType": "uint256",
          "name": "",
          "type": "uint256"
        }
      ],
      "stateMutability": "nonpayable",
      "type": "function"
    },
    {
      "inputs": [],
      "name": "name",
      "outputs": [
        {
          "internalType": "string",
          "name": "",
          "type": "string"
        }
      ],
      "stateMutability": "view",
      "type": "function"
    },
    {
      "inputs": [
        {
          "internalType": "uint256",
          "name": "assets",
          "type": "uint256"
        }
      ],
      "name": "previewDeposit",
      "outputs": [
        {
          "internalType": "uint256",
          "name": "",
          "type": "uint256"
        }
      ],
      "stateMutability": "view",
      "type": "function"
    },
    {
      "inputs": [
        {
          "internalType": "uint256",
          "name": "shares",
          "type": "uint256"
        }
      ],
      "name": "previewMint",
      "outputs": [
        {
          "internalType": "uint256",
          "name": "",
          "type": "uint256"
        }
      ],
      "stateMutability": "view",
      "type": "function"
    },
    {
      "inputs": [
        {
          "internalType": "uint256",
          "name": "shares",
          "type": "uint256"
        }
      ],
      "name": "previewRedeem",
      "outputs": [
        {
          "internalType": "uint256",
          "name": "",
          "type": "uint256"
        }
      ],
      "stateMutability": "view",
      "type": "function"
    },
    {
      "inputs": [
        {
          "internalType": "uint256",
          "name": "assets",
          "type": "uint256"
        }
      ],
      "name": "previewWithdraw",
      "outputs": [
        {
          "internalType": "uint256",
          "name": "",
          "type": "uint256"
        }
      ],
      "stateMutability": "view",
      "type": "function"
    },
    {
      "inputs": [
        {
          "internalType": "uint256",
          "name": "_shares",
          "type": "uint256"
        },
        {
          "internalType": "address",
          "name": "_receiver",
          "type": "address"
        },
        {
          "internalType": "address",
          "name": "_owner",
          "type": "address"
        }
      ],
      "name": "redeem",
      "outputs": [
        {
          "internalType": "uint256",
          "name": "",
          "type": "uint256"
        }
      ],
      "stateMutability": "nonpayable",
      "type": "function"
    },
    {
      "inputs": [
        {
          "internalType": "bytes32",
          "name": "role",
          "type": "bytes32"
        },
        {
          "internalType": "address",
          "name": "account",
          "type": "address"
        }
      ],
      "name": "renounceRole",
      "outputs": [],
      "stateMutability": "nonpayable",
      "type": "function"
    },
    {
      "inputs": [
        {
          "internalType": "bytes32",
          "name": "role",
          "type": "bytes32"
        },
        {
          "internalType": "address",
          "name": "account",
          "type": "address"
        }
      ],
      "name": "revokeRole",
      "outputs": [],
      "stateMutability": "nonpayable",
      "type": "function"
    },
    {
      "inputs": [],
      "name": "stakingManager",
      "outputs": [
        {
          "internalType": "address",
          "name": "",
          "type": "address"
        }
      ],
      "stateMutability": "view",
      "type": "function"
    },
    {
      "inputs": [
        {
          "internalType": "bytes4",
          "name": "interfaceId",
          "type": "bytes4"
        }
      ],
      "name": "supportsInterface",
      "outputs": [
        {
          "internalType": "bool",
          "name": "",
          "type": "bool"
        }
      ],
      "stateMutability": "view",
      "type": "function"
    },
    {
      "inputs": [],
      "name": "symbol",
      "outputs": [
        {
          "internalType": "string",
          "name": "",
          "type": "string"
        }
      ],
      "stateMutability": "view",
      "type": "function"
    },
    {
      "inputs": [],
      "name": "totalAssets",
      "outputs": [
        {
          "internalType": "uint256",
          "name": "",
          "type": "uint256"
        }
      ],
      "stateMutability": "view",
      "type": "function"
    },
    {
      "inputs": [],
      "name": "totalSupply",
      "outputs": [
        {
          "internalType": "uint256",
          "name": "",
          "type": "uint256"
        }
      ],
      "stateMutability": "view",
      "type": "function"
    },
    {
      "inputs": [
        {
          "internalType": "address",
          "name": "to",
          "type": "address"
        },
        {
          "internalType": "uint256",
          "name": "amount",
          "type": "uint256"
        }
      ],
      "name": "transfer",
      "outputs": [
        {
          "internalType": "bool",
          "name": "",
          "type": "bool"
        }
      ],
      "stateMutability": "nonpayable",
      "type": "function"
    },
    {
      "inputs": [
        {
          "internalType": "address",
          "name": "from",
          "type": "address"
        },
        {
          "internalType": "address",
          "name": "to",
          "type": "address"
        },
        {
          "internalType": "uint256",
          "name": "amount",
          "type": "uint256"
        }
      ],
      "name": "transferFrom",
      "outputs": [
        {
          "internalType": "bool",
          "name": "",
          "type": "bool"
        }
      ],
      "stateMutability": "nonpayable",
      "type": "function"
    },
    {
      "inputs": [
        {
          "internalType": "bool",
          "name": "_isFullyOperational",
          "type": "bool"
        }
      ],
      "name": "updateContractOperation",
      "outputs": [],
      "stateMutability": "nonpayable",
      "type": "function"
    },
    {
      "inputs": [
        {
          "internalType": "bool",
          "name": "_isWhitelistRequired",
          "type": "bool"
        }
      ],
      "name": "updateEnforceWhitelist",
      "outputs": [],
      "stateMutability": "nonpayable",
      "type": "function"
    },
    {
      "inputs": [
        {
          "internalType": "address",
          "name": "_liquidityPool",
          "type": "address"
        }
      ],
      "name": "updateLiquidityPool",
      "outputs": [],
      "stateMutability": "nonpayable",
      "type": "function"
    },
    {
      "inputs": [
        {
          "internalType": "uint256",
          "name": "_amount",
          "type": "uint256"
        }
      ],
      "name": "updateMinDepositAmount",
      "outputs": [],
      "stateMutability": "nonpayable",
      "type": "function"
    },
    {
      "inputs": [
        {
          "internalType": "address",
          "name": "_stakingManager",
          "type": "address"
        }
      ],
      "name": "updateStakingManager",
      "outputs": [],
      "stateMutability": "nonpayable",
      "type": "function"
    },
    {
      "inputs": [
        {
          "internalType": "address",
          "name": "_account",
          "type": "address"
        }
      ],
      "name": "whitelistAccount",
      "outputs": [],
      "stateMutability": "nonpayable",
      "type": "function"
    },
    {
      "inputs": [
        {
          "internalType": "uint256",
          "name": "_assets",
          "type": "uint256"
        },
        {
          "internalType": "address",
          "name": "_receiver",
          "type": "address"
        },
        {
          "internalType": "address",
          "name": "",
          "type": "address"
        }
      ],
      "name": "withdraw",
      "outputs": [
        {
          "internalType": "uint256",
          "name": "",
          "type": "uint256"
        }
      ],
      "stateMutability": "nonpayable",
      "type": "function"
    },
    {
      "stateMutability": "payable",
      "type": "receive"
    }
  ],
  "bytecode": {
    "object": "0x60c06040523480156200001157600080fd5b50604051620034d2380380620034d283398101604081905262000034916200040f565b848383600362000045838262000538565b50600462000054828262000538565b5050506000806200006b836200019660201b60201c565b915091508162000090576200008a6200027b60201b620019271760201c565b62000092565b805b60ff1660a05250506001600160a01b03908116608052851615801590620000c157506001600160a01b03841615155b620001125760405162461bcd60e51b815260206004820152601460248201527f494e56414c49445f5a45524f5f41444452455353000000000000000000000000604482015260640160405180910390fd5b60088190556009805461ff001916610100179055620001527fa49807205ce4d355092ef5a8a18f56e8913cf4a201fbe287825b095693c217753362000280565b6200015f60003362000280565b6200018b7f97667070c54ef182b0f5858b034beac1b6f3089aa2d3188bb1e8929f4fa9b9298562000280565b50505050506200063c565b60408051600481526024810182526020810180516001600160e01b031663313ce56760e01b17905290516000918291829182916001600160a01b03871691620001df9162000604565b600060405180830381855afa9150503d80600081146200021c576040519150601f19603f3d011682016040523d82523d6000602084013e62000221565b606091505b50915091508180156200023657506020815110155b156200026e5760008180602001905181019062000254919062000622565b905060ff81116200026c576001969095509350505050565b505b5060009485945092505050565b601290565b60008281526005602090815260408083206001600160a01b038516845290915290205460ff16620003215760008281526005602090815260408083206001600160a01b03851684529091529020805460ff19166001179055620002e03390565b6001600160a01b0316816001600160a01b0316837f2f8788117e7eff1d82e926ec794901d17c78024a50270940304540a733656f0d60405160405180910390a45b5050565b80516001600160a01b03811681146200033d57600080fd5b919050565b634e487b7160e01b600052604160045260246000fd5b60005b83811015620003755781810151838201526020016200035b565b50506000910152565b600082601f8301126200039057600080fd5b81516001600160401b0380821115620003ad57620003ad62000342565b604051601f8301601f19908116603f01168101908282118183101715620003d857620003d862000342565b81604052838152866020858801011115620003f257600080fd5b6200040584602083016020890162000358565b9695505050505050565b600080600080600060a086880312156200042857600080fd5b620004338662000325565b9450620004436020870162000325565b60408701519094506001600160401b03808211156200046157600080fd5b6200046f89838a016200037e565b945060608801519150808211156200048657600080fd5b5062000495888289016200037e565b925050608086015190509295509295909350565b600181811c90821680620004be57607f821691505b602082108103620004df57634e487b7160e01b600052602260045260246000fd5b50919050565b601f8211156200053357600081815260208120601f850160051c810160208610156200050e5750805b601f850160051c820191505b818110156200052f578281556001016200051a565b5050505b505050565b81516001600160401b0381111562000554576200055462000342565b6200056c81620005658454620004a9565b84620004e5565b602080601f831160018114620005a457600084156200058b5750858301515b600019600386901b1c1916600185901b1785556200052f565b600085815260208120601f198616915b82811015620005d557888601518255948401946001909101908401620005b4565b5085821015620005f45787850151600019600388901b60f8161c191681555b5050505050600190811b01905550565b600082516200061881846020870162000358565b9190910192915050565b6000602082840312156200063557600080fd5b5051919050565b60805160a051612e696200066960003960006105280152600081816105810152611f190152612e696000f3fe60806040526004361061036f5760003560e01c806375b238fc116101c6578063b0957210116100f7578063d37b34d711610095578063dd3cdf6c1161006f578063dd3cdf6c14610a56578063dd62ed3e14610a76578063ef8b30f7146109b6578063f5b541a614610a9657600080fd5b8063d37b34d7146109f6578063d547741f14610a16578063d905777e14610a3657600080fd5b8063ba087652116100d1578063ba08765214610974578063c63d75b614610994578063c6e6f592146109b6578063ce96cb77146109d657600080fd5b8063b095721014610915578063b3d7f6b914610934578063b460af941461095457600080fd5b806395d89b4111610164578063a217fddf1161013e578063a217fddf146108a0578063a457c2d7146108b5578063a9059cbb146108d5578063a915277c146108f557600080fd5b806395d89b411461084b57806396a1b6b5146108605780639c2562761461088057600080fd5b8063807c7691116101a0578063807c7691146107cb57806384780205146107eb57806391d148541461080b57806394bf804d1461082b57600080fd5b806375b238fc1461075957806376a4f9681461077b57806379cc6790146107ab57600080fd5b806339509351116102a05780635ade19041161023e578063665a11ca11610218578063665a11ca146106c35780636e553f65146106e357806370a082311461070357806372caacf11461073957600080fd5b80635ade19041461067357806363e0c2f81461068d578063645006ca146106ad57600080fd5b80633d4fc6a61161027a5780633d4fc6a61461061e578063402d267d1461063357806342966c68146106535780634cdad506146103f557600080fd5b806339509351146105a55780633af32abf146105c55780633c96dc2c146105fe57600080fd5b806322828cc21161030d5780632f2ff15d116102e75780632f2ff15d146104f2578063313ce5671461051457806336568abe1461055257806338d52e0f1461057257600080fd5b806322828cc21461046a57806323b872dd146104a2578063248a9ca3146104c257600080fd5b806307a2d13a1161034957806307a2d13a146103f5578063095ea7b3146104155780630a28a4771461043557806318160ddd1461045557600080fd5b806301e1d1141461037b57806301ffc9a7146103a357806306fdde03146103d357600080fd5b3661037657005b600080fd5b34801561038757600080fd5b50610390610ab8565b6040519081526020015b60405180910390f35b3480156103af57600080fd5b506103c36103be3660046128c5565b610b2a565b604051901515815260200161039a565b3480156103df57600080fd5b506103e8610b61565b60405161039a9190612913565b34801561040157600080fd5b50610390610410366004612946565b610bf3565b34801561042157600080fd5b506103c3610430366004612984565b610c00565b34801561044157600080fd5b50610390610450366004612946565b610c18565b34801561046157600080fd5b50600254610390565b34801561047657600080fd5b5060065461048a906001600160a01b031681565b6040516001600160a01b03909116815260200161039a565b3480156104ae57600080fd5b506103c36104bd3660046129b0565b610c25565b3480156104ce57600080fd5b506103906104dd366004612946565b60009081526005602052604090206001015490565b3480156104fe57600080fd5b5061051261050d3660046129f1565b610c4b565b005b34801561052057600080fd5b5060405160ff7f000000000000000000000000000000000000000000000000000000000000000016815260200161039a565b34801561055e57600080fd5b5061051261056d3660046129f1565b610c75565b34801561057e57600080fd5b507f000000000000000000000000000000000000000000000000000000000000000061048a565b3480156105b157600080fd5b506103c36105c0366004612984565b610cf8565b3480156105d157600080fd5b506103c36105e0366004612a21565b6001600160a01b03166000908152600a602052604090205460ff1690565b34801561060a57600080fd5b50610512610619366004612a3e565b610d1a565b34801561062a57600080fd5b50610390610e58565b34801561063f57600080fd5b5061039061064e366004612a21565b610e72565b34801561065f57600080fd5b5061051261066e366004612946565b610e90565b34801561067f57600080fd5b506009546103c39060ff1681565b34801561069957600080fd5b506105126106a8366004612a21565b610e9d565b3480156106b957600080fd5b5061039060085481565b3480156106cf57600080fd5b5060075461048a906001600160a01b031681565b3480156106ef57600080fd5b506103906106fe3660046129f1565b610f11565b34801561070f57600080fd5b5061039061071e366004612a21565b6001600160a01b031660009081526020819052604090205490565b34801561074557600080fd5b50610512610754366004612a82565b611010565b34801561076557600080fd5b50610390600080516020612e1483398151915281565b34801561078757600080fd5b506103c3610796366004612a21565b600a6020526000908152604090205460ff1681565b3480156107b757600080fd5b506105126107c6366004612984565b61106f565b3480156107d757600080fd5b506105126107e6366004612a82565b611084565b3480156107f757600080fd5b50610512610806366004612946565b6110dd565b34801561081757600080fd5b506103c36108263660046129f1565b611137565b34801561083757600080fd5b506103906108463660046129f1565b611162565b34801561085757600080fd5b506103e8611261565b34801561086c57600080fd5b5061051261087b366004612a21565b611270565b34801561088c57600080fd5b5061051261089b366004612b55565b61134b565b3480156108ac57600080fd5b50610390600081565b3480156108c157600080fd5b506103c36108d0366004612984565b6113b1565b3480156108e157600080fd5b506103c36108f0366004612984565b611437565b34801561090157600080fd5b50610512610910366004612b55565b611445565b34801561092157600080fd5b506009546103c390610100900460ff1681565b34801561094057600080fd5b5061039061094f366004612946565b611519565b34801561096057600080fd5b5061039061096f366004612b72565b611526565b34801561098057600080fd5b5061039061098f366004612b72565b6115e5565b3480156109a057600080fd5b506103906109af366004612a21565b5060001990565b3480156109c257600080fd5b506103906109d1366004612946565b611744565b3480156109e257600080fd5b506103906109f1366004612a21565b611751565b348015610a0257600080fd5b50610512610a11366004612a21565b611775565b348015610a2257600080fd5b50610512610a313660046129f1565b6117de565b348015610a4257600080fd5b50610390610a51366004612a21565b611803565b348015610a6257600080fd5b50610512610a71366004612a21565b611821565b348015610a8257600080fd5b50610390610a91366004612a3e565b6118fc565b348015610aa257600080fd5b50610390600080516020612df483398151915281565b600654604080516278744560e21b815290516000926001600160a01b0316916301e1d1149160048083019260209291908290030181865afa158015610b01573d6000803e3d6000fd5b505050506040513d601f19601f82011682018060405250810190610b259190612bb4565b905090565b60006001600160e01b03198216637965db0b60e01b1480610b5b57506301ffc9a760e01b6001600160e01b03198316145b92915050565b606060038054610b7090612bcd565b80601f0160208091040260200160405190810160405280929190818152602001828054610b9c90612bcd565b8015610be95780601f10610bbe57610100808354040283529160200191610be9565b820191906000526020600020905b815481529060010190602001808311610bcc57829003601f168201915b5050505050905090565b6000610b5b82600061192c565b600033610c0e818585611963565b5060019392505050565b6000610b5b826001611a87565b600033610c33858285611ab9565b610c3e858585611b2d565b60019150505b9392505050565b600082815260056020526040902060010154610c6681611cd1565b610c708383611cdb565b505050565b6001600160a01b0381163314610cea5760405162461bcd60e51b815260206004820152602f60248201527f416363657373436f6e74726f6c3a2063616e206f6e6c792072656e6f756e636560448201526e103937b632b9903337b91039b2b63360891b60648201526084015b60405180910390fd5b610cf48282611d61565b5050565b600033610c0e818585610d0b83836118fc565b610d159190612c1d565b611963565b600080516020612e14833981519152610d3281611cd1565b6007546001600160a01b03161580610d5357506006546001600160a01b0316155b610d955760405162461bcd60e51b81526020600482015260136024820152721053149150511657d253925512505312569151606a1b6044820152606401610ce1565b6001600160a01b038216151580610db457506001600160a01b03831615155b610dd05760405162461bcd60e51b8152600401610ce190612c30565b600680546001600160a01b038086166001600160a01b0319928316179092556007805492851692909116919091179055610e0a6001611445565b604080516001600160a01b03858116825284166020820152338183015290517f4ca662a5f1f012e4d740b256559dce10a6b72cdec96be0142f5e2eb49dd37a6e9181900360600190a1505050565b6000670de0b6b3a7640000610e6c81610bf3565b91505090565b6000610e7c611dc8565b610e87576000610b5b565b60001992915050565b610e9a3382611de2565b50565b600080516020612df4833981519152610eb581611cd1565b6001600160a01b0382166000818152600a6020908152604091829020805460ff1916600117905590513381527f7109ca49c9e27aee496166b11f9bc8543f8caca11bc110cda3a427cfeab5c01591015b60405180910390a25050565b60095460009060ff16610f365760405162461bcd60e51b8152600401610ce190612c5e565b600954610100900460ff1615610fa557336000908152600a602052604090205460ff16610fa55760405162461bcd60e51b815260206004820152601a60248201527f4143434f554e545f49535f4e4f545f57484954454c49535445440000000000006044820152606401610ce1565b600854831015610ff75760405162461bcd60e51b815260206004820152601c60248201527f4c4553535f5448414e5f4d494e5f4445504f5349545f414d4f554e54000000006044820152606401610ce1565b600061100284611744565b9050610c4433848684611f14565b600080516020612df483398151915261102881611cd1565b815160005b818110156110695761105784828151811061104a5761104a612c9f565b6020026020010151610e9d565b8061106181612cb5565b91505061102d565b50505050565b61107a823383611ab9565b610cf48282611de2565b600080516020612df483398151915261109c81611cd1565b815160005b81811015611069576110cb8482815181106110be576110be612c9f565b6020026020010151611775565b806110d581612cb5565b9150506110a1565b600080516020612df48339815191526110f581611cd1565b6008829055604080518381523360208201527f0b6230e568a34b6f5ab9ddf98203464e0af7f22ce172aef16b6e1acdd738a28091015b60405180910390a15050565b60009182526005602090815260408084206001600160a01b0393909316845291905290205460ff1690565b60095460009060ff166111875760405162461bcd60e51b8152600401610ce190612c5e565b600954610100900460ff16156111f657336000908152600a602052604090205460ff166111f65760405162461bcd60e51b815260206004820152601a60248201527f4143434f554e545f49535f4e4f545f57484954454c49535445440000000000006044820152606401610ce1565b600061120184611519565b90506008548110156112555760405162461bcd60e51b815260206004820152601c60248201527f4c4553535f5448414e5f4d494e5f4445504f5349545f414d4f554e54000000006044820152606401610ce1565b610c4433848387611f14565b606060048054610b7090612bcd565b600080516020612e1483398151915261128881611cd1565b6001600160a01b0382166112ae5760405162461bcd60e51b8152600401610ce190612c30565b6006546001600160a01b03166112f85760405162461bcd60e51b815260206004820152600f60248201526e1393d517d253925512505312569151608a1b6044820152606401610ce1565b600680546001600160a01b0319166001600160a01b038416908117909155604080519182523360208301527fddc0a9f2354d60930ab764b633fb61eb5faaaede03a5d4505c9825519bdf0b2e910161112b565b600080516020612df483398151915261136381611cd1565b6009805461ff00191661010084151590810291909117909155604080519182523360208301527f26694f2d1b18aedfae816707c56820e0accf6300b58dc72c90f0e216a5f8f250910161112b565b600033816113bf82866118fc565b90508381101561141f5760405162461bcd60e51b815260206004820152602560248201527f45524332303a2064656372656173656420616c6c6f77616e63652062656c6f77604482015264207a65726f60d81b6064820152608401610ce1565b61142c8286868403611963565b506001949350505050565b600033610c0e818585611b2d565b600080516020612e1483398151915261145d81611cd1565b81156114d3576007546001600160a01b03161580159061148757506006546001600160a01b031615155b6114d35760405162461bcd60e51b815260206004820152601860248201527f434f4e54524143545f4e4f545f494e495449414c495a454400000000000000006044820152606401610ce1565b6009805460ff1916831515908117909155604080519182523360208301527f956501fb29fec297bb8258701ee6a99883446290e4dba4f0f75e3d47d917cc72910161112b565b6000610b5b82600161192c565b60065460405163e2f32def60e01b81526001600160a01b03848116600483015233602483015260448201869052600092169063e2f32def90606401600060405180830381600087803b15801561157b57600080fd5b505af115801561158f573d6000803e3d6000fd5b505060408051878152600060208201523393506001600160a01b038716925083917ffbde797d201c681b91056529119e0b02407c7bb96a4a2c75c01fc9667232c8db910160405180910390a45060009392505050565b60095460009060ff1661160a5760405162461bcd60e51b8152600401610ce190612c5e565b6000841161165a5760405162461bcd60e51b815260206004820152601960248201527f43414e4e4f545f52454445454d5f5a45524f5f534841524553000000000000006044820152606401610ce1565b336001600160a01b0383161461167557611675823386611ab9565b600061168085610bf3565b905061168c8386611de2565b600654604051633488e78160e21b8152600481018390526001600160a01b0386811660248301529091169063d2239e0490604401600060405180830381600087803b1580156116da57600080fd5b505af11580156116ee573d6000803e3d6000fd5b505060408051888152602081018590526001600160a01b0380881694508816925033917f1459afd3d77540f34a5c34d16fbd826fdd470693dbb965135e5b80a369dd5192910160405180910390a4949350505050565b6000610b5b826000611a87565b6001600160a01b038116600090815260208190526040812054610b5b90600061192c565b600080516020612df483398151915261178d81611cd1565b6001600160a01b0382166000818152600a6020908152604091829020805460ff1916905590513381527f72cfbf38f20dd13936156a343afe7912e41a0d17920dad9cf96245232332c6829101610f05565b6000828152600560205260409020600101546117f981611cd1565b610c708383611d61565b6001600160a01b038116600090815260208190526040812054610b5b565b600080516020612e1483398151915261183981611cd1565b6001600160a01b03821661185f5760405162461bcd60e51b8152600401610ce190612c30565b6007546001600160a01b03166118a95760405162461bcd60e51b815260206004820152600f60248201526e1393d517d253925512505312569151608a1b6044820152606401610ce1565b600780546001600160a01b0319166001600160a01b038416908117909155604080519182523360208301527faa31546e5b66a0568fc93227ac42cb48c58266613c3c23e1002ddf299645811f910161112b565b6001600160a01b03918216600090815260016020908152604080832093909416825291909152205490565b601290565b60008061193860025490565b905080156119595761195461194b610ab8565b859083866121e1565b61195b565b835b949350505050565b6001600160a01b0383166119c55760405162461bcd60e51b8152602060048201526024808201527f45524332303a20617070726f76652066726f6d20746865207a65726f206164646044820152637265737360e01b6064820152608401610ce1565b6001600160a01b038216611a265760405162461bcd60e51b815260206004820152602260248201527f45524332303a20617070726f766520746f20746865207a65726f206164647265604482015261737360f01b6064820152608401610ce1565b6001600160a01b0383811660008181526001602090815260408083209487168084529482529182902085905590518481527f8c5be1e5ebec7d5bd14f71427d1e84f3dd0314c0f7b2291e5b200ac8c7c3b925910160405180910390a3505050565b600080611a9360025490565b9050831580611aa0575080155b6119595761195481611ab0610ab8565b869190866121e1565b6000611ac584846118fc565b905060001981146110695781811015611b205760405162461bcd60e51b815260206004820152601d60248201527f45524332303a20696e73756666696369656e7420616c6c6f77616e63650000006044820152606401610ce1565b6110698484848403611963565b6001600160a01b038316611b915760405162461bcd60e51b815260206004820152602560248201527f45524332303a207472616e736665722066726f6d20746865207a65726f206164604482015264647265737360d81b6064820152608401610ce1565b6001600160a01b038216611bf35760405162461bcd60e51b815260206004820152602360248201527f45524332303a207472616e7366657220746f20746865207a65726f206164647260448201526265737360e81b6064820152608401610ce1565b6001600160a01b03831660009081526020819052604090205481811015611c6b5760405162461bcd60e51b815260206004820152602660248201527f45524332303a207472616e7366657220616d6f756e7420657863656564732062604482015265616c616e636560d01b6064820152608401610ce1565b6001600160a01b03848116600081815260208181526040808320878703905593871680835291849020805487019055925185815290927fddf252ad1be2c89b69c2b068fc378daa952ba7f163c4a11628f55a4df523b3ef910160405180910390a3611069565b610e9a813361223e565b611ce58282611137565b610cf45760008281526005602090815260408083206001600160a01b03851684529091529020805460ff19166001179055611d1d3390565b6001600160a01b0316816001600160a01b0316837f2f8788117e7eff1d82e926ec794901d17c78024a50270940304540a733656f0d60405160405180910390a45050565b611d6b8282611137565b15610cf45760008281526005602090815260408083206001600160a01b0385168085529252808320805460ff1916905551339285917ff6391f5c32d9c69d2a47ea670b442974b53935d1edc7fd64eb21e047a839171b9190a45050565b600080611dd3610ab8565b1180610b255750506002541590565b6001600160a01b038216611e425760405162461bcd60e51b815260206004820152602160248201527f45524332303a206275726e2066726f6d20746865207a65726f206164647265736044820152607360f81b6064820152608401610ce1565b6001600160a01b03821660009081526020819052604090205481811015611eb65760405162461bcd60e51b815260206004820152602260248201527f45524332303a206275726e20616d6f756e7420657863656564732062616c616e604482015261636560f01b6064820152608401610ce1565b6001600160a01b0383166000818152602081815260408083208686039055600280548790039055518581529192917fddf252ad1be2c89b69c2b068fc378daa952ba7f163c4a11628f55a4df523b3ef910160405180910390a3505050565b6006547f0000000000000000000000000000000000000000000000000000000000000000906001600160a01b0390811690611f53908316873087612297565b6007546040516390c69fe360e01b8152600481018590526001600160a01b039091169081906390c69fe390602401602060405180830381865afa158015611f9e573d6000803e3d6000fd5b505050506040513d601f19601f82011682018060405250810190611fc29190612cce565b1561204f57600754611fe1906001600160a01b03858116911687612302565b604051634579c71760e01b81526001600160a01b0387811660048301526024820186905260448201879052821690634579c71790606401600060405180830381600087803b15801561203257600080fd5b505af1158015612046573d6000803e3d6000fd5b50505050612182565b6000826001600160a01b031663825dc0736040518163ffffffff1660e01b8152600401602060405180830381865afa15801561208f573d6000803e3d6000fd5b505050506040513d601f19601f820116820180604052508101906120b39190612ceb565b90506120c96001600160a01b0385168288612302565b60405163534a7e1d60e11b8152600481018790526001600160a01b0382169063a694fc3a90602401600060405180830381600087803b15801561210b57600080fd5b505af115801561211f573d6000803e3d6000fd5b50505050826001600160a01b03166374b573f26040518163ffffffff1660e01b8152600401600060405180830381600087803b15801561215e57600080fd5b505af1158015612172573d6000803e3d6000fd5b5050505061218087866123b4565b505b856001600160a01b0316876001600160a01b03167fdcbc1c05240f31ff3ad067ef1ee35ce4997762752e3a095284754544f4c709d787876040516121d0929190918252602082015260400190565b60405180910390a350505050505050565b6000806121ef868686612473565b9050600183600281111561220557612205612d08565b14801561222257506000848061221d5761221d612d1e565b868809115b1561223557612232600182612c1d565b90505b95945050505050565b6122488282611137565b610cf45761225581612522565b612260836020612534565b604051602001612271929190612d34565b60408051601f198184030181529082905262461bcd60e51b8252610ce191600401612913565b6040516001600160a01b03808516602483015283166044820152606481018290526110699085906323b872dd60e01b906084015b60408051601f198184030181529190526020810180516001600160e01b03166001600160e01b0319909316929092179091526126d0565b604051636eb1769f60e11b81523060048201526001600160a01b038381166024830152600091839186169063dd62ed3e90604401602060405180830381865afa158015612353573d6000803e3d6000fd5b505050506040513d601f19601f820116820180604052508101906123779190612bb4565b6123819190612c1d565b6040516001600160a01b03851660248201526044810182905290915061106990859063095ea7b360e01b906064016122cb565b6001600160a01b03821661240a5760405162461bcd60e51b815260206004820152601f60248201527f45524332303a206d696e7420746f20746865207a65726f2061646472657373006044820152606401610ce1565b806002600082825461241c9190612c1d565b90915550506001600160a01b038216600081815260208181526040808320805486019055518481527fddf252ad1be2c89b69c2b068fc378daa952ba7f163c4a11628f55a4df523b3ef910160405180910390a35050565b60008080600019858709858702925082811083820303915050806000036124ad578382816124a3576124a3612d1e565b0492505050610c44565b8084116124b957600080fd5b60008486880960026001871981018816978890046003810283188082028403028082028403028082028403028082028403028082028403029081029092039091026000889003889004909101858311909403939093029303949094049190911702949350505050565b6060610b5b6001600160a01b03831660145b60606000612543836002612da9565b61254e906002612c1d565b67ffffffffffffffff81111561256657612566612a6c565b6040519080825280601f01601f191660200182016040528015612590576020820181803683370190505b509050600360fc1b816000815181106125ab576125ab612c9f565b60200101906001600160f81b031916908160001a905350600f60fb1b816001815181106125da576125da612c9f565b60200101906001600160f81b031916908160001a90535060006125fe846002612da9565b612609906001612c1d565b90505b6001811115612681576f181899199a1a9b1b9c1cb0b131b232b360811b85600f166010811061263d5761263d612c9f565b1a60f81b82828151811061265357612653612c9f565b60200101906001600160f81b031916908160001a90535060049490941c9361267a81612dc0565b905061260c565b508315610c445760405162461bcd60e51b815260206004820181905260248201527f537472696e67733a20686578206c656e67746820696e73756666696369656e746044820152606401610ce1565b6000612725826040518060400160405280602081526020017f5361666545524332303a206c6f772d6c6576656c2063616c6c206661696c6564815250856001600160a01b03166127a29092919063ffffffff16565b805190915015610c7057808060200190518101906127439190612cce565b610c705760405162461bcd60e51b815260206004820152602a60248201527f5361666545524332303a204552433230206f7065726174696f6e20646964206e6044820152691bdd081cdd58d8d9595960b21b6064820152608401610ce1565b606061195b848460008585600080866001600160a01b031685876040516127c99190612dd7565b60006040518083038185875af1925050503d8060008114612806576040519150601f19603f3d011682016040523d82523d6000602084013e61280b565b606091505b509150915061281c87838387612827565b979650505050505050565b6060831561289657825160000361288f576001600160a01b0385163b61288f5760405162461bcd60e51b815260206004820152601d60248201527f416464726573733a2063616c6c20746f206e6f6e2d636f6e74726163740000006044820152606401610ce1565b508161195b565b61195b83838151156128ab5781518083602001fd5b8060405162461bcd60e51b8152600401610ce19190612913565b6000602082840312156128d757600080fd5b81356001600160e01b031981168114610c4457600080fd5b60005b8381101561290a5781810151838201526020016128f2565b50506000910152565b60208152600082518060208401526129328160408501602087016128ef565b601f01601f19169190910160400192915050565b60006020828403121561295857600080fd5b5035919050565b6001600160a01b0381168114610e9a57600080fd5b803561297f8161295f565b919050565b6000806040838503121561299757600080fd5b82356129a28161295f565b946020939093013593505050565b6000806000606084860312156129c557600080fd5b83356129d08161295f565b925060208401356129e08161295f565b929592945050506040919091013590565b60008060408385031215612a0457600080fd5b823591506020830135612a168161295f565b809150509250929050565b600060208284031215612a3357600080fd5b8135610c448161295f565b60008060408385031215612a5157600080fd5b8235612a5c8161295f565b91506020830135612a168161295f565b634e487b7160e01b600052604160045260246000fd5b60006020808385031215612a9557600080fd5b823567ffffffffffffffff80821115612aad57600080fd5b818501915085601f830112612ac157600080fd5b813581811115612ad357612ad3612a6c565b8060051b604051601f19603f83011681018181108582111715612af857612af8612a6c565b604052918252848201925083810185019188831115612b1657600080fd5b938501935b82851015612b3b57612b2c85612974565b84529385019392850192612b1b565b98975050505050505050565b8015158114610e9a57600080fd5b600060208284031215612b6757600080fd5b8135610c4481612b47565b600080600060608486031215612b8757600080fd5b833592506020840135612b998161295f565b91506040840135612ba98161295f565b809150509250925092565b600060208284031215612bc657600080fd5b5051919050565b600181811c90821680612be157607f821691505b602082108103612c0157634e487b7160e01b600052602260045260246000fd5b50919050565b634e487b7160e01b600052601160045260246000fd5b80820180821115610b5b57610b5b612c07565b602080825260149082015273494e56414c49445f5a45524f5f4144445245535360601b604082015260600190565b60208082526021908201527f434f4e54524143545f49535f4e4f545f46554c4c595f4f5045524154494f4e416040820152601360fa1b606082015260800190565b634e487b7160e01b600052603260045260246000fd5b600060018201612cc757612cc7612c07565b5060010190565b600060208284031215612ce057600080fd5b8151610c4481612b47565b600060208284031215612cfd57600080fd5b8151610c448161295f565b634e487b7160e01b600052602160045260246000fd5b634e487b7160e01b600052601260045260246000fd5b7f416363657373436f6e74726f6c3a206163636f756e7420000000000000000000815260008351612d6c8160178501602088016128ef565b7001034b99036b4b9b9b4b733903937b6329607d1b6017918401918201528351612d9d8160288401602088016128ef565b01602801949350505050565b8082028115828204841417610b5b57610b5b612c07565b600081612dcf57612dcf612c07565b506000190190565b60008251612de98184602087016128ef565b919091019291505056fe97667070c54ef182b0f5858b034beac1b6f3089aa2d3188bb1e8929f4fa9b929a49807205ce4d355092ef5a8a18f56e8913cf4a201fbe287825b095693c21775a264697066735822122090fc96956a98246de603cf34e9c10b21bbfd9d364e7401fa7940b2914c1c218b64736f6c63430008120033",
    "linkReferences": {}
  },
  "methodIdentifiers": {
    "ADMIN_ROLE()": "75b238fc",
    "DEFAULT_ADMIN_ROLE()": "a217fddf",
    "OPERATOR_ROLE()": "f5b541a6",
    "accountWhitelist(address)": "76a4f968",
    "allowance(address,address)": "dd62ed3e",
    "approve(address,uint256)": "095ea7b3",
    "asset()": "38d52e0f",
    "balanceOf(address)": "70a08231",
    "blacklistAccount(address)": "d37b34d7",
    "bulkBlacklistAccount(address[])": "807c7691",
    "bulkWhitelistAccount(address[])": "72caacf1",
    "burn(uint256)": "42966c68",
    "burnFrom(address,uint256)": "79cc6790",
    "convertToAssets(uint256)": "07a2d13a",
    "convertToShares(uint256)": "c6e6f592",
    "decimals()": "313ce567",
    "decreaseAllowance(address,uint256)": "a457c2d7",
    "deposit(uint256,address)": "6e553f65",
    "enforceWhitelist()": "b0957210",
    "fullyOperational()": "5ade1904",
    "getRoleAdmin(bytes32)": "248a9ca3",
    "getStAurPrice()": "3d4fc6a6",
    "grantRole(bytes32,address)": "2f2ff15d",
    "hasRole(bytes32,address)": "91d14854",
    "increaseAllowance(address,uint256)": "39509351",
    "initializeLiquidStaking(address,address)": "3c96dc2c",
    "isWhitelisted(address)": "3af32abf",
    "liquidityPool()": "665a11ca",
    "maxDeposit(address)": "402d267d",
    "maxMint(address)": "c63d75b6",
    "maxRedeem(address)": "d905777e",
    "maxWithdraw(address)": "ce96cb77",
    "minDepositAmount()": "645006ca",
    "mint(uint256,address)": "94bf804d",
    "name()": "06fdde03",
    "previewDeposit(uint256)": "ef8b30f7",
    "previewMint(uint256)": "b3d7f6b9",
    "previewRedeem(uint256)": "4cdad506",
    "previewWithdraw(uint256)": "0a28a477",
    "redeem(uint256,address,address)": "ba087652",
    "renounceRole(bytes32,address)": "36568abe",
    "revokeRole(bytes32,address)": "d547741f",
    "stakingManager()": "22828cc2",
    "supportsInterface(bytes4)": "01ffc9a7",
    "symbol()": "95d89b41",
    "totalAssets()": "01e1d114",
    "totalSupply()": "18160ddd",
    "transfer(address,uint256)": "a9059cbb",
    "transferFrom(address,address,uint256)": "23b872dd",
    "updateContractOperation(bool)": "a915277c",
    "updateEnforceWhitelist(bool)": "9c256276",
    "updateLiquidityPool(address)": "dd3cdf6c",
    "updateMinDepositAmount(uint256)": "84780205",
    "updateStakingManager(address)": "96a1b6b5",
    "whitelistAccount(address)": "63e0c2f8",
    "withdraw(uint256,address,address)": "b460af94"
  },
  "id": 2
}