{
  "abi": [
    {
      "anonymous": false,
      "inputs": [
        {
          "indexed": false,
          "internalType": "address",
          "name": "previousAdmin",
          "type": "address"
        },
        {
          "indexed": false,
          "internalType": "address",
          "name": "newAdmin",
          "type": "address"
        }
      ],
      "name": "AdminChanged",
      "type": "event"
    },
    {
      "anonymous": false,
      "inputs": [
        {
          "indexed": true,
          "internalType": "address",
          "name": "beacon",
          "type": "address"
        }
      ],
      "name": "BeaconUpgraded",
      "type": "event"
    },
    {
      "anonymous": false,
      "inputs": [
        {
          "indexed": false,
          "internalType": "uint8",
          "name": "version",
          "type": "uint8"
        }
      ],
      "name": "Initialized",
      "type": "event"
    },
    {
      "anonymous": false,
      "inputs": [
        {
          "indexed": true,
          "internalType": "bytes32",
          "name": "role",
          "type": "bytes32"
        },
        {
          "indexed": true,
          "internalType": "bytes32",
          "name": "previousAdminRole",
          "type": "bytes32"
        },
        {
          "indexed": true,
          "internalType": "bytes32",
          "name": "newAdminRole",
          "type": "bytes32"
        }
      ],
      "name": "RoleAdminChanged",
      "type": "event"
    },
    {
      "anonymous": false,
      "inputs": [
        {
          "indexed": true,
          "internalType": "bytes32",
          "name": "role",
          "type": "bytes32"
        },
        {
          "indexed": true,
          "internalType": "address",
          "name": "account",
          "type": "address"
        },
        {
          "indexed": true,
          "internalType": "address",
          "name": "sender",
          "type": "address"
        }
      ],
      "name": "RoleGranted",
      "type": "event"
    },
    {
      "anonymous": false,
      "inputs": [
        {
          "indexed": true,
          "internalType": "bytes32",
          "name": "role",
          "type": "bytes32"
        },
        {
          "indexed": true,
          "internalType": "address",
          "name": "account",
          "type": "address"
        },
        {
          "indexed": true,
          "internalType": "address",
          "name": "sender",
          "type": "address"
        }
      ],
      "name": "RoleRevoked",
      "type": "event"
    },
    {
      "anonymous": false,
      "inputs": [
        {
          "indexed": true,
          "internalType": "address",
          "name": "implementation",
          "type": "address"
        }
      ],
      "name": "Upgraded",
      "type": "event"
    },
    {
      "inputs": [],
      "name": "DEFAULT_ADMIN_ROLE",
      "outputs": [
        {
          "internalType": "bytes32",
          "name": "",
          "type": "bytes32"
        }
      ],
      "stateMutability": "view",
      "type": "function"
    },
    {
      "inputs": [],
      "name": "PAUSE_ROLE",
      "outputs": [
        {
          "internalType": "bytes32",
          "name": "",
          "type": "bytes32"
        }
      ],
      "stateMutability": "view",
      "type": "function"
    },
    {
      "inputs": [
        {
          "internalType": "address",
          "name": "target",
          "type": "address"
        },
        {
          "internalType": "bytes",
          "name": "data",
          "type": "bytes"
        }
      ],
      "name": "adminDelegatecall",
      "outputs": [
        {
          "internalType": "bytes",
          "name": "",
          "type": "bytes"
        }
      ],
      "stateMutability": "payable",
      "type": "function"
    },
    {
      "inputs": [
        {
          "internalType": "uint256",
          "name": "flags",
          "type": "uint256"
        }
      ],
      "name": "adminPause",
      "outputs": [],
      "stateMutability": "nonpayable",
      "type": "function"
    },
    {
      "inputs": [
        {
          "internalType": "uint256",
          "name": "key",
          "type": "uint256"
        },
        {
          "internalType": "uint256",
          "name": "value",
          "type": "uint256"
        }
      ],
      "name": "adminSstore",
      "outputs": [],
      "stateMutability": "nonpayable",
      "type": "function"
    },
    {
      "inputs": [
        {
          "internalType": "uint256",
          "name": "key",
          "type": "uint256"
        },
        {
          "internalType": "uint256",
          "name": "value",
          "type": "uint256"
        },
        {
          "internalType": "uint256",
          "name": "mask",
          "type": "uint256"
        }
      ],
      "name": "adminSstoreWithMask",
      "outputs": [],
      "stateMutability": "nonpayable",
      "type": "function"
    },
    {
      "inputs": [
        {
          "internalType": "bytes32",
          "name": "role",
          "type": "bytes32"
        }
      ],
      "name": "getRoleAdmin",
      "outputs": [
        {
          "internalType": "bytes32",
          "name": "",
          "type": "bytes32"
        }
      ],
      "stateMutability": "view",
      "type": "function"
    },
    {
      "inputs": [
        {
          "internalType": "bytes32",
          "name": "role",
          "type": "bytes32"
        },
        {
          "internalType": "address",
          "name": "account",
          "type": "address"
        }
      ],
      "name": "grantRole",
      "outputs": [],
      "stateMutability": "nonpayable",
      "type": "function"
    },
    {
      "inputs": [
        {
          "internalType": "bytes32",
          "name": "role",
          "type": "bytes32"
        },
        {
          "internalType": "address",
          "name": "account",
          "type": "address"
        }
      ],
      "name": "hasRole",
      "outputs": [
        {
          "internalType": "bool",
          "name": "",
          "type": "bool"
        }
      ],
      "stateMutability": "view",
      "type": "function"
    },
    {
      "inputs": [],
      "name": "paused",
      "outputs": [
        {
          "internalType": "uint256",
          "name": "",
          "type": "uint256"
        }
      ],
      "stateMutability": "view",
      "type": "function"
    },
    {
      "inputs": [],
      "name": "proxiableUUID",
      "outputs": [
        {
          "internalType": "bytes32",
          "name": "",
          "type": "bytes32"
        }
      ],
      "stateMutability": "view",
      "type": "function"
    },
    {
      "inputs": [
        {
          "internalType": "bytes32",
          "name": "role",
          "type": "bytes32"
        },
        {
          "internalType": "address",
          "name": "account",
          "type": "address"
        }
      ],
      "name": "renounceRole",
      "outputs": [],
      "stateMutability": "nonpayable",
      "type": "function"
    },
    {
      "inputs": [
        {
          "internalType": "bytes32",
          "name": "role",
          "type": "bytes32"
        },
        {
          "internalType": "address",
          "name": "account",
          "type": "address"
        }
      ],
      "name": "revokeRole",
      "outputs": [],
      "stateMutability": "nonpayable",
      "type": "function"
    },
    {
      "inputs": [
        {
          "internalType": "bytes4",
          "name": "interfaceId",
          "type": "bytes4"
        }
      ],
      "name": "supportsInterface",
      "outputs": [
        {
          "internalType": "bool",
          "name": "",
          "type": "bool"
        }
      ],
      "stateMutability": "view",
      "type": "function"
    },
    {
      "inputs": [
        {
          "internalType": "address",
          "name": "newImplementation",
          "type": "address"
        }
      ],
      "name": "upgradeTo",
      "outputs": [],
      "stateMutability": "nonpayable",
      "type": "function"
    },
    {
      "inputs": [
        {
          "internalType": "address",
          "name": "newImplementation",
          "type": "address"
        },
        {
          "internalType": "bytes",
          "name": "data",
          "type": "bytes"
        }
      ],
      "name": "upgradeToAndCall",
      "outputs": [],
      "stateMutability": "payable",
      "type": "function"
    }
  ],
  "bytecode": {
    "object": "0x60a06040523060805234801561001457600080fd5b5060805161132761004c60003960008181610496015281816104d601528181610575015281816105b5015261064401526113276000f3fe6080604052600436106100f35760003560e01c806352d1902d1161008a578063a217fddf11610059578063a217fddf1461029f578063b8e9744c146102b4578063be831a2e146102d4578063d547741f146102f457600080fd5b806352d1902d146102345780635c975abb146102495780636c4624c31461025f57806391d148541461027f57600080fd5b806336568abe116100c657806336568abe146101ad5780633659cfe6146101cd578063389ed267146101ed5780634f1ef2861461022157600080fd5b806301ffc9a7146100f8578063248a9ca31461012d5780632692c59f1461016b5780632f2ff15d1461018d575b600080fd5b34801561010457600080fd5b50610118610113366004610ecc565b610314565b60405190151581526020015b60405180910390f35b34801561013957600080fd5b5061015d610148366004610ef6565b600090815260c9602052604090206001015490565b604051908152602001610124565b34801561017757600080fd5b5061018b610186366004610ef6565b61034b565b005b34801561019957600080fd5b5061018b6101a8366004610f2b565b6103e4565b3480156101b957600080fd5b5061018b6101c8366004610f2b565b61040e565b3480156101d957600080fd5b5061018b6101e8366004610f57565b61048c565b3480156101f957600080fd5b5061015d7f139c2898040ef16910dc9f44dc697df79363da767d8bc92f2e310312b816e46d81565b61018b61022f366004610f88565b61056b565b34801561024057600080fd5b5061015d610637565b34801561025557600080fd5b5061015d60fb5481565b34801561026b57600080fd5b5061018b61027a36600461104a565b6106ea565b34801561028b57600080fd5b5061011861029a366004610f2b565b610701565b3480156102ab57600080fd5b5061015d600081565b6102c76102c2366004610f88565b61072c565b60405161012491906110c6565b3480156102e057600080fd5b5061018b6102ef3660046110d9565b6107f1565b34801561030057600080fd5b5061018b61030f366004610f2b565b610801565b60006001600160e01b03198216637965db0b60e01b148061034557506301ffc9a760e01b6001600160e01b03198316145b92915050565b7f139c2898040ef16910dc9f44dc697df79363da767d8bc92f2e310312b816e46d61037581610826565b60fb54828116148061038d575061038d600033610701565b6103de5760405162461bcd60e51b815260206004820152601e60248201527f4f4e4c595f44454641554c545f41444d494e5f43414e5f554e5041555345000060448201526064015b60405180910390fd5b5060fb55565b600082815260c960205260409020600101546103ff81610826565b6104098383610830565b505050565b6001600160a01b038116331461047e5760405162461bcd60e51b815260206004820152602f60248201527f416363657373436f6e74726f6c3a2063616e206f6e6c792072656e6f756e636560448201526e103937b632b9903337b91039b2b63360891b60648201526084016103d5565b61048882826108b6565b5050565b6001600160a01b037f00000000000000000000000000000000000000000000000000000000000000001630036104d45760405162461bcd60e51b81526004016103d5906110fb565b7f00000000000000000000000000000000000000000000000000000000000000006001600160a01b031661051d6000805160206112ab833981519152546001600160a01b031690565b6001600160a01b0316146105435760405162461bcd60e51b81526004016103d590611147565b61054c8161091d565b6040805160008082526020820190925261056891839190610928565b50565b6001600160a01b037f00000000000000000000000000000000000000000000000000000000000000001630036105b35760405162461bcd60e51b81526004016103d5906110fb565b7f00000000000000000000000000000000000000000000000000000000000000006001600160a01b03166105fc6000805160206112ab833981519152546001600160a01b031690565b6001600160a01b0316146106225760405162461bcd60e51b81526004016103d590611147565b61062b8261091d565b61048882826001610928565b6000306001600160a01b037f000000000000000000000000000000000000000000000000000000000000000016146106d75760405162461bcd60e51b815260206004820152603860248201527f555550535570677261646561626c653a206d757374206e6f742062652063616c60448201527f6c6564207468726f7567682064656c656761746563616c6c000000000000000060648201526084016103d5565b506000805160206112ab83398151915290565b60006106f581610826565b50825491821816189055565b600091825260c9602090815260408084206001600160a01b0393909316845291905290205460ff1690565b6060600061073981610826565b6001600160a01b03841661077e5760405162461bcd60e51b815260206004820152600c60248201526b5a45524f5f4144445245535360a01b60448201526064016103d5565b600080856001600160a01b0316856040516107999190611193565b600060405180830381855af49150503d80600081146107d4576040519150601f19603f3d011682016040523d82523d6000602084013e6107d9565b606091505b5091509150816107e857600080fd5b95945050505050565b60006107fc81610826565b509055565b600082815260c9602052604090206001015461081c81610826565b61040983836108b6565b6105688133610a93565b61083a8282610701565b61048857600082815260c9602090815260408083206001600160a01b03851684529091529020805460ff191660011790556108723390565b6001600160a01b0316816001600160a01b0316837f2f8788117e7eff1d82e926ec794901d17c78024a50270940304540a733656f0d60405160405180910390a45050565b6108c08282610701565b1561048857600082815260c9602090815260408083206001600160a01b0385168085529252808320805460ff1916905551339285917ff6391f5c32d9c69d2a47ea670b442974b53935d1edc7fd64eb21e047a839171b9190a45050565b600061048881610826565b7f4910fdfa16fed3260ed0e7147f7cc6da11a60208b5b9406d12a635614ffd91435460ff161561095b5761040983610aec565b826001600160a01b03166352d1902d6040518163ffffffff1660e01b8152600401602060405180830381865afa9250505080156109b5575060408051601f3d908101601f191682019092526109b2918101906111af565b60015b610a185760405162461bcd60e51b815260206004820152602e60248201527f45524331393637557067726164653a206e657720696d706c656d656e7461746960448201526d6f6e206973206e6f74205555505360901b60648201526084016103d5565b6000805160206112ab8339815191528114610a875760405162461bcd60e51b815260206004820152602960248201527f45524331393637557067726164653a20756e737570706f727465642070726f786044820152681a58589b195555525160ba1b60648201526084016103d5565b50610409838383610b88565b610a9d8282610701565b61048857610aaa81610bb3565b610ab5836020610bc5565b604051602001610ac69291906111c8565b60408051601f198184030181529082905262461bcd60e51b82526103d5916004016110c6565b6001600160a01b0381163b610b595760405162461bcd60e51b815260206004820152602d60248201527f455243313936373a206e657720696d706c656d656e746174696f6e206973206e60448201526c1bdd08184818dbdb9d1c9858dd609a1b60648201526084016103d5565b6000805160206112ab83398151915280546001600160a01b0319166001600160a01b0392909216919091179055565b610b9183610d68565b600082511180610b9e5750805b1561040957610bad8383610da8565b50505050565b60606103456001600160a01b03831660145b60606000610bd4836002611253565b610bdf90600261126a565b67ffffffffffffffff811115610bf757610bf7610f72565b6040519080825280601f01601f191660200182016040528015610c21576020820181803683370190505b509050600360fc1b81600081518110610c3c57610c3c61127d565b60200101906001600160f81b031916908160001a905350600f60fb1b81600181518110610c6b57610c6b61127d565b60200101906001600160f81b031916908160001a9053506000610c8f846002611253565b610c9a90600161126a565b90505b6001811115610d12576f181899199a1a9b1b9c1cb0b131b232b360811b85600f1660108110610cce57610cce61127d565b1a60f81b828281518110610ce457610ce461127d565b60200101906001600160f81b031916908160001a90535060049490941c93610d0b81611293565b9050610c9d565b508315610d615760405162461bcd60e51b815260206004820181905260248201527f537472696e67733a20686578206c656e67746820696e73756666696369656e7460448201526064016103d5565b9392505050565b610d7181610aec565b6040516001600160a01b038216907fbc7cd75a20ee27fd9adebab32041f755214dbc6bffa90cc0225b39da2e5c2d3b90600090a250565b60606001600160a01b0383163b610e105760405162461bcd60e51b815260206004820152602660248201527f416464726573733a2064656c65676174652063616c6c20746f206e6f6e2d636f6044820152651b9d1c9858dd60d21b60648201526084016103d5565b600080846001600160a01b031684604051610e2b9190611193565b600060405180830381855af49150503d8060008114610e66576040519150601f19603f3d011682016040523d82523d6000602084013e610e6b565b606091505b50915091506107e882826040518060600160405280602781526020016112cb6027913960608315610e9d575081610d61565b610d618383815115610eb25781518083602001fd5b8060405162461bcd60e51b81526004016103d591906110c6565b600060208284031215610ede57600080fd5b81356001600160e01b031981168114610d6157600080fd5b600060208284031215610f0857600080fd5b5035919050565b80356001600160a01b0381168114610f2657600080fd5b919050565b60008060408385031215610f3e57600080fd5b82359150610f4e60208401610f0f565b90509250929050565b600060208284031215610f6957600080fd5b610d6182610f0f565b634e487b7160e01b600052604160045260246000fd5b60008060408385031215610f9b57600080fd5b610fa483610f0f565b9150602083013567ffffffffffffffff80821115610fc157600080fd5b818501915085601f830112610fd557600080fd5b813581811115610fe757610fe7610f72565b604051601f8201601f19908116603f0116810190838211818310171561100f5761100f610f72565b8160405282815288602084870101111561102857600080fd5b8260208601602083013760006020848301015280955050505050509250929050565b60008060006060848603121561105f57600080fd5b505081359360208301359350604090920135919050565b60005b83811015611091578181015183820152602001611079565b50506000910152565b600081518084526110b2816020860160208601611076565b601f01601f19169290920160200192915050565b602081526000610d61602083018461109a565b600080604083850312156110ec57600080fd5b50508035926020909101359150565b6020808252602c908201527f46756e6374696f6e206d7573742062652063616c6c6564207468726f7567682060408201526b19195b1959d85d1958d85b1b60a21b606082015260800190565b6020808252602c908201527f46756e6374696f6e206d7573742062652063616c6c6564207468726f7567682060408201526b6163746976652070726f787960a01b606082015260800190565b600082516111a5818460208701611076565b9190910192915050565b6000602082840312156111c157600080fd5b5051919050565b7f416363657373436f6e74726f6c3a206163636f756e7420000000000000000000815260008351611200816017850160208801611076565b7001034b99036b4b9b9b4b733903937b6329607d1b6017918401918201528351611231816028840160208801611076565b01602801949350505050565b634e487b7160e01b600052601160045260246000fd5b80820281158282048414176103455761034561123d565b808201808211156103455761034561123d565b634e487b7160e01b600052603260045260246000fd5b6000816112a2576112a261123d565b50600019019056fe360894a13ba1a3210667c828492db98dca3e2076cc3735a920a3ca505d382bbc416464726573733a206c6f772d6c6576656c2064656c65676174652063616c6c206661696c6564a264697066735822122017224519e91048c64c7c7893ca30ccda279b727ec0e452cc486faebf10507e9464736f6c63430008120033",
    "linkReferences": {}
  },
  "methodIdentifiers": {
    "DEFAULT_ADMIN_ROLE()": "a217fddf",
    "PAUSE_ROLE()": "389ed267",
    "adminDelegatecall(address,bytes)": "b8e9744c",
    "adminPause(uint256)": "2692c59f",
    "adminSstore(uint256,uint256)": "be831a2e",
    "adminSstoreWithMask(uint256,uint256,uint256)": "6c4624c3",
    "getRoleAdmin(bytes32)": "248a9ca3",
    "grantRole(bytes32,address)": "2f2ff15d",
    "hasRole(bytes32,address)": "91d14854",
    "paused()": "5c975abb",
    "proxiableUUID()": "52d1902d",
    "renounceRole(bytes32,address)": "36568abe",
    "revokeRole(bytes32,address)": "d547741f",
    "supportsInterface(bytes4)": "01ffc9a7",
    "upgradeTo(address)": "3659cfe6",
    "upgradeToAndCall(address,bytes)": "4f1ef286"
  },
  "id": 10
}