{
  "abi": [
    {
      "inputs": [
        {
          "internalType": "address",
          "name": "_stAurVault",
          "type": "address"
        },
        {
          "internalType": "address",
          "name": "_auroraStaking",
          "type": "address"
        },
        {
          "internalType": "address",
          "name": "_contractOperatorRole",
          "type": "address"
        },
        {
          "internalType": "uint256",
          "name": "_maxWithdrawOrders",
          "type": "uint256"
        },
        {
          "internalType": "uint256",
          "name": "_maxDepositors",
          "type": "uint256"
        }
      ],
      "stateMutability": "nonpayable",
      "type": "constructor"
    },
    {
      "anonymous": false,
      "inputs": [
        {
          "indexed": true,
          "internalType": "address",
          "name": "_caller",
          "type": "address"
        },
        {
          "indexed": true,
          "internalType": "address",
          "name": "_receiver",
          "type": "address"
        },
        {
          "indexed": true,
          "internalType": "address",
          "name": "_owner",
          "type": "address"
        },
        {
          "indexed": false,
          "internalType": "uint256",
          "name": "_assets",
          "type": "uint256"
        }
      ],
      "name": "AltWithdraw",
      "type": "event"
    },
    {
      "anonymous": false,
      "inputs": [
        {
          "indexed": false,
          "internalType": "uint256",
          "name": "_nextCleanTimestamp",
          "type": "uint256"
        }
      ],
      "name": "CleanOrdersQueue",
      "type": "event"
    },
    {
      "anonymous": false,
      "inputs": [
        {
          "indexed": false,
          "internalType": "uint256",
          "name": "_maxDepositors",
          "type": "uint256"
        },
        {
          "indexed": false,
          "internalType": "address",
          "name": "_sender",
          "type": "address"
        }
      ],
      "name": "MaxDepositorsUpdate",
      "type": "event"
    },
    {
      "anonymous": false,
      "inputs": [
        {
          "indexed": false,
          "internalType": "uint256",
          "name": "_maxWithdrawOrders",
          "type": "uint256"
        },
        {
          "indexed": false,
          "internalType": "address",
          "name": "_sender",
          "type": "address"
        }
      ],
      "name": "MaxWithdrawOrdersUpdate",
      "type": "event"
    },
    {
      "anonymous": false,
      "inputs": [
        {
          "indexed": false,
          "internalType": "address",
          "name": "_depositor",
          "type": "address"
        },
        {
          "indexed": false,
          "internalType": "address",
          "name": "_sender",
          "type": "address"
        }
      ],
      "name": "NewDepositorAdded",
      "type": "event"
    },
    {
      "anonymous": false,
      "inputs": [
        {
          "indexed": true,
          "internalType": "bytes32",
          "name": "role",
          "type": "bytes32"
        },
        {
          "indexed": true,
          "internalType": "bytes32",
          "name": "previousAdminRole",
          "type": "bytes32"
        },
        {
          "indexed": true,
          "internalType": "bytes32",
          "name": "newAdminRole",
          "type": "bytes32"
        }
      ],
      "name": "RoleAdminChanged",
      "type": "event"
    },
    {
      "anonymous": false,
      "inputs": [
        {
          "indexed": true,
          "internalType": "bytes32",
          "name": "role",
          "type": "bytes32"
        },
        {
          "indexed": true,
          "internalType": "address",
          "name": "account",
          "type": "address"
        },
        {
          "indexed": true,
          "internalType": "address",
          "name": "sender",
          "type": "address"
        }
      ],
      "name": "RoleGranted",
      "type": "event"
    },
    {
      "anonymous": false,
      "inputs": [
        {
          "indexed": true,
          "internalType": "bytes32",
          "name": "role",
          "type": "bytes32"
        },
        {
          "indexed": true,
          "internalType": "address",
          "name": "account",
          "type": "address"
        },
        {
          "indexed": true,
          "internalType": "address",
          "name": "sender",
          "type": "address"
        }
      ],
      "name": "RoleRevoked",
      "type": "event"
    },
    {
      "anonymous": false,
      "inputs": [
        {
          "indexed": false,
          "internalType": "bool",
          "name": "_isProcessStopped",
          "type": "bool"
        },
        {
          "indexed": false,
          "internalType": "address",
          "name": "_sender",
          "type": "address"
        }
      ],
      "name": "UpdateProcessWithdrawOrders",
      "type": "event"
    },
    {
      "inputs": [],
      "name": "ADMIN_ROLE",
      "outputs": [
        {
          "internalType": "bytes32",
          "name": "",
          "type": "bytes32"
        }
      ],
      "stateMutability": "view",
      "type": "function"
    },
    {
      "inputs": [],
      "name": "DEFAULT_ADMIN_ROLE",
      "outputs": [
        {
          "internalType": "bytes32",
          "name": "",
          "type": "bytes32"
        }
      ],
      "stateMutability": "view",
      "type": "function"
    },
    {
      "inputs": [],
      "name": "OPERATOR_ROLE",
      "outputs": [
        {
          "internalType": "bytes32",
          "name": "",
          "type": "bytes32"
        }
      ],
      "stateMutability": "view",
      "type": "function"
    },
    {
      "inputs": [],
      "name": "SAFETY_BUFFER",
      "outputs": [
        {
          "internalType": "uint256",
          "name": "",
          "type": "uint256"
        }
      ],
      "stateMutability": "view",
      "type": "function"
    },
    {
      "inputs": [
        {
          "internalType": "uint256",
          "name": "_assets",
          "type": "uint256"
        },
        {
          "internalType": "address",
          "name": "_receiver",
          "type": "address"
        }
      ],
      "name": "alternativeWithdraw",
      "outputs": [],
      "stateMutability": "nonpayable",
      "type": "function"
    },
    {
      "inputs": [],
      "name": "auroraStaking",
      "outputs": [
        {
          "internalType": "address",
          "name": "",
          "type": "address"
        }
      ],
      "stateMutability": "view",
      "type": "function"
    },
    {
      "inputs": [],
      "name": "auroraToken",
      "outputs": [
        {
          "internalType": "address",
          "name": "",
          "type": "address"
        }
      ],
      "stateMutability": "view",
      "type": "function"
    },
    {
      "inputs": [
        {
          "internalType": "uint256",
          "name": "_maxDepositors",
          "type": "uint256"
        }
      ],
      "name": "changeMaxDepositors",
      "outputs": [],
      "stateMutability": "nonpayable",
      "type": "function"
    },
    {
      "inputs": [
        {
          "internalType": "uint256",
          "name": "_maxWithdrawOrders",
          "type": "uint256"
        }
      ],
      "name": "changeMaxWithdrawOrders",
      "outputs": [],
      "stateMutability": "nonpayable",
      "type": "function"
    },
    {
      "inputs": [],
      "name": "cleanOrdersQueue",
      "outputs": [],
      "stateMutability": "nonpayable",
      "type": "function"
    },
    {
      "inputs": [
        {
          "internalType": "uint256",
          "name": "_assets",
          "type": "uint256"
        },
        {
          "internalType": "address",
          "name": "_receiver",
          "type": "address"
        }
      ],
      "name": "createWithdrawOrder",
      "outputs": [],
      "stateMutability": "nonpayable",
      "type": "function"
    },
    {
      "inputs": [
        {
          "internalType": "address",
          "name": "_depositor",
          "type": "address"
        }
      ],
      "name": "depositorExists",
      "outputs": [
        {
          "internalType": "bool",
          "name": "",
          "type": "bool"
        }
      ],
      "stateMutability": "view",
      "type": "function"
    },
    {
      "inputs": [
        {
          "internalType": "uint256",
          "name": "",
          "type": "uint256"
        }
      ],
      "name": "depositors",
      "outputs": [
        {
          "internalType": "address",
          "name": "",
          "type": "address"
        }
      ],
      "stateMutability": "view",
      "type": "function"
    },
    {
      "inputs": [
        {
          "internalType": "address",
          "name": "_account",
          "type": "address"
        }
      ],
      "name": "getAvailableAssets",
      "outputs": [
        {
          "internalType": "uint256",
          "name": "",
          "type": "uint256"
        }
      ],
      "stateMutability": "view",
      "type": "function"
    },
    {
      "inputs": [
        {
          "internalType": "bool",
          "name": "_isWithdrawOrder",
          "type": "bool"
        }
      ],
      "name": "getAvailableTimestamp",
      "outputs": [
        {
          "internalType": "uint256",
          "name": "",
          "type": "uint256"
        }
      ],
      "stateMutability": "view",
      "type": "function"
    },
    {
      "inputs": [
        {
          "internalType": "address",
          "name": "_depositor",
          "type": "address"
        }
      ],
      "name": "getDepositorShares",
      "outputs": [
        {
          "internalType": "uint256",
          "name": "",
          "type": "uint256"
        }
      ],
      "stateMutability": "view",
      "type": "function"
    },
    {
      "inputs": [],
      "name": "getDepositorsLength",
      "outputs": [
        {
          "internalType": "uint256",
          "name": "",
          "type": "uint256"
        }
      ],
      "stateMutability": "view",
      "type": "function"
    },
    {
      "inputs": [
        {
          "internalType": "address",
          "name": "_account",
          "type": "address"
        }
      ],
      "name": "getPendingOrderAssets",
      "outputs": [
        {
          "internalType": "uint256",
          "name": "",
          "type": "uint256"
        }
      ],
      "stateMutability": "view",
      "type": "function"
    },
    {
      "inputs": [
        {
          "internalType": "bytes32",
          "name": "role",
          "type": "bytes32"
        }
      ],
      "name": "getRoleAdmin",
      "outputs": [
        {
          "internalType": "bytes32",
          "name": "",
          "type": "bytes32"
        }
      ],
      "stateMutability": "view",
      "type": "function"
    },
    {
      "inputs": [
        {
          "internalType": "address",
          "name": "_depositor",
          "type": "address"
        }
      ],
      "name": "getTotalAssetsFromDepositor",
      "outputs": [
        {
          "internalType": "uint256",
          "name": "",
          "type": "uint256"
        }
      ],
      "stateMutability": "view",
      "type": "function"
    },
    {
      "inputs": [],
      "name": "getTotalAssetsFromDepositors",
      "outputs": [
        {
          "internalType": "uint256",
          "name": "",
          "type": "uint256"
        }
      ],
      "stateMutability": "view",
      "type": "function"
    },
    {
      "inputs": [],
      "name": "getTotalPendingOrders",
      "outputs": [
        {
          "internalType": "uint256",
          "name": "",
          "type": "uint256"
        }
      ],
      "stateMutability": "view",
      "type": "function"
    },
    {
      "inputs": [],
      "name": "getTotalWithdrawOrders",
      "outputs": [
        {
          "internalType": "uint256",
          "name": "",
          "type": "uint256"
        }
      ],
      "stateMutability": "view",
      "type": "function"
    },
    {
      "inputs": [
        {
          "internalType": "address",
          "name": "_account",
          "type": "address"
        }
      ],
      "name": "getWithdrawOrderAssets",
      "outputs": [
        {
          "internalType": "uint256",
          "name": "",
          "type": "uint256"
        }
      ],
      "stateMutability": "view",
      "type": "function"
    },
    {
      "inputs": [
        {
          "internalType": "bytes32",
          "name": "role",
          "type": "bytes32"
        },
        {
          "internalType": "address",
          "name": "account",
          "type": "address"
        }
      ],
      "name": "grantRole",
      "outputs": [],
      "stateMutability": "nonpayable",
      "type": "function"
    },
    {
      "inputs": [
        {
          "internalType": "bytes32",
          "name": "role",
          "type": "bytes32"
        },
        {
          "internalType": "address",
          "name": "account",
          "type": "address"
        }
      ],
      "name": "hasRole",
      "outputs": [
        {
          "internalType": "bool",
          "name": "",
          "type": "bool"
        }
      ],
      "stateMutability": "view",
      "type": "function"
    },
    {
      "inputs": [
        {
          "internalType": "address",
          "name": "_depositor",
          "type": "address"
        }
      ],
      "name": "insertDepositor",
      "outputs": [],
      "stateMutability": "nonpayable",
      "type": "function"
    },
    {
      "inputs": [],
      "name": "nextCleanOrderQueue",
      "outputs": [
        {
          "internalType": "uint256",
          "name": "",
          "type": "uint256"
        }
      ],
      "stateMutability": "view",
      "type": "function"
    },
    {
      "inputs": [],
      "name": "nextDepositor",
      "outputs": [
        {
          "internalType": "address",
          "name": "",
          "type": "address"
        }
      ],
      "stateMutability": "view",
      "type": "function"
    },
    {
      "inputs": [
        {
          "internalType": "bytes32",
          "name": "role",
          "type": "bytes32"
        },
        {
          "internalType": "address",
          "name": "account",
          "type": "address"
        }
      ],
      "name": "renounceRole",
      "outputs": [],
      "stateMutability": "nonpayable",
      "type": "function"
    },
    {
      "inputs": [
        {
          "internalType": "bytes32",
          "name": "role",
          "type": "bytes32"
        },
        {
          "internalType": "address",
          "name": "account",
          "type": "address"
        }
      ],
      "name": "revokeRole",
      "outputs": [],
      "stateMutability": "nonpayable",
      "type": "function"
    },
    {
      "inputs": [],
      "name": "setNextDepositor",
      "outputs": [],
      "stateMutability": "nonpayable",
      "type": "function"
    },
    {
      "inputs": [],
      "name": "stAurVault",
      "outputs": [
        {
          "internalType": "address",
          "name": "",
          "type": "address"
        }
      ],
      "stateMutability": "view",
      "type": "function"
    },
    {
      "inputs": [
        {
          "internalType": "bool",
          "name": "_isProcessStopped",
          "type": "bool"
        }
      ],
      "name": "stopProcessingWithdrawOrders",
      "outputs": [],
      "stateMutability": "nonpayable",
      "type": "function"
    },
    {
      "inputs": [],
      "name": "stopWithdrawOrders",
      "outputs": [
        {
          "internalType": "bool",
          "name": "",
          "type": "bool"
        }
      ],
      "stateMutability": "view",
      "type": "function"
    },
    {
      "inputs": [
        {
          "internalType": "bytes4",
          "name": "interfaceId",
          "type": "bytes4"
        }
      ],
      "name": "supportsInterface",
      "outputs": [
        {
          "internalType": "bool",
          "name": "",
          "type": "bool"
        }
      ],
      "stateMutability": "view",
      "type": "function"
    },
    {
      "inputs": [],
      "name": "totalAssets",
      "outputs": [
        {
          "internalType": "uint256",
          "name": "",
          "type": "uint256"
        }
      ],
      "stateMutability": "view",
      "type": "function"
    },
    {
      "inputs": [],
      "name": "totalWithdrawInQueue",
      "outputs": [
        {
          "internalType": "uint256",
          "name": "",
          "type": "uint256"
        }
      ],
      "stateMutability": "view",
      "type": "function"
    },
    {
      "inputs": [
        {
          "internalType": "address",
          "name": "_receiver",
          "type": "address"
        },
        {
          "internalType": "address",
          "name": "_owner",
          "type": "address"
        },
        {
          "internalType": "uint256",
          "name": "_assets",
          "type": "uint256"
        }
      ],
      "name": "transferAurora",
      "outputs": [],
      "stateMutability": "nonpayable",
      "type": "function"
    },
    {
      "stateMutability": "payable",
      "type": "receive"
    }
  ],
  "bytecode": {
    "object": "0x60e06040523480156200001157600080fd5b506040516200293b3803806200293b83398101604081905262000034916200027b565b6001600160a01b038516158015906200005557506001600160a01b03841615155b80156200006a57506001600160a01b03831615155b620000bb5760405162461bcd60e51b815260206004820152601460248201527f494e56414c49445f5a45524f5f41444452455353000000000000000000000000604482015260640160405180910390fd5b6001600160a01b03808616608081905290851660c052604080516338d52e0f60e01b815290516338d52e0f916004808201926020929091908290030181865afa1580156200010d573d6000803e3d6000fd5b505050506040513d601f19601f82011682018060405250810190620001339190620002d8565b6001600160a01b031660a052600c829055600d81905542600255620001797fa49807205ce4d355092ef5a8a18f56e8913cf4a201fbe287825b095693c2177533620001bd565b62000186600033620001bd565b620001b27f97667070c54ef182b0f5858b034beac1b6f3089aa2d3188bb1e8929f4fa9b92984620001bd565b5050505050620002fd565b6000828152602081815260408083206001600160a01b038516845290915290205460ff166200025a576000828152602081815260408083206001600160a01b03851684529091529020805460ff19166001179055620002193390565b6001600160a01b0316816001600160a01b0316837f2f8788117e7eff1d82e926ec794901d17c78024a50270940304540a733656f0d60405160405180910390a45b5050565b80516001600160a01b03811681146200027657600080fd5b919050565b600080600080600060a086880312156200029457600080fd5b6200029f866200025e565b9450620002af602087016200025e565b9350620002bf604087016200025e565b6060870151608090970151959894975095949392505050565b600060208284031215620002eb57600080fd5b620002f6826200025e565b9392505050565b60805160a05160c0516125d662000365600039600081816103de0152818161137c015281816115ad0152611aa70152600081816104610152611c2601526000818161037c01528181610a1001528181610fe60152818161115f01526112e301526125d66000f3fe6080604052600436106102345760003560e01c806375b238fc1161012e578063c02d3f22116100ab578063e2f32def1161006f578063e2f32def146106d7578063e4b2fb79146106f7578063e979157b14610717578063f5b541a614610737578063f7ae5c761461076b57600080fd5b8063c02d3f2214610637578063c536e16a14610657578063cac2589714610677578063d2239e0414610697578063d547741f146106b757600080fd5b8063a217fddf116100f2578063a217fddf1461058c578063a3c18c9b146105a1578063a512e06a146105c1578063a6c52882146105f7578063b7f30a511461061757600080fd5b806375b238fc146104e35780637f8523b114610517578063825dc0731461052c5780638b2741b21461054c57806391d148541461056c57600080fd5b8063367c98b8116101bc5780634b9b1e24116101805780634b9b1e24146104355780635578fdb21461044f57806360cd09021461048357806369d9446a146104b957806374b573f2146104ce57600080fd5b8063367c98b81461036a57806340c19663146103b657806346e90fa6146103cc578063481e730e146104005780634aa853fc1461041557600080fd5b80630ef7fb67116102035780630ef7fb67146102cd578063248a9ca3146102e35780632f2ff15d146103135780632fea20f61461033557806336568abe1461034a57600080fd5b806301e1d1141461024057806301ffc9a714610268578063048b7c151461029857806308ee04f0146102b857600080fd5b3661023b57005b600080fd5b34801561024c57600080fd5b50610255610781565b6040519081526020015b60405180910390f35b34801561027457600080fd5b506102886102833660046121b2565b61079d565b604051901515815260200161025f565b3480156102a457600080fd5b506102886102b33660046121f1565b6107d4565b3480156102c457600080fd5b5061025561084a565b3480156102d957600080fd5b50610255610e1081565b3480156102ef57600080fd5b506102556102fe36600461220e565b60009081526020819052604090206001015490565b34801561031f57600080fd5b5061033361032e366004612227565b6108e0565b005b34801561034157600080fd5b50600354610255565b34801561035657600080fd5b50610333610365366004612227565b61090a565b34801561037657600080fd5b5061039e7f000000000000000000000000000000000000000000000000000000000000000081565b6040516001600160a01b03909116815260200161025f565b3480156103c257600080fd5b5061025560085481565b3480156103d857600080fd5b5061039e7f000000000000000000000000000000000000000000000000000000000000000081565b34801561040c57600080fd5b50600754610255565b34801561042157600080fd5b50610333610430366004612265565b61098d565b34801561044157600080fd5b506001546102889060ff1681565b34801561045b57600080fd5b5061039e7f000000000000000000000000000000000000000000000000000000000000000081565b34801561048f57600080fd5b5061025561049e3660046121f1565b6001600160a01b03166000908152600b602052604090205490565b3480156104c557600080fd5b50600a54610255565b3480156104da57600080fd5b50610333610a05565b3480156104ef57600080fd5b506102557fa49807205ce4d355092ef5a8a18f56e8913cf4a201fbe287825b095693c2177581565b34801561052357600080fd5b50610333610b62565b34801561053857600080fd5b5060045461039e906001600160a01b031681565b34801561055857600080fd5b506102556105673660046121f1565b610c7b565b34801561057857600080fd5b50610288610587366004612227565b610cb4565b34801561059857600080fd5b50610255600081565b3480156105ad57600080fd5b506103336105bc36600461220e565b610cdd565b3480156105cd57600080fd5b506102556105dc3660046121f1565b6001600160a01b031660009081526005602052604090205490565b34801561060357600080fd5b5061033361061236600461220e565b610dcc565b34801561062357600080fd5b506103336106323660046121f1565b610ebb565b34801561064357600080fd5b50610333610652366004612227565b610fda565b34801561066357600080fd5b50610255610672366004612265565b61110d565b34801561068357600080fd5b506102556106923660046121f1565b611132565b3480156106a357600080fd5b506103336106b2366004612227565b611154565b3480156106c357600080fd5b506103336106d2366004612227565b6112b3565b3480156106e357600080fd5b506103336106f2366004612282565b6112d8565b34801561070357600080fd5b5061039e61071236600461220e565b61132b565b34801561072357600080fd5b506102556107323660046121f1565b611355565b34801561074357600080fd5b506102557f97667070c54ef182b0f5858b034beac1b6f3089aa2d3188bb1e8929f4fa9b92981565b34801561077757600080fd5b5061025560025481565b600060085461078e61084a565b61079891906122d9565b905090565b60006001600160e01b03198216637965db0b60e01b14806107ce57506301ffc9a760e01b6001600160e01b03198316145b92915050565b6000806107e060035490565b905060005b8181101561084057836001600160a01b03166003828154811061080a5761080a6122ec565b6000918252602090912001546001600160a01b03160361082e575060019392505050565b8061083881612302565b9150506107e5565b5060009392505050565b6000808061085760035490565b905060005b818110156108be57600560006003838154811061087b5761087b6122ec565b60009182526020808320909101546001600160a01b031683528201929092526040019020546108aa908461231b565b9250806108b681612302565b91505061085c565b50816000036108d05760009250505090565b6108d982611377565b9250505090565b6000828152602081905260409020600101546108fb81611498565b61090583836114a5565b505050565b6001600160a01b038116331461097f5760405162461bcd60e51b815260206004820152602f60248201527f416363657373436f6e74726f6c3a2063616e206f6e6c792072656e6f756e636560448201526e103937b632b9903337b91039b2b63360891b60648201526084015b60405180910390fd5b6109898282611529565b5050565b7fa49807205ce4d355092ef5a8a18f56e8913cf4a201fbe287825b095693c217756109b781611498565b6001805460ff1916831515908117909155604080519182523360208301527f984d14093d32e1a05b1830f8ab780226363c9dd53cf80eee84135ce66eb845f591015b60405180910390a15050565b336001600160a01b037f00000000000000000000000000000000000000000000000000000000000000001614610a4d5760405162461bcd60e51b81526004016109769061232e565b600454610a62906001600160a01b031661158e565b60006003600081548110610a7857610a786122ec565b60009182526020822001546001600160a01b03169150610a9760035490565b905060005b81811015610b3e576001600160a01b03831660009081526005602081905260408220546003805491939185908110610ad657610ad66122ec565b60009182526020808320909101546001600160a01b031683528201929092526040019020541015610b2c5760038181548110610b1457610b146122ec565b6000918252602090912001546001600160a01b031692505b80610b3681612302565b915050610a9c565b5050600480546001600160a01b0319166001600160a01b0392909216919091179055565b6000610b6d60035490565b11610bad5760405162461bcd60e51b815260206004820152601060248201526f21a922a0aa22afa222a827a9a4aa27a960811b6044820152606401610976565b426002541115610bff5760405162461bcd60e51b815260206004820152601960248201527f574149545f464f525f4e4558545f434c45414e5f4f52444552000000000000006044820152606401610976565b610c07611634565b610c0f61174f565b60015460ff16610c2957610c2161180d565b610c2961198f565b6000610c33611a84565b610c3d904261231b565b60028190556040518181529091507fbcd58ee065940437e252f0433bf600c5b27a876c27decbe32d9e559238cf0a929060200160405180910390a150565b6001600160a01b038116600090815260056020526040812054808203610ca45750600092915050565b610cad81611377565b9392505050565b6000918252602082815260408084206001600160a01b0393909316845291905290205460ff1690565b7f97667070c54ef182b0f5858b034beac1b6f3089aa2d3188bb1e8929f4fa9b929610d0781611498565b600d548203610d495760405162461bcd60e51b815260206004820152600e60248201526d494e56414c49445f4348414e474560901b6044820152606401610976565b600354821015610d925760405162461bcd60e51b81526020600482015260146024820152730848a989eaebe86aaa4a48a9ca8be988a9c8ea8960631b6044820152606401610976565b600d829055604080518381523360208201527f8cc9924fc5f90ac32f1d9e69593ae169088e2f8129fdff7c1ffafeebab17d87e91016109f9565b7f97667070c54ef182b0f5858b034beac1b6f3089aa2d3188bb1e8929f4fa9b929610df681611498565b600c548203610e385760405162461bcd60e51b815260206004820152600e60248201526d494e56414c49445f4348414e474560901b6044820152606401610976565b600754821015610e815760405162461bcd60e51b81526020600482015260146024820152730848a989eaebe86aaa4a48a9ca8be988a9c8ea8960631b6044820152606401610976565b600c829055604080518381523360208201527f97e43b23016a0fa22fe411135d94e6667f69308bc545a0935087ce7cf645783b91016109f9565b7fa49807205ce4d355092ef5a8a18f56e8913cf4a201fbe287825b095693c21775610ee581611498565b600d5460035410610f385760405162461bcd60e51b815260206004820152601860248201527f4445504f5349544f52535f4c494d49545f5245414348454400000000000000006044820152606401610976565b600380546001810182556000919091527fc2575a0e9e593c00f959f8c92f12db2869c3395a3b0502d05e2516446f71f85b0180546001600160a01b0384166001600160a01b03199182168117909255600480549091169091179055610f9c8261158e565b604080516001600160a01b03841681523360208201527fb0c8d3ffe0e68b1135aeb0f0f57e57f41616354b7afa966b5718dc4ca429ffd091016109f9565b306001600160a01b03167f00000000000000000000000000000000000000000000000000000000000000006001600160a01b03166322828cc26040518163ffffffff1660e01b8152600401602060405180830381865afa158015611042573d6000803e3d6000fd5b505050506040513d601f19601f82011682018060405250810190611066919061235c565b6001600160a01b0316036110bc5760405162461bcd60e51b815260206004820181905260248201527f5641554c545f414e445f4d414e414745525f5354494c4c5f41545441434845446044820152606401610976565b6110c7813384611b33565b60405182815233906001600160a01b0383169082907f2c5df8c7ab98e30b283cdf51aba7043b460d144a940c6557458a00870b58fe2e9060200160405180910390a45050565b6000811561112a5761111d611a84565b6002546107ce919061231b565b505060025490565b60008061113e83611c4d565b6000908152600660205260409020549392505050565b336001600160a01b037f0000000000000000000000000000000000000000000000000000000000000000161461119c5760405162461bcd60e51b81526004016109769061232e565b81600860008282546111ae919061231b565b90915550600090506111bf82611c4d565b905060006111cc60075490565b90508160000361128957600c5481106112275760405162461bcd60e51b815260206004820152601860248201527f544f4f5f4d414e595f57495448445241575f4f524445525300000000000000006044820152606401610976565b600061123482600161231b565b60078190556040805180820182528781526001600160a01b03878116602080840191825260009586526006905292909320905181559051600190910180546001600160a01b03191691909216179055506112ad565b600082815260066020526040812080548692906112a790849061231b565b90915550505b50505050565b6000828152602081905260409020600101546112ce81611498565b6109058383611529565b336001600160a01b037f000000000000000000000000000000000000000000000000000000000000000016146113205760405162461bcd60e51b81526004016109769061232e565b610905838383611b33565b6003818154811061133b57600080fd5b6000918252602090912001546001600160a01b0316905081565b60008061136183611ca2565b6000908152600960205260409020549392505050565b6000807f000000000000000000000000000000000000000000000000000000000000000090506000816001600160a01b031663bb07ec1b6040518163ffffffff1660e01b8152600401602060405180830381865afa1580156113dd573d6000803e3d6000fd5b505050506040513d601f19601f820116820180604052508101906114019190612379565b905080600003611415575060009392505050565b6000826001600160a01b031663cd5ba5906040518163ffffffff1660e01b8152600401602060405180830381865afa158015611455573d6000803e3d6000fd5b505050506040513d601f19601f820116820180604052508101906114799190612379565b6114839086612392565b905061148f82826123a9565b95945050505050565b6114a28133611cf7565b50565b6114af8282610cb4565b610989576000828152602081815260408083206001600160a01b03851684529091529020805460ff191660011790556114e53390565b6001600160a01b0316816001600160a01b0316837f2f8788117e7eff1d82e926ec794901d17c78024a50270940304540a733656f0d60405160405180910390a45050565b6115338282610cb4565b15610989576000828152602081815260408083206001600160a01b0385168085529252808320805460ff1916905551339285917ff6391f5c32d9c69d2a47ea670b442974b53935d1edc7fd64eb21e047a839171b9190a45050565b60405163ba0cb22b60e01b81526001600160a01b0382811660048301527f0000000000000000000000000000000000000000000000000000000000000000169063ba0cb22b90602401602060405180830381865afa1580156115f4573d6000803e3d6000fd5b505050506040513d601f19601f820116820180604052508101906116189190612379565b6001600160a01b03909116600090815260056020526040902055565b600061163f60035490565b905060005b8181101561098957600060038281548110611661576116616122ec565b6000918252602080832090910154604080516340b9cd3760e11b815290516001600160a01b03909216945084926381739a6e926004808401938290030181865afa1580156116b3573d6000803e3d6000fd5b505050506040513d601f19601f820116820180604052508101906116d79190612379565b9050801561173a57604051632e1a7d4d60e01b8152600481018290526001600160a01b03831690632e1a7d4d90602401600060405180830381600087803b15801561172157600080fd5b505af1158015611735573d6000803e3d6000fd5b505050505b5050808061174790612302565b915050611644565b600061175a600a5490565b905060015b81811161180457600081815260096020818152604080842081518083018352815481526001820180546001600160a01b03808216848801908152865180880188528a81528089018b81528c8c5299895251909555965187166001600160a01b0319909116179055805191519094168552600b90925283208054929391929091906117ea90849061231b565b909155508291506117fc905081612302565b91505061175f565b50506000600a55565b60008061181960035490565b600854909150801561090557815b80156112ad576000600361183c6001846122d9565b8154811061184c5761184c6122ec565b60009182526020822001546001600160a01b0316915061186b82610c7b565b90508060000361187c57505061197d565b600061188887866122d9565b90508082106118fe576040516305c2fbcf60e31b8152600481018290526001600160a01b03841690632e17de7890602401600060405180830381600087803b1580156118d357600080fd5b505af11580156118e7573d6000803e3d6000fd5b5050505080876118f7919061231b565b9650611960565b826001600160a01b03166335322f376040518163ffffffff1660e01b8152600401600060405180830381600087803b15801561193957600080fd5b505af115801561194d573d6000803e3d6000fd5b50505050818761195d919061231b565b96505b6119698361158e565b8487036119795750505050505050565b5050505b80611987816123cb565b915050611827565b600061199a60075490565b905060015b818111611a7457600081815260066020908152604091829020825180840190935280548084526001909101546001600160a01b0316918301919091528015611a5f576020808301516040805180820182526000808252818501818152888252600686528382209251835551600192830180546001600160a01b039283166001600160a01b031991821617909155845180860186528881529582168688019081528a8452600990975293909120935184559351920180549290931691161790555b50508080611a6c90612302565b91505061199f565b50600a5560006007819055600855565b60405163894e9a0d60e01b81526000600482018190529081906001600160a01b037f0000000000000000000000000000000000000000000000000000000000000000169063894e9a0d9060240161016060405180830381865afa158015611aef573d6000803e3d6000fd5b505050506040513d601f19601f82011682018060405250810190611b1391906123e2565b509950505050505050505050610e1081611b2d919061231b565b91505090565b60008111611b835760405162461bcd60e51b815260206004820152601b60248201527f43414e4e4f545f57495448445241575f5a45524f5f41535345545300000000006044820152606401610976565b6001600160a01b0382166000908152600b6020526040902054811115611beb5760405162461bcd60e51b815260206004820152601b60248201527f4e4f545f454e4f5547485f415641494c41424c455f41535345545300000000006044820152606401610976565b6001600160a01b0382166000908152600b602052604081208054839290611c139084906122d9565b9091555061090590506001600160a01b037f0000000000000000000000000000000000000000000000000000000000000000168483611d50565b600080611c5960075490565b905060015b818111610840576000818152600660205260409020600101546001600160a01b03808616911603611c90579392505050565b80611c9a81612302565b915050611c5e565b600080611cae600a5490565b905060015b818111610840576000818152600960205260409020600101546001600160a01b03808616911603611ce5579392505050565b80611cef81612302565b915050611cb3565b611d018282610cb4565b61098957611d0e81611da2565b611d19836020611db4565b604051602001611d2a9291906124a9565b60408051601f198184030181529082905262461bcd60e51b82526109769160040161251e565b604080516001600160a01b038416602482015260448082018490528251808303909101815260649091019091526020810180516001600160e01b031663a9059cbb60e01b179052610905908490611f50565b60606107ce6001600160a01b03831660145b60606000611dc3836002612392565b611dce90600261231b565b67ffffffffffffffff811115611de657611de6612551565b6040519080825280601f01601f191660200182016040528015611e10576020820181803683370190505b509050600360fc1b81600081518110611e2b57611e2b6122ec565b60200101906001600160f81b031916908160001a905350600f60fb1b81600181518110611e5a57611e5a6122ec565b60200101906001600160f81b031916908160001a9053506000611e7e846002612392565b611e8990600161231b565b90505b6001811115611f01576f181899199a1a9b1b9c1cb0b131b232b360811b85600f1660108110611ebd57611ebd6122ec565b1a60f81b828281518110611ed357611ed36122ec565b60200101906001600160f81b031916908160001a90535060049490941c93611efa816123cb565b9050611e8c565b508315610cad5760405162461bcd60e51b815260206004820181905260248201527f537472696e67733a20686578206c656e67746820696e73756666696369656e746044820152606401610976565b6000611fa5826040518060400160405280602081526020017f5361666545524332303a206c6f772d6c6576656c2063616c6c206661696c6564815250856001600160a01b03166120229092919063ffffffff16565b8051909150156109055780806020019051810190611fc39190612567565b6109055760405162461bcd60e51b815260206004820152602a60248201527f5361666545524332303a204552433230206f7065726174696f6e20646964206e6044820152691bdd081cdd58d8d9595960b21b6064820152608401610976565b60606120318484600085612039565b949350505050565b60608247101561209a5760405162461bcd60e51b815260206004820152602660248201527f416464726573733a20696e73756666696369656e742062616c616e636520666f6044820152651c8818d85b1b60d21b6064820152608401610976565b600080866001600160a01b031685876040516120b69190612584565b60006040518083038185875af1925050503d80600081146120f3576040519150601f19603f3d011682016040523d82523d6000602084013e6120f8565b606091505b509150915061210987838387612114565b979650505050505050565b6060831561218357825160000361217c576001600160a01b0385163b61217c5760405162461bcd60e51b815260206004820152601d60248201527f416464726573733a2063616c6c20746f206e6f6e2d636f6e74726163740000006044820152606401610976565b5081612031565b61203183838151156121985781518083602001fd5b8060405162461bcd60e51b8152600401610976919061251e565b6000602082840312156121c457600080fd5b81356001600160e01b031981168114610cad57600080fd5b6001600160a01b03811681146114a257600080fd5b60006020828403121561220357600080fd5b8135610cad816121dc565b60006020828403121561222057600080fd5b5035919050565b6000806040838503121561223a57600080fd5b82359150602083013561224c816121dc565b809150509250929050565b80151581146114a257600080fd5b60006020828403121561227757600080fd5b8135610cad81612257565b60008060006060848603121561229757600080fd5b83356122a2816121dc565b925060208401356122b2816121dc565b929592945050506040919091013590565b634e487b7160e01b600052601160045260246000fd5b818103818111156107ce576107ce6122c3565b634e487b7160e01b600052603260045260246000fd5b600060018201612314576123146122c3565b5060010190565b808201808211156107ce576107ce6122c3565b60208082526014908201527313d3931657d193d497d4d510555497d59055531560621b604082015260600190565b60006020828403121561236e57600080fd5b8151610cad816121dc565b60006020828403121561238b57600080fd5b5051919050565b80820281158282048414176107ce576107ce6122c3565b6000826123c657634e487b7160e01b600052601260045260246000fd5b500490565b6000816123da576123da6122c3565b506000190190565b60008060008060008060008060008060006101608c8e03121561240457600080fd5b8b5161240f816121dc565b60208d0151909b50612420816121dc565b809a505060408c0151985060608c0151975060808c0151965060a08c0151955060c08c0151945060e08c015193506101008c015192506101208c015191506101408c01516003811061247157600080fd5b809150509295989b509295989b9093969950565b60005b838110156124a0578181015183820152602001612488565b50506000910152565b7f416363657373436f6e74726f6c3a206163636f756e74200000000000000000008152600083516124e1816017850160208801612485565b7001034b99036b4b9b9b4b733903937b6329607d1b6017918401918201528351612512816028840160208801612485565b01602801949350505050565b602081526000825180602084015261253d816040850160208701612485565b601f01601f19169190910160400192915050565b634e487b7160e01b600052604160045260246000fd5b60006020828403121561257957600080fd5b8151610cad81612257565b60008251612596818460208701612485565b919091019291505056fea26469706673582212204bde54b6978a03877b671924b2a841daab01136603d023caf94c477244d8174b64736f6c63430008120033",
    "linkReferences": {}
  },
  "methodIdentifiers": {
    "ADMIN_ROLE()": "75b238fc",
    "DEFAULT_ADMIN_ROLE()": "a217fddf",
    "OPERATOR_ROLE()": "f5b541a6",
    "SAFETY_BUFFER()": "0ef7fb67",
    "alternativeWithdraw(uint256,address)": "c02d3f22",
    "auroraStaking()": "46e90fa6",
    "auroraToken()": "5578fdb2",
    "changeMaxDepositors(uint256)": "a3c18c9b",
    "changeMaxWithdrawOrders(uint256)": "a6c52882",
    "cleanOrdersQueue()": "7f8523b1",
    "createWithdrawOrder(uint256,address)": "d2239e04",
    "depositorExists(address)": "048b7c15",
    "depositors(uint256)": "e4b2fb79",
    "getAvailableAssets(address)": "60cd0902",
    "getAvailableTimestamp(bool)": "c536e16a",
    "getDepositorShares(address)": "a512e06a",
    "getDepositorsLength()": "2fea20f6",
    "getPendingOrderAssets(address)": "e979157b",
    "getRoleAdmin(bytes32)": "248a9ca3",
    "getTotalAssetsFromDepositor(address)": "8b2741b2",
    "getTotalAssetsFromDepositors()": "08ee04f0",
    "getTotalPendingOrders()": "69d9446a",
    "getTotalWithdrawOrders()": "481e730e",
    "getWithdrawOrderAssets(address)": "cac25897",
    "grantRole(bytes32,address)": "2f2ff15d",
    "hasRole(bytes32,address)": "91d14854",
    "insertDepositor(address)": "b7f30a51",
    "nextCleanOrderQueue()": "f7ae5c76",
    "nextDepositor()": "825dc073",
    "renounceRole(bytes32,address)": "36568abe",
    "revokeRole(bytes32,address)": "d547741f",
    "setNextDepositor()": "74b573f2",
    "stAurVault()": "367c98b8",
    "stopProcessingWithdrawOrders(bool)": "4aa853fc",
    "stopWithdrawOrders()": "4b9b1e24",
    "supportsInterface(bytes4)": "01ffc9a7",
    "totalAssets()": "01e1d114",
    "totalWithdrawInQueue()": "40c19663",
    "transferAurora(address,address,uint256)": "e2f32def"
  },
  "id": 3
}