{
  "abi": [
    {
      "inputs": [
        {
          "internalType": "address",
          "name": "_stAurVault",
          "type": "address"
        },
        {
          "internalType": "address",
          "name": "_auroraToken",
          "type": "address"
        },
        {
          "internalType": "address",
          "name": "_feeCollectorRole",
          "type": "address"
        },
        {
          "internalType": "address",
          "name": "_contractOperatorRole",
          "type": "address"
        },
        {
          "internalType": "string",
          "name": "_lpTokenName",
          "type": "string"
        },
        {
          "internalType": "string",
          "name": "_lpTokenSymbol",
          "type": "string"
        },
        {
          "internalType": "uint256",
          "name": "_minDepositAmount",
          "type": "uint256"
        },
        {
          "internalType": "uint256",
          "name": "_swapFeeBasisPoints",
          "type": "uint256"
        },
        {
          "internalType": "uint256",
          "name": "_liqProvFeeCutBasisPoints",
          "type": "uint256"
        }
      ],
      "stateMutability": "nonpayable",
      "type": "constructor"
    },
    {
      "anonymous": false,
      "inputs": [
        {
          "indexed": true,
          "internalType": "address",
          "name": "_sender",
          "type": "address"
        },
        {
          "indexed": true,
          "internalType": "address",
          "name": "_receiver",
          "type": "address"
        },
        {
          "indexed": false,
          "internalType": "uint256",
          "name": "_auroraAmount",
          "type": "uint256"
        },
        {
          "indexed": false,
          "internalType": "uint256",
          "name": "_lpTokenAmount",
          "type": "uint256"
        }
      ],
      "name": "AddLiquidity",
      "type": "event"
    },
    {
      "anonymous": false,
      "inputs": [
        {
          "indexed": true,
          "internalType": "address",
          "name": "owner",
          "type": "address"
        },
        {
          "indexed": true,
          "internalType": "address",
          "name": "spender",
          "type": "address"
        },
        {
          "indexed": false,
          "internalType": "uint256",
          "name": "value",
          "type": "uint256"
        }
      ],
      "name": "Approval",
      "type": "event"
    },
    {
      "anonymous": false,
      "inputs": [
        {
          "indexed": false,
          "internalType": "bool",
          "name": "_isFullyOperational",
          "type": "bool"
        },
        {
          "indexed": false,
          "internalType": "address",
          "name": "_sender",
          "type": "address"
        }
      ],
      "name": "ContractUpdateOperation",
      "type": "event"
    },
    {
      "anonymous": false,
      "inputs": [
        {
          "indexed": true,
          "internalType": "address",
          "name": "sender",
          "type": "address"
        },
        {
          "indexed": true,
          "internalType": "address",
          "name": "owner",
          "type": "address"
        },
        {
          "indexed": false,
          "internalType": "uint256",
          "name": "assets",
          "type": "uint256"
        },
        {
          "indexed": false,
          "internalType": "uint256",
          "name": "shares",
          "type": "uint256"
        }
      ],
      "name": "Deposit",
      "type": "event"
    },
    {
      "anonymous": false,
      "inputs": [
        {
          "indexed": true,
          "internalType": "address",
          "name": "_sender",
          "type": "address"
        },
        {
          "indexed": true,
          "internalType": "address",
          "name": "_receiver",
          "type": "address"
        },
        {
          "indexed": true,
          "internalType": "address",
          "name": "_owner",
          "type": "address"
        },
        {
          "indexed": false,
          "internalType": "uint256",
          "name": "_lpTokenAmount",
          "type": "uint256"
        },
        {
          "indexed": false,
          "internalType": "uint256",
          "name": "_auroraAmount",
          "type": "uint256"
        },
        {
          "indexed": false,
          "internalType": "uint256",
          "name": "_stAurAmount",
          "type": "uint256"
        }
      ],
      "name": "RemoveLiquidity",
      "type": "event"
    },
    {
      "anonymous": false,
      "inputs": [
        {
          "indexed": true,
          "internalType": "bytes32",
          "name": "role",
          "type": "bytes32"
        },
        {
          "indexed": true,
          "internalType": "bytes32",
          "name": "previousAdminRole",
          "type": "bytes32"
        },
        {
          "indexed": true,
          "internalType": "bytes32",
          "name": "newAdminRole",
          "type": "bytes32"
        }
      ],
      "name": "RoleAdminChanged",
      "type": "event"
    },
    {
      "anonymous": false,
      "inputs": [
        {
          "indexed": true,
          "internalType": "bytes32",
          "name": "role",
          "type": "bytes32"
        },
        {
          "indexed": true,
          "internalType": "address",
          "name": "account",
          "type": "address"
        },
        {
          "indexed": true,
          "internalType": "address",
          "name": "sender",
          "type": "address"
        }
      ],
      "name": "RoleGranted",
      "type": "event"
    },
    {
      "anonymous": false,
      "inputs": [
        {
          "indexed": true,
          "internalType": "bytes32",
          "name": "role",
          "type": "bytes32"
        },
        {
          "indexed": true,
          "internalType": "address",
          "name": "account",
          "type": "address"
        },
        {
          "indexed": true,
          "internalType": "address",
          "name": "sender",
          "type": "address"
        }
      ],
      "name": "RoleRevoked",
      "type": "event"
    },
    {
      "anonymous": false,
      "inputs": [
        {
          "indexed": true,
          "internalType": "address",
          "name": "_receiver",
          "type": "address"
        },
        {
          "indexed": false,
          "internalType": "uint256",
          "name": "_stAurAmount",
          "type": "uint256"
        },
        {
          "indexed": false,
          "internalType": "uint256",
          "name": "_auroraAmount",
          "type": "uint256"
        }
      ],
      "name": "StAurLiquidityProvidedByPool",
      "type": "event"
    },
    {
      "anonymous": false,
      "inputs": [
        {
          "indexed": true,
          "internalType": "address",
          "name": "_user",
          "type": "address"
        },
        {
          "indexed": false,
          "internalType": "uint256",
          "name": "_auroraAmount",
          "type": "uint256"
        },
        {
          "indexed": false,
          "internalType": "uint256",
          "name": "_stAurAmount",
          "type": "uint256"
        },
        {
          "indexed": false,
          "internalType": "uint256",
          "name": "_totalFee",
          "type": "uint256"
        }
      ],
      "name": "SwapStAur",
      "type": "event"
    },
    {
      "anonymous": false,
      "inputs": [
        {
          "indexed": true,
          "internalType": "address",
          "name": "from",
          "type": "address"
        },
        {
          "indexed": true,
          "internalType": "address",
          "name": "to",
          "type": "address"
        },
        {
          "indexed": false,
          "internalType": "uint256",
          "name": "value",
          "type": "uint256"
        }
      ],
      "name": "Transfer",
      "type": "event"
    },
    {
      "anonymous": false,
      "inputs": [
        {
          "indexed": false,
          "internalType": "uint256",
          "name": "_new",
          "type": "uint256"
        },
        {
          "indexed": false,
          "internalType": "address",
          "name": "_sender",
          "type": "address"
        }
      ],
      "name": "UpdateFeeBasisPoints",
      "type": "event"
    },
    {
      "anonymous": false,
      "inputs": [
        {
          "indexed": false,
          "internalType": "uint256",
          "name": "_new",
          "type": "uint256"
        },
        {
          "indexed": false,
          "internalType": "address",
          "name": "_sender",
          "type": "address"
        }
      ],
      "name": "UpdateLiqProvFeeBasisPoints",
      "type": "event"
    },
    {
      "anonymous": false,
      "inputs": [
        {
          "indexed": false,
          "internalType": "uint256",
          "name": "_new",
          "type": "uint256"
        },
        {
          "indexed": false,
          "internalType": "address",
          "name": "_sender",
          "type": "address"
        }
      ],
      "name": "UpdateMinDepositAmount",
      "type": "event"
    },
    {
      "anonymous": false,
      "inputs": [
        {
          "indexed": true,
          "internalType": "address",
          "name": "sender",
          "type": "address"
        },
        {
          "indexed": true,
          "internalType": "address",
          "name": "receiver",
          "type": "address"
        },
        {
          "indexed": true,
          "internalType": "address",
          "name": "owner",
          "type": "address"
        },
        {
          "indexed": false,
          "internalType": "uint256",
          "name": "assets",
          "type": "uint256"
        },
        {
          "indexed": false,
          "internalType": "uint256",
          "name": "shares",
          "type": "uint256"
        }
      ],
      "name": "Withdraw",
      "type": "event"
    },
    {
      "anonymous": false,
      "inputs": [
        {
          "indexed": false,
          "internalType": "address",
          "name": "_receiver",
          "type": "address"
        },
        {
          "indexed": false,
          "internalType": "uint256",
          "name": "_amount",
          "type": "uint256"
        },
        {
          "indexed": false,
          "internalType": "address",
          "name": "_sender",
          "type": "address"
        }
      ],
      "name": "WithdrawCollectedFees",
      "type": "event"
    },
    {
      "inputs": [],
      "name": "ADMIN_ROLE",
      "outputs": [
        {
          "internalType": "bytes32",
          "name": "",
          "type": "bytes32"
        }
      ],
      "stateMutability": "view",
      "type": "function"
    },
    {
      "inputs": [],
      "name": "DEFAULT_ADMIN_ROLE",
      "outputs": [
        {
          "internalType": "bytes32",
          "name": "",
          "type": "bytes32"
        }
      ],
      "stateMutability": "view",
      "type": "function"
    },
    {
      "inputs": [],
      "name": "FEE_COLLECTOR_ROLE",
      "outputs": [
        {
          "internalType": "bytes32",
          "name": "",
          "type": "bytes32"
        }
      ],
      "stateMutability": "view",
      "type": "function"
    },
    {
      "inputs": [],
      "name": "ONE_HUNDRED_PERCENT",
      "outputs": [
        {
          "internalType": "uint256",
          "name": "",
          "type": "uint256"
        }
      ],
      "stateMutability": "view",
      "type": "function"
    },
    {
      "inputs": [],
      "name": "OPERATOR_ROLE",
      "outputs": [
        {
          "internalType": "bytes32",
          "name": "",
          "type": "bytes32"
        }
      ],
      "stateMutability": "view",
      "type": "function"
    },
    {
      "inputs": [
        {
          "internalType": "address",
          "name": "owner",
          "type": "address"
        },
        {
          "internalType": "address",
          "name": "spender",
          "type": "address"
        }
      ],
      "name": "allowance",
      "outputs": [
        {
          "internalType": "uint256",
          "name": "",
          "type": "uint256"
        }
      ],
      "stateMutability": "view",
      "type": "function"
    },
    {
      "inputs": [
        {
          "internalType": "address",
          "name": "spender",
          "type": "address"
        },
        {
          "internalType": "uint256",
          "name": "amount",
          "type": "uint256"
        }
      ],
      "name": "approve",
      "outputs": [
        {
          "internalType": "bool",
          "name": "",
          "type": "bool"
        }
      ],
      "stateMutability": "nonpayable",
      "type": "function"
    },
    {
      "inputs": [],
      "name": "asset",
      "outputs": [
        {
          "internalType": "address",
          "name": "",
          "type": "address"
        }
      ],
      "stateMutability": "view",
      "type": "function"
    },
    {
      "inputs": [],
      "name": "auroraBalance",
      "outputs": [
        {
          "internalType": "uint256",
          "name": "",
          "type": "uint256"
        }
      ],
      "stateMutability": "view",
      "type": "function"
    },
    {
      "inputs": [],
      "name": "auroraToken",
      "outputs": [
        {
          "internalType": "address",
          "name": "",
          "type": "address"
        }
      ],
      "stateMutability": "view",
      "type": "function"
    },
    {
      "inputs": [
        {
          "internalType": "address",
          "name": "account",
          "type": "address"
        }
      ],
      "name": "balanceOf",
      "outputs": [
        {
          "internalType": "uint256",
          "name": "",
          "type": "uint256"
        }
      ],
      "stateMutability": "view",
      "type": "function"
    },
    {
      "inputs": [],
      "name": "collectedStAurFees",
      "outputs": [
        {
          "internalType": "uint256",
          "name": "",
          "type": "uint256"
        }
      ],
      "stateMutability": "view",
      "type": "function"
    },
    {
      "inputs": [
        {
          "internalType": "uint256",
          "name": "shares",
          "type": "uint256"
        }
      ],
      "name": "convertToAssets",
      "outputs": [
        {
          "internalType": "uint256",
          "name": "assets",
          "type": "uint256"
        }
      ],
      "stateMutability": "view",
      "type": "function"
    },
    {
      "inputs": [
        {
          "internalType": "uint256",
          "name": "assets",
          "type": "uint256"
        }
      ],
      "name": "convertToShares",
      "outputs": [
        {
          "internalType": "uint256",
          "name": "shares",
          "type": "uint256"
        }
      ],
      "stateMutability": "view",
      "type": "function"
    },
    {
      "inputs": [],
      "name": "decimals",
      "outputs": [
        {
          "internalType": "uint8",
          "name": "",
          "type": "uint8"
        }
      ],
      "stateMutability": "view",
      "type": "function"
    },
    {
      "inputs": [
        {
          "internalType": "address",
          "name": "spender",
          "type": "address"
        },
        {
          "internalType": "uint256",
          "name": "subtractedValue",
          "type": "uint256"
        }
      ],
      "name": "decreaseAllowance",
      "outputs": [
        {
          "internalType": "bool",
          "name": "",
          "type": "bool"
        }
      ],
      "stateMutability": "nonpayable",
      "type": "function"
    },
    {
      "inputs": [
        {
          "internalType": "uint256",
          "name": "_assets",
          "type": "uint256"
        },
        {
          "internalType": "address",
          "name": "_receiver",
          "type": "address"
        }
      ],
      "name": "deposit",
      "outputs": [
        {
          "internalType": "uint256",
          "name": "",
          "type": "uint256"
        }
      ],
      "stateMutability": "nonpayable",
      "type": "function"
    },
    {
      "inputs": [],
      "name": "fullyOperational",
      "outputs": [
        {
          "internalType": "bool",
          "name": "",
          "type": "bool"
        }
      ],
      "stateMutability": "view",
      "type": "function"
    },
    {
      "inputs": [
        {
          "internalType": "bytes32",
          "name": "role",
          "type": "bytes32"
        }
      ],
      "name": "getRoleAdmin",
      "outputs": [
        {
          "internalType": "bytes32",
          "name": "",
          "type": "bytes32"
        }
      ],
      "stateMutability": "view",
      "type": "function"
    },
    {
      "inputs": [
        {
          "internalType": "bytes32",
          "name": "role",
          "type": "bytes32"
        },
        {
          "internalType": "address",
          "name": "account",
          "type": "address"
        }
      ],
      "name": "grantRole",
      "outputs": [],
      "stateMutability": "nonpayable",
      "type": "function"
    },
    {
      "inputs": [
        {
          "internalType": "bytes32",
          "name": "role",
          "type": "bytes32"
        },
        {
          "internalType": "address",
          "name": "account",
          "type": "address"
        }
      ],
      "name": "hasRole",
      "outputs": [
        {
          "internalType": "bool",
          "name": "",
          "type": "bool"
        }
      ],
      "stateMutability": "view",
      "type": "function"
    },
    {
      "inputs": [
        {
          "internalType": "address",
          "name": "spender",
          "type": "address"
        },
        {
          "internalType": "uint256",
          "name": "addedValue",
          "type": "uint256"
        }
      ],
      "name": "increaseAllowance",
      "outputs": [
        {
          "internalType": "bool",
          "name": "",
          "type": "bool"
        }
      ],
      "stateMutability": "nonpayable",
      "type": "function"
    },
    {
      "inputs": [
        {
          "internalType": "uint256",
          "name": "_amount",
          "type": "uint256"
        }
      ],
      "name": "isStAurBalanceAvailable",
      "outputs": [
        {
          "internalType": "bool",
          "name": "",
          "type": "bool"
        }
      ],
      "stateMutability": "view",
      "type": "function"
    },
    {
      "inputs": [],
      "name": "liqProvFeeCutBasisPoints",
      "outputs": [
        {
          "internalType": "uint256",
          "name": "",
          "type": "uint256"
        }
      ],
      "stateMutability": "view",
      "type": "function"
    },
    {
      "inputs": [
        {
          "internalType": "address",
          "name": "",
          "type": "address"
        }
      ],
      "name": "maxDeposit",
      "outputs": [
        {
          "internalType": "uint256",
          "name": "",
          "type": "uint256"
        }
      ],
      "stateMutability": "view",
      "type": "function"
    },
    {
      "inputs": [
        {
          "internalType": "address",
          "name": "",
          "type": "address"
        }
      ],
      "name": "maxMint",
      "outputs": [
        {
          "internalType": "uint256",
          "name": "",
          "type": "uint256"
        }
      ],
      "stateMutability": "view",
      "type": "function"
    },
    {
      "inputs": [
        {
          "internalType": "address",
          "name": "owner",
          "type": "address"
        }
      ],
      "name": "maxRedeem",
      "outputs": [
        {
          "internalType": "uint256",
          "name": "",
          "type": "uint256"
        }
      ],
      "stateMutability": "view",
      "type": "function"
    },
    {
      "inputs": [
        {
          "internalType": "address",
          "name": "owner",
          "type": "address"
        }
      ],
      "name": "maxWithdraw",
      "outputs": [
        {
          "internalType": "uint256",
          "name": "",
          "type": "uint256"
        }
      ],
      "stateMutability": "view",
      "type": "function"
    },
    {
      "inputs": [],
      "name": "minDepositAmount",
      "outputs": [
        {
          "internalType": "uint256",
          "name": "",
          "type": "uint256"
        }
      ],
      "stateMutability": "view",
      "type": "function"
    },
    {
      "inputs": [
        {
          "internalType": "uint256",
          "name": "",
          "type": "uint256"
        },
        {
          "internalType": "address",
          "name": "",
          "type": "address"
        }
      ],
      "name": "mint",
      "outputs": [
        {
          "internalType": "uint256",
          "name": "",
          "type": "uint256"
        }
      ],
      "stateMutability": "pure",
      "type": "function"
    },
    {
      "inputs": [],
      "name": "name",
      "outputs": [
        {
          "internalType": "string",
          "name": "",
          "type": "string"
        }
      ],
      "stateMutability": "view",
      "type": "function"
    },
    {
      "inputs": [
        {
          "internalType": "uint256",
          "name": "assets",
          "type": "uint256"
        }
      ],
      "name": "previewDeposit",
      "outputs": [
        {
          "internalType": "uint256",
          "name": "",
          "type": "uint256"
        }
      ],
      "stateMutability": "view",
      "type": "function"
    },
    {
      "inputs": [
        {
          "internalType": "uint256",
          "name": "shares",
          "type": "uint256"
        }
      ],
      "name": "previewMint",
      "outputs": [
        {
          "internalType": "uint256",
          "name": "",
          "type": "uint256"
        }
      ],
      "stateMutability": "view",
      "type": "function"
    },
    {
      "inputs": [
        {
          "internalType": "uint256",
          "name": "shares",
          "type": "uint256"
        }
      ],
      "name": "previewRedeem",
      "outputs": [
        {
          "internalType": "uint256",
          "name": "",
          "type": "uint256"
        }
      ],
      "stateMutability": "view",
      "type": "function"
    },
    {
      "inputs": [
        {
          "internalType": "uint256",
          "name": "_amount",
          "type": "uint256"
        }
      ],
      "name": "previewSwapStAurForAurora",
      "outputs": [
        {
          "internalType": "uint256",
          "name": "",
          "type": "uint256"
        }
      ],
      "stateMutability": "view",
      "type": "function"
    },
    {
      "inputs": [
        {
          "internalType": "uint256",
          "name": "assets",
          "type": "uint256"
        }
      ],
      "name": "previewWithdraw",
      "outputs": [
        {
          "internalType": "uint256",
          "name": "",
          "type": "uint256"
        }
      ],
      "stateMutability": "view",
      "type": "function"
    },
    {
      "inputs": [
        {
          "internalType": "uint256",
          "name": "_shares",
          "type": "uint256"
        },
        {
          "internalType": "address",
          "name": "_receiver",
          "type": "address"
        },
        {
          "internalType": "address",
          "name": "_owner",
          "type": "address"
        }
      ],
      "name": "redeem",
      "outputs": [
        {
          "internalType": "uint256",
          "name": "",
          "type": "uint256"
        }
      ],
      "stateMutability": "nonpayable",
      "type": "function"
    },
    {
      "inputs": [
        {
          "internalType": "bytes32",
          "name": "role",
          "type": "bytes32"
        },
        {
          "internalType": "address",
          "name": "account",
          "type": "address"
        }
      ],
      "name": "renounceRole",
      "outputs": [],
      "stateMutability": "nonpayable",
      "type": "function"
    },
    {
      "inputs": [
        {
          "internalType": "bytes32",
          "name": "role",
          "type": "bytes32"
        },
        {
          "internalType": "address",
          "name": "account",
          "type": "address"
        }
      ],
      "name": "revokeRole",
      "outputs": [],
      "stateMutability": "nonpayable",
      "type": "function"
    },
    {
      "inputs": [],
      "name": "stAurBalance",
      "outputs": [
        {
          "internalType": "uint256",
          "name": "",
          "type": "uint256"
        }
      ],
      "stateMutability": "view",
      "type": "function"
    },
    {
      "inputs": [],
      "name": "stAurVault",
      "outputs": [
        {
          "internalType": "address",
          "name": "",
          "type": "address"
        }
      ],
      "stateMutability": "view",
      "type": "function"
    },
    {
      "inputs": [
        {
          "internalType": "bytes4",
          "name": "interfaceId",
          "type": "bytes4"
        }
      ],
      "name": "supportsInterface",
      "outputs": [
        {
          "internalType": "bool",
          "name": "",
          "type": "bool"
        }
      ],
      "stateMutability": "view",
      "type": "function"
    },
    {
      "inputs": [],
      "name": "swapFeeBasisPoints",
      "outputs": [
        {
          "internalType": "uint256",
          "name": "",
          "type": "uint256"
        }
      ],
      "stateMutability": "view",
      "type": "function"
    },
    {
      "inputs": [
        {
          "internalType": "uint256",
          "name": "_stAurAmount",
          "type": "uint256"
        },
        {
          "internalType": "uint256",
          "name": "_minAuroraToReceive",
          "type": "uint256"
        }
      ],
      "name": "swapStAurForAurora",
      "outputs": [],
      "stateMutability": "nonpayable",
      "type": "function"
    },
    {
      "inputs": [],
      "name": "symbol",
      "outputs": [
        {
          "internalType": "string",
          "name": "",
          "type": "string"
        }
      ],
      "stateMutability": "view",
      "type": "function"
    },
    {
      "inputs": [],
      "name": "totalAssets",
      "outputs": [
        {
          "internalType": "uint256",
          "name": "",
          "type": "uint256"
        }
      ],
      "stateMutability": "view",
      "type": "function"
    },
    {
      "inputs": [],
      "name": "totalSupply",
      "outputs": [
        {
          "internalType": "uint256",
          "name": "",
          "type": "uint256"
        }
      ],
      "stateMutability": "view",
      "type": "function"
    },
    {
      "inputs": [
        {
          "internalType": "address",
          "name": "to",
          "type": "address"
        },
        {
          "internalType": "uint256",
          "name": "amount",
          "type": "uint256"
        }
      ],
      "name": "transfer",
      "outputs": [
        {
          "internalType": "bool",
          "name": "",
          "type": "bool"
        }
      ],
      "stateMutability": "nonpayable",
      "type": "function"
    },
    {
      "inputs": [
        {
          "internalType": "address",
          "name": "from",
          "type": "address"
        },
        {
          "internalType": "address",
          "name": "to",
          "type": "address"
        },
        {
          "internalType": "uint256",
          "name": "amount",
          "type": "uint256"
        }
      ],
      "name": "transferFrom",
      "outputs": [
        {
          "internalType": "bool",
          "name": "",
          "type": "bool"
        }
      ],
      "stateMutability": "nonpayable",
      "type": "function"
    },
    {
      "inputs": [
        {
          "internalType": "address",
          "name": "_receiver",
          "type": "address"
        },
        {
          "internalType": "uint256",
          "name": "_amount",
          "type": "uint256"
        },
        {
          "internalType": "uint256",
          "name": "_assets",
          "type": "uint256"
        }
      ],
      "name": "transferStAur",
      "outputs": [],
      "stateMutability": "nonpayable",
      "type": "function"
    },
    {
      "inputs": [
        {
          "internalType": "bool",
          "name": "_isFullyOperational",
          "type": "bool"
        }
      ],
      "name": "updateContractOperation",
      "outputs": [],
      "stateMutability": "nonpayable",
      "type": "function"
    },
    {
      "inputs": [
        {
          "internalType": "uint256",
          "name": "_feeBasisPoints",
          "type": "uint256"
        }
      ],
      "name": "updateFeeBasisPoints",
      "outputs": [],
      "stateMutability": "nonpayable",
      "type": "function"
    },
    {
      "inputs": [
        {
          "internalType": "uint256",
          "name": "_feeBasisPoints",
          "type": "uint256"
        }
      ],
      "name": "updateLiqProvFeeBasisPoints",
      "outputs": [],
      "stateMutability": "nonpayable",
      "type": "function"
    },
    {
      "inputs": [
        {
          "internalType": "uint256",
          "name": "_amount",
          "type": "uint256"
        }
      ],
      "name": "updateMinDepositAmount",
      "outputs": [],
      "stateMutability": "nonpayable",
      "type": "function"
    },
    {
      "inputs": [
        {
          "internalType": "uint256",
          "name": "",
          "type": "uint256"
        },
        {
          "internalType": "address",
          "name": "",
          "type": "address"
        },
        {
          "internalType": "address",
          "name": "",
          "type": "address"
        }
      ],
      "name": "withdraw",
      "outputs": [
        {
          "internalType": "uint256",
          "name": "",
          "type": "uint256"
        }
      ],
      "stateMutability": "pure",
      "type": "function"
    },
    {
      "inputs": [
        {
          "internalType": "address",
          "name": "_receiver",
          "type": "address"
        }
      ],
      "name": "withdrawCollectedStAurFees",
      "outputs": [],
      "stateMutability": "nonpayable",
      "type": "function"
    },
    {
      "stateMutability": "payable",
      "type": "receive"
    }
  ],
  "bytecode": {
    "object": "0x6101006040523480156200001257600080fd5b506040516200335938038062003359833981016040819052620000359162000538565b87858560036200004683826200069a565b5060046200005582826200069a565b5050506000806200006c83620002bf60201b60201c565b915091508162000091576200008b620003a460201b620019001760201c565b62000093565b805b60ff1660a05250506001600160a01b031660805281612710811115620001005760405162461bcd60e51b815260206004820152601460248201527f494e56414c49445f42415349535f504f494e545300000000000000000000000060448201526064015b60405180910390fd5b81612710811115620001555760405162461bcd60e51b815260206004820152601460248201527f494e56414c49445f42415349535f504f494e54530000000000000000000000006044820152606401620000f7565b6001600160a01b038b16158015906200017657506001600160a01b038a1615155b80156200018b57506001600160a01b03891615155b8015620001a057506001600160a01b03881615155b620001ee5760405162461bcd60e51b815260206004820152601460248201527f494e56414c49445f5a45524f5f414444524553530000000000000000000000006044820152606401620000f7565b6001600160a01b03808c1660c0528a1660e05260088590556009849055600a839055600c805460ff19166001179055620002497fa49807205ce4d355092ef5a8a18f56e8913cf4a201fbe287825b095693c2177533620003a9565b62000256600033620003a9565b620002827f2dca0f5ce7e75a4b43fe2b0d6f5d0b7a2bf92ecf89f8f0aa17b8308b670388218a620003a9565b620002ae7f97667070c54ef182b0f5858b034beac1b6f3089aa2d3188bb1e8929f4fa9b92989620003a9565b50505050505050505050506200079e565b60408051600481526024810182526020810180516001600160e01b031663313ce56760e01b17905290516000918291829182916001600160a01b03871691620003089162000766565b600060405180830381855afa9150503d806000811462000345576040519150601f19603f3d011682016040523d82523d6000602084013e6200034a565b606091505b50915091508180156200035f57506020815110155b1562000397576000818060200190518101906200037d919062000784565b905060ff811162000395576001969095509350505050565b505b5060009485945092505050565b601290565b60008281526005602090815260408083206001600160a01b038516845290915290205460ff166200044a5760008281526005602090815260408083206001600160a01b03851684529091529020805460ff19166001179055620004093390565b6001600160a01b0316816001600160a01b0316837f2f8788117e7eff1d82e926ec794901d17c78024a50270940304540a733656f0d60405160405180910390a45b5050565b80516001600160a01b03811681146200046657600080fd5b919050565b634e487b7160e01b600052604160045260246000fd5b60005b838110156200049e57818101518382015260200162000484565b50506000910152565b600082601f830112620004b957600080fd5b81516001600160401b0380821115620004d657620004d66200046b565b604051601f8301601f19908116603f011681019082821181831017156200050157620005016200046b565b816040528381528660208588010111156200051b57600080fd5b6200052e84602083016020890162000481565b9695505050505050565b60008060008060008060008060006101208a8c0312156200055857600080fd5b620005638a6200044e565b98506200057360208b016200044e565b97506200058360408b016200044e565b96506200059360608b016200044e565b60808b01519096506001600160401b0380821115620005b157600080fd5b620005bf8d838e01620004a7565b965060a08c0151915080821115620005d657600080fd5b50620005e58c828d01620004a7565b94505060c08a0151925060e08a015191506101008a015190509295985092959850929598565b600181811c908216806200062057607f821691505b6020821081036200064157634e487b7160e01b600052602260045260246000fd5b50919050565b601f8211156200069557600081815260208120601f850160051c81016020861015620006705750805b601f850160051c820191505b8181101562000691578281556001016200067c565b5050505b505050565b81516001600160401b03811115620006b657620006b66200046b565b620006ce81620006c784546200060b565b8462000647565b602080601f831160018114620007065760008415620006ed5750858301515b600019600386901b1c1916600185901b17855562000691565b600085815260208120601f198616915b82811015620007375788860151825594840194600190910190840162000716565b5085821015620007565787850151600019600388901b60f8161c191681555b5050505050600190811b01905550565b600082516200077a81846020870162000481565b9190910192915050565b6000602082840312156200079757600080fd5b5051919050565b60805160a05160c05160e051612b34620008256000396000818161064101528181610e3e015261117801526000818161054c01528181610ac501528181610d6801528181610de401528181610ff3015281816113050152818161144f0152611740015260006104f00152600081816105950152818161170c0152611ee80152612b346000f3fe60806040526004361061036f5760003560e01c806370a08231116101c6578063b3d7f6b9116100f7578063d905777e11610095578063dd62ed3e1161006f578063dd62ed3e14610a50578063e1437bcb14610a70578063ef8b30f71461099a578063f5b541a614610a8657600080fd5b8063d905777e146109fa578063da9c4b6714610a1a578063dd0081c714610a3a57600080fd5b8063c63d75b6116100d1578063c63d75b614610978578063c6e6f5921461099a578063ce96cb77146109ba578063d547741f146109da57600080fd5b8063b3d7f6b91461091d578063b460af941461093d578063ba0876521461095857600080fd5b806395d89b4111610164578063a22f23921161013e578063a22f2392146108a7578063a457c2d7146108bd578063a9059cbb146108dd578063a915277c146108fd57600080fd5b806395d89b411461085d5780639a47b53c14610872578063a217fddf1461089257600080fd5b806389197faf116101a057806389197faf146107dd57806390c69fe3146107fd57806391d148541461081d57806394bf804d1461083d57600080fd5b806370a082311461075357806375b238fc1461078957806384780205146107bd57600080fd5b806339509351116102a0578063597cc4d11161023e57806362a2a47c1161021857806362a2a47c146106c9578063645006ca146106fd5780636505bef4146107135780636e553f651461073357600080fd5b8063597cc4d1146106835780635ade1904146106995780635e30d67e146106b357600080fd5b80634cdad5061161027a5780634cdad506146103f55780634fb88847146106195780635578fdb21461062f57806357802c7d1461066357600080fd5b806339509351146105b9578063402d267d146105d95780634579c717146105f957600080fd5b806323b872dd1161030d578063313ce567116102e7578063313ce567146104dc57806336568abe1461051a578063367c98b81461053a57806338d52e0f1461058657600080fd5b806323b872dd1461046a578063248a9ca31461048a5780632f2ff15d146104ba57600080fd5b806307a2d13a1161034957806307a2d13a146103f5578063095ea7b3146104155780630a28a4771461043557806318160ddd1461045557600080fd5b806301e1d1141461037b57806301ffc9a7146103a357806306fdde03146103d357600080fd5b3661037657005b600080fd5b34801561038757600080fd5b50610390610aa8565b6040519081526020015b60405180910390f35b3480156103af57600080fd5b506103c36103be36600461266f565b610b4f565b604051901515815260200161039a565b3480156103df57600080fd5b506103e8610b86565b60405161039a91906126bd565b34801561040157600080fd5b506103906104103660046126f0565b610c18565b34801561042157600080fd5b506103c3610430366004612725565b610c25565b34801561044157600080fd5b506103906104503660046126f0565b610c3d565b34801561046157600080fd5b50600254610390565b34801561047657600080fd5b506103c361048536600461274f565b610c4a565b34801561049657600080fd5b506103906104a53660046126f0565b60009081526005602052604090206001015490565b3480156104c657600080fd5b506104da6104d536600461278b565b610c70565b005b3480156104e857600080fd5b5060405160ff7f000000000000000000000000000000000000000000000000000000000000000016815260200161039a565b34801561052657600080fd5b506104da61053536600461278b565b610c9a565b34801561054657600080fd5b5061056e7f000000000000000000000000000000000000000000000000000000000000000081565b6040516001600160a01b03909116815260200161039a565b34801561059257600080fd5b507f000000000000000000000000000000000000000000000000000000000000000061056e565b3480156105c557600080fd5b506103c36105d4366004612725565b610d1d565b3480156105e557600080fd5b506103906105f43660046127b7565b610d3f565b34801561060557600080fd5b506104da6106143660046127d2565b610d5d565b34801561062557600080fd5b5061039060075481565b34801561063b57600080fd5b5061056e7f000000000000000000000000000000000000000000000000000000000000000081565b34801561066f57600080fd5b506104da61067e3660046126f0565b610eb0565b34801561068f57600080fd5b50610390600b5481565b3480156106a557600080fd5b50600c546103c39060ff1681565b3480156106bf57600080fd5b50610390600a5481565b3480156106d557600080fd5b506103907f2dca0f5ce7e75a4b43fe2b0d6f5d0b7a2bf92ecf89f8f0aa17b8308b6703882181565b34801561070957600080fd5b5061039060085481565b34801561071f57600080fd5b506104da61072e366004612805565b610f55565b34801561073f57600080fd5b5061039061074e36600461278b565b6111f4565b34801561075f57600080fd5b5061039061076e3660046127b7565b6001600160a01b031660009081526020819052604090205490565b34801561079557600080fd5b506103907fa49807205ce4d355092ef5a8a18f56e8913cf4a201fbe287825b095693c2177581565b3480156107c957600080fd5b506104da6107d83660046126f0565b611284565b3480156107e957600080fd5b506103906107f83660046126f0565b6112de565b34801561080957600080fd5b506103c36108183660046126f0565b611378565b34801561082957600080fd5b506103c361083836600461278b565b611393565b34801561084957600080fd5b5061039061085836600461278b565b6113be565b34801561086957600080fd5b506103e8611400565b34801561087e57600080fd5b506104da61088d3660046127b7565b61140f565b34801561089e57600080fd5b50610390600081565b3480156108b357600080fd5b5061039060095481565b3480156108c957600080fd5b506103c36108d8366004612725565b6114bf565b3480156108e957600080fd5b506103c36108f8366004612725565b611545565b34801561090957600080fd5b506104da610918366004612835565b611553565b34801561092957600080fd5b506103906109383660046126f0565b6115c3565b34801561094957600080fd5b50610390610858366004612852565b34801561096457600080fd5b50610390610973366004612852565b6115d0565b34801561098457600080fd5b506103906109933660046127b7565b5060001990565b3480156109a657600080fd5b506103906109b53660046126f0565b6117c5565b3480156109c657600080fd5b506103906109d53660046127b7565b6117d2565b3480156109e657600080fd5b506104da6109f536600461278b565b6117f6565b348015610a0657600080fd5b50610390610a153660046127b7565b61181b565b348015610a2657600080fd5b506104da610a353660046126f0565b611839565b348015610a4657600080fd5b5061039061271081565b348015610a5c57600080fd5b50610390610a6b36600461288e565b6118d5565b348015610a7c57600080fd5b5061039060065481565b348015610a9257600080fd5b50610390600080516020612adf83398151915281565b6006546040516303d1689d60e11b81526000916001600160a01b037f000000000000000000000000000000000000000000000000000000000000000016916307a2d13a91610afc9160040190815260200190565b602060405180830381865afa158015610b19573d6000803e3d6000fd5b505050506040513d601f19601f82011682018060405250810190610b3d91906128b8565b600754610b4a91906128e7565b905090565b60006001600160e01b03198216637965db0b60e01b1480610b8057506301ffc9a760e01b6001600160e01b03198316145b92915050565b606060038054610b95906128fa565b80601f0160208091040260200160405190810160405280929190818152602001828054610bc1906128fa565b8015610c0e5780601f10610be357610100808354040283529160200191610c0e565b820191906000526020600020905b815481529060010190602001808311610bf157829003601f168201915b5050505050905090565b6000610b80826000611905565b600033610c3381858561193c565b5060019392505050565b6000610b80826001611a60565b600033610c58858285611a92565b610c63858585611b0c565b60019150505b9392505050565b600082815260056020526040902060010154610c8b81611cb0565b610c958383611cbd565b505050565b6001600160a01b0381163314610d0f5760405162461bcd60e51b815260206004820152602f60248201527f416363657373436f6e74726f6c3a2063616e206f6e6c792072656e6f756e636560448201526e103937b632b9903337b91039b2b63360891b60648201526084015b60405180910390fd5b610d198282611d43565b5050565b600033610c33818585610d3083836118d5565b610d3a91906128e7565b61193c565b6000610d49611daa565b610d54576000610b80565b60001992915050565b336001600160a01b037f00000000000000000000000000000000000000000000000000000000000000001614610dcc5760405162461bcd60e51b815260206004820152601460248201527313d3931657d193d497d4d510555497d59055531560621b6044820152606401610d06565b8160066000828254610dde9190612934565b909155507f00000000000000000000000000000000000000000000000000000000000000009050610e196001600160a01b0382168585611dc4565b8160076000828254610e2b91906128e7565b90915550610e6690506001600160a01b037f000000000000000000000000000000000000000000000000000000000000000016823085611e27565b60408051848152602081018490526001600160a01b038616917f0d6187bb3c7ec2dd0eb99b4bcedc1d45e5b74cd7ccd1dc49fb7c872b36e596a9910160405180910390a250505050565b600080516020612adf833981519152610ec881611cb0565b81612710811115610f125760405162461bcd60e51b8152602060048201526014602482015273494e56414c49445f42415349535f504f494e545360601b6044820152606401610d06565b6009839055604080518481523360208201527fed3a4a867b255a46c78a48b00e97b35edcb1926c252bcaf417f4f5a954101e5a91015b60405180910390a1505050565b600c5460ff16610f775760405162461bcd60e51b8152600401610d0690612947565b60008211610fc75760405162461bcd60e51b815260206004820152601760248201527f43414e4e4f545f535741505f5a45524f5f414d4f554e540000000000000000006044820152606401610d06565b6000806000610fd585611e5f565b6040516303d1689d60e11b81526004810184905292955090935091507f0000000000000000000000000000000000000000000000000000000000000000906000906001600160a01b038316906307a2d13a90602401602060405180830381865afa158015611047573d6000803e3d6000fd5b505050506040513d601f19601f8201168201806040525081019061106b91906128b8565b90506007548111156110b35760405162461bcd60e51b81526020600482015260116024820152704e4f545f454e4f5547485f4155524f524160781b6044820152606401610d06565b858110156111035760405162461bcd60e51b815260206004820152601960248201527f554e524541434845445f4d494e5f535741505f414d4f554e54000000000000006044820152606401610d06565b61110d83866128e7565b6006600082825461111e91906128e7565b9250508190555083600b600082825461113791906128e7565b9250508190555080600760008282546111509190612934565b9091555061116b90506001600160a01b03831633308a611e27565b61119f6001600160a01b037f0000000000000000000000000000000000000000000000000000000000000000163383611dc4565b337fe05accdc5a28561b36f8ca0a5f5bc4dd98c66d1fd989f6f462df10f2b051a71382896111cd87896128e7565b6040805193845260208401929092529082015260600160405180910390a250505050505050565b600c5460009060ff166112195760405162461bcd60e51b8152600401610d0690612947565b60085483101561126b5760405162461bcd60e51b815260206004820152601c60248201527f4c4553535f5448414e5f4d494e5f4445504f5349545f414d4f554e54000000006044820152606401610d06565b6000611276846117c5565b9050610c6933848684611ec3565b600080516020612adf83398151915261129c81611cb0565b6008829055604080518381523360208201527f0b6230e568a34b6f5ab9ddf98203464e0af7f22ce172aef16b6e1acdd738a28091015b60405180910390a15050565b6000806112ea83611e5f565b50506040516303d1689d60e11b8152600481018290529091507f00000000000000000000000000000000000000000000000000000000000000006001600160a01b0316906307a2d13a90602401602060405180830381865afa158015611354573d6000803e3d6000fd5b505050506040513d601f19601f82011682018060405250810190610c6991906128b8565b60008160065410158015610b805750600c5460ff1692915050565b60009182526005602090815260408084206001600160a01b0393909316845291905290205460ff1690565b60405162461bcd60e51b81526020600482015260146024820152732aa720ab20a4a620a12622afa32aa721aa24a7a760611b6044820152600090606401610d06565b606060048054610b95906128fa565b7f2dca0f5ce7e75a4b43fe2b0d6f5d0b7a2bf92ecf89f8f0aa17b8308b6703882161143981611cb0565b600b805460009091556114766001600160a01b037f0000000000000000000000000000000000000000000000000000000000000000168483611dc4565b604080516001600160a01b03851681526020810183905233918101919091527fef94dcd078ea9d8454995eaf86ac2451857392a75bb331c272b7d56a71b7192590606001610f48565b600033816114cd82866118d5565b90508381101561152d5760405162461bcd60e51b815260206004820152602560248201527f45524332303a2064656372656173656420616c6c6f77616e63652062656c6f77604482015264207a65726f60d81b6064820152608401610d06565b61153a828686840361193c565b506001949350505050565b600033610c33818585611b0c565b7fa49807205ce4d355092ef5a8a18f56e8913cf4a201fbe287825b095693c2177561157d81611cb0565b600c805460ff1916831515908117909155604080519182523360208301527f956501fb29fec297bb8258701ee6a99883446290e4dba4f0f75e3d47d917cc7291016112d2565b6000610b80826001611905565b600c5460009060ff166115f55760405162461bcd60e51b8152600401610d0690612947565b600084116116455760405162461bcd60e51b815260206004820152601960248201527f43414e4e4f545f52454445454d5f5a45524f5f534841524553000000000000006044820152606401610d06565b336001600160a01b0383161461166057611660823386611a92565b670de0b6b3a7640000600061167460025490565b61167e8388612988565b61168891906129b5565b90506000826007548361169b9190612988565b6116a591906129b5565b9050600083600654846116b89190612988565b6116c291906129b5565b905081600760008282546116d69190612934565b9250508190555080600660008282546116ef9190612934565b909155506116ff90503389611f76565b6117336001600160a01b037f0000000000000000000000000000000000000000000000000000000000000000168884611dc4565b6117676001600160a01b037f0000000000000000000000000000000000000000000000000000000000000000168883611dc4565b60408051898152602081018490529081018290526001600160a01b03808816919089169033907f094577f52c15f75d98e8b7e35fd170e61ac73ad9fb3135eae6674b39828d4d6e9060600160405180910390a4509695505050505050565b6000610b80826000611a60565b6001600160a01b038116600090815260208190526040812054610b80906000611905565b60008281526005602052604090206001015461181181611cb0565b610c958383611d43565b6001600160a01b038116600090815260208190526040812054610b80565b600080516020612adf83398151915261185181611cb0565b8161271081111561189b5760405162461bcd60e51b8152602060048201526014602482015273494e56414c49445f42415349535f504f494e545360601b6044820152606401610d06565b600a839055604080518481523360208201527f6b1f29362bd8791be9e453cd5c9eb1b0e1066ef28ceb7b4c5c61b5ded29b16619101610f48565b6001600160a01b03918216600090815260016020908152604080832093909416825291909152205490565b601290565b60008061191160025490565b905080156119325761192d611924610aa8565b859083866120a8565b611934565b835b949350505050565b6001600160a01b03831661199e5760405162461bcd60e51b8152602060048201526024808201527f45524332303a20617070726f76652066726f6d20746865207a65726f206164646044820152637265737360e01b6064820152608401610d06565b6001600160a01b0382166119ff5760405162461bcd60e51b815260206004820152602260248201527f45524332303a20617070726f766520746f20746865207a65726f206164647265604482015261737360f01b6064820152608401610d06565b6001600160a01b0383811660008181526001602090815260408083209487168084529482529182902085905590518481527f8c5be1e5ebec7d5bd14f71427d1e84f3dd0314c0f7b2291e5b200ac8c7c3b925910160405180910390a3505050565b600080611a6c60025490565b9050831580611a79575080155b6119325761192d81611a89610aa8565b869190866120a8565b6000611a9e84846118d5565b90506000198114611b065781811015611af95760405162461bcd60e51b815260206004820152601d60248201527f45524332303a20696e73756666696369656e7420616c6c6f77616e63650000006044820152606401610d06565b611b06848484840361193c565b50505050565b6001600160a01b038316611b705760405162461bcd60e51b815260206004820152602560248201527f45524332303a207472616e736665722066726f6d20746865207a65726f206164604482015264647265737360d81b6064820152608401610d06565b6001600160a01b038216611bd25760405162461bcd60e51b815260206004820152602360248201527f45524332303a207472616e7366657220746f20746865207a65726f206164647260448201526265737360e81b6064820152608401610d06565b6001600160a01b03831660009081526020819052604090205481811015611c4a5760405162461bcd60e51b815260206004820152602660248201527f45524332303a207472616e7366657220616d6f756e7420657863656564732062604482015265616c616e636560d01b6064820152608401610d06565b6001600160a01b03848116600081815260208181526040808320878703905593871680835291849020805487019055925185815290927fddf252ad1be2c89b69c2b068fc378daa952ba7f163c4a11628f55a4df523b3ef910160405180910390a3611b06565b611cba8133612105565b50565b611cc78282611393565b610d195760008281526005602090815260408083206001600160a01b03851684529091529020805460ff19166001179055611cff3390565b6001600160a01b0316816001600160a01b0316837f2f8788117e7eff1d82e926ec794901d17c78024a50270940304540a733656f0d60405160405180910390a45050565b611d4d8282611393565b15610d195760008281526005602090815260408083206001600160a01b0385168085529252808320805460ff1916905551339285917ff6391f5c32d9c69d2a47ea670b442974b53935d1edc7fd64eb21e047a839171b9190a45050565b600080611db5610aa8565b1180610b4a5750506002541590565b6040516001600160a01b038316602482015260448101829052610c9590849063a9059cbb60e01b906064015b60408051601f198184030181529190526020810180516001600160e01b03166001600160e01b03199093169290921790915261215e565b6040516001600160a01b0380851660248301528316604482015260648101829052611b069085906323b872dd60e01b90608401611df0565b60008060008061271060095486611e769190612988565b611e8091906129b5565b90506000612710600a5483611e959190612988565b611e9f91906129b5565b9050611eab8287612934565b611eb58284612934565b909790965090945092505050565b8160076000828254611ed591906128e7565b90915550611f1090506001600160a01b037f000000000000000000000000000000000000000000000000000000000000000016853085611e27565b611f1a8382612230565b826001600160a01b0316846001600160a01b03167fd2491a9b4fe81a7cd4511e8b7b7743951b061dad5bed7da8a7795b080ee08c7e8484604051611f68929190918252602082015260400190565b60405180910390a350505050565b6001600160a01b038216611fd65760405162461bcd60e51b815260206004820152602160248201527f45524332303a206275726e2066726f6d20746865207a65726f206164647265736044820152607360f81b6064820152608401610d06565b6001600160a01b0382166000908152602081905260409020548181101561204a5760405162461bcd60e51b815260206004820152602260248201527f45524332303a206275726e20616d6f756e7420657863656564732062616c616e604482015261636560f01b6064820152608401610d06565b6001600160a01b0383166000818152602081815260408083208686039055600280548790039055518581529192917fddf252ad1be2c89b69c2b068fc378daa952ba7f163c4a11628f55a4df523b3ef910160405180910390a3505050565b6000806120b68686866122ef565b905060018360028111156120cc576120cc6129d7565b1480156120e95750600084806120e4576120e461299f565b868809115b156120fc576120f96001826128e7565b90505b95945050505050565b61210f8282611393565b610d195761211c8161239e565b6121278360206123b0565b6040516020016121389291906129ed565b60408051601f198184030181529082905262461bcd60e51b8252610d06916004016126bd565b60006121b3826040518060400160405280602081526020017f5361666545524332303a206c6f772d6c6576656c2063616c6c206661696c6564815250856001600160a01b031661254c9092919063ffffffff16565b805190915015610c9557808060200190518101906121d19190612a62565b610c955760405162461bcd60e51b815260206004820152602a60248201527f5361666545524332303a204552433230206f7065726174696f6e20646964206e6044820152691bdd081cdd58d8d9595960b21b6064820152608401610d06565b6001600160a01b0382166122865760405162461bcd60e51b815260206004820152601f60248201527f45524332303a206d696e7420746f20746865207a65726f2061646472657373006044820152606401610d06565b806002600082825461229891906128e7565b90915550506001600160a01b038216600081815260208181526040808320805486019055518481527fddf252ad1be2c89b69c2b068fc378daa952ba7f163c4a11628f55a4df523b3ef910160405180910390a35050565b60008080600019858709858702925082811083820303915050806000036123295783828161231f5761231f61299f565b0492505050610c69565b80841161233557600080fd5b60008486880960026001871981018816978890046003810283188082028403028082028403028082028403028082028403028082028403029081029092039091026000889003889004909101858311909403939093029303949094049190911702949350505050565b6060610b806001600160a01b03831660145b606060006123bf836002612988565b6123ca9060026128e7565b67ffffffffffffffff8111156123e2576123e2612a7f565b6040519080825280601f01601f19166020018201604052801561240c576020820181803683370190505b509050600360fc1b8160008151811061242757612427612a95565b60200101906001600160f81b031916908160001a905350600f60fb1b8160018151811061245657612456612a95565b60200101906001600160f81b031916908160001a905350600061247a846002612988565b6124859060016128e7565b90505b60018111156124fd576f181899199a1a9b1b9c1cb0b131b232b360811b85600f16601081106124b9576124b9612a95565b1a60f81b8282815181106124cf576124cf612a95565b60200101906001600160f81b031916908160001a90535060049490941c936124f681612aab565b9050612488565b508315610c695760405162461bcd60e51b815260206004820181905260248201527f537472696e67733a20686578206c656e67746820696e73756666696369656e746044820152606401610d06565b6060611934848460008585600080866001600160a01b031685876040516125739190612ac2565b60006040518083038185875af1925050503d80600081146125b0576040519150601f19603f3d011682016040523d82523d6000602084013e6125b5565b606091505b50915091506125c6878383876125d1565b979650505050505050565b60608315612640578251600003612639576001600160a01b0385163b6126395760405162461bcd60e51b815260206004820152601d60248201527f416464726573733a2063616c6c20746f206e6f6e2d636f6e74726163740000006044820152606401610d06565b5081611934565b61193483838151156126555781518083602001fd5b8060405162461bcd60e51b8152600401610d0691906126bd565b60006020828403121561268157600080fd5b81356001600160e01b031981168114610c6957600080fd5b60005b838110156126b457818101518382015260200161269c565b50506000910152565b60208152600082518060208401526126dc816040850160208701612699565b601f01601f19169190910160400192915050565b60006020828403121561270257600080fd5b5035919050565b80356001600160a01b038116811461272057600080fd5b919050565b6000806040838503121561273857600080fd5b61274183612709565b946020939093013593505050565b60008060006060848603121561276457600080fd5b61276d84612709565b925061277b60208501612709565b9150604084013590509250925092565b6000806040838503121561279e57600080fd5b823591506127ae60208401612709565b90509250929050565b6000602082840312156127c957600080fd5b610c6982612709565b6000806000606084860312156127e757600080fd5b6127f084612709565b95602085013595506040909401359392505050565b6000806040838503121561281857600080fd5b50508035926020909101359150565b8015158114611cba57600080fd5b60006020828403121561284757600080fd5b8135610c6981612827565b60008060006060848603121561286757600080fd5b8335925061287760208501612709565b915061288560408501612709565b90509250925092565b600080604083850312156128a157600080fd5b6128aa83612709565b91506127ae60208401612709565b6000602082840312156128ca57600080fd5b5051919050565b634e487b7160e01b600052601160045260246000fd5b80820180821115610b8057610b806128d1565b600181811c9082168061290e57607f821691505b60208210810361292e57634e487b7160e01b600052602260045260246000fd5b50919050565b81810381811115610b8057610b806128d1565b60208082526021908201527f434f4e54524143545f49535f4e4f545f46554c4c595f4f5045524154494f4e416040820152601360fa1b606082015260800190565b8082028115828204841417610b8057610b806128d1565b634e487b7160e01b600052601260045260246000fd5b6000826129d257634e487b7160e01b600052601260045260246000fd5b500490565b634e487b7160e01b600052602160045260246000fd5b7f416363657373436f6e74726f6c3a206163636f756e7420000000000000000000815260008351612a25816017850160208801612699565b7001034b99036b4b9b9b4b733903937b6329607d1b6017918401918201528351612a56816028840160208801612699565b01602801949350505050565b600060208284031215612a7457600080fd5b8151610c6981612827565b634e487b7160e01b600052604160045260246000fd5b634e487b7160e01b600052603260045260246000fd5b600081612aba57612aba6128d1565b506000190190565b60008251612ad4818460208701612699565b919091019291505056fe97667070c54ef182b0f5858b034beac1b6f3089aa2d3188bb1e8929f4fa9b929a2646970667358221220a0c83d60fc27c28238c26584329bdf6430b139ebceb8755045740cdbd5c753db64736f6c63430008120033",
    "linkReferences": {}
  },
  "methodIdentifiers": {
    "ADMIN_ROLE()": "75b238fc",
    "DEFAULT_ADMIN_ROLE()": "a217fddf",
    "FEE_COLLECTOR_ROLE()": "62a2a47c",
    "ONE_HUNDRED_PERCENT()": "dd0081c7",
    "OPERATOR_ROLE()": "f5b541a6",
    "allowance(address,address)": "dd62ed3e",
    "approve(address,uint256)": "095ea7b3",
    "asset()": "38d52e0f",
    "auroraBalance()": "4fb88847",
    "auroraToken()": "5578fdb2",
    "balanceOf(address)": "70a08231",
    "collectedStAurFees()": "597cc4d1",
    "convertToAssets(uint256)": "07a2d13a",
    "convertToShares(uint256)": "c6e6f592",
    "decimals()": "313ce567",
    "decreaseAllowance(address,uint256)": "a457c2d7",
    "deposit(uint256,address)": "6e553f65",
    "fullyOperational()": "5ade1904",
    "getRoleAdmin(bytes32)": "248a9ca3",
    "grantRole(bytes32,address)": "2f2ff15d",
    "hasRole(bytes32,address)": "91d14854",
    "increaseAllowance(address,uint256)": "39509351",
    "isStAurBalanceAvailable(uint256)": "90c69fe3",
    "liqProvFeeCutBasisPoints()": "5e30d67e",
    "maxDeposit(address)": "402d267d",
    "maxMint(address)": "c63d75b6",
    "maxRedeem(address)": "d905777e",
    "maxWithdraw(address)": "ce96cb77",
    "minDepositAmount()": "645006ca",
    "mint(uint256,address)": "94bf804d",
    "name()": "06fdde03",
    "previewDeposit(uint256)": "ef8b30f7",
    "previewMint(uint256)": "b3d7f6b9",
    "previewRedeem(uint256)": "4cdad506",
    "previewSwapStAurForAurora(uint256)": "89197faf",
    "previewWithdraw(uint256)": "0a28a477",
    "redeem(uint256,address,address)": "ba087652",
    "renounceRole(bytes32,address)": "36568abe",
    "revokeRole(bytes32,address)": "d547741f",
    "stAurBalance()": "e1437bcb",
    "stAurVault()": "367c98b8",
    "supportsInterface(bytes4)": "01ffc9a7",
    "swapFeeBasisPoints()": "a22f2392",
    "swapStAurForAurora(uint256,uint256)": "6505bef4",
    "symbol()": "95d89b41",
    "totalAssets()": "01e1d114",
    "totalSupply()": "18160ddd",
    "transfer(address,uint256)": "a9059cbb",
    "transferFrom(address,address,uint256)": "23b872dd",
    "transferStAur(address,uint256,uint256)": "4579c717",
    "updateContractOperation(bool)": "a915277c",
    "updateFeeBasisPoints(uint256)": "57802c7d",
    "updateLiqProvFeeBasisPoints(uint256)": "da9c4b67",
    "updateMinDepositAmount(uint256)": "84780205",
    "withdraw(uint256,address,address)": "b460af94",
    "withdrawCollectedStAurFees(address)": "9a47b53c"
  },
  "id": 1
}